{
  "contractName": "Lottery",
  "abi": [
    {
      "anonymous": false,
      "inputs": [
        {
          "indexed": true,
          "internalType": "address",
          "name": "previousOwner",
          "type": "address"
        },
        {
          "indexed": true,
          "internalType": "address",
          "name": "newOwner",
          "type": "address"
        }
      ],
      "name": "OwnershipTransferred",
      "type": "event"
    },
    {
      "inputs": [],
      "name": "LotteriesCount",
      "outputs": [
        {
          "internalType": "uint256",
          "name": "",
          "type": "uint256"
        }
      ],
      "stateMutability": "view",
      "type": "function"
    },
    {
      "inputs": [],
      "name": "owner",
      "outputs": [
        {
          "internalType": "address",
          "name": "",
          "type": "address"
        }
      ],
      "stateMutability": "view",
      "type": "function"
    },
    {
      "inputs": [],
      "name": "renounceOwnership",
      "outputs": [],
      "stateMutability": "nonpayable",
      "type": "function"
    },
    {
      "inputs": [
        {
          "internalType": "address",
          "name": "newOwner",
          "type": "address"
        }
      ],
      "name": "transferOwnership",
      "outputs": [],
      "stateMutability": "nonpayable",
      "type": "function"
    },
    {
      "inputs": [],
      "name": "listOfActiveUsers",
      "outputs": [
        {
          "internalType": "address[]",
          "name": "",
          "type": "address[]"
        }
      ],
      "stateMutability": "view",
      "type": "function"
    },
    {
      "inputs": [],
      "name": "listOfActiveLotteriesID",
      "outputs": [
        {
          "internalType": "uint256[]",
          "name": "",
          "type": "uint256[]"
        }
      ],
      "stateMutability": "view",
      "type": "function"
    },
    {
      "inputs": [],
      "name": "activeLotteriesCount",
      "outputs": [
        {
          "internalType": "uint256",
          "name": "",
          "type": "uint256"
        }
      ],
      "stateMutability": "view",
      "type": "function"
    },
    {
      "inputs": [],
      "name": "startALottery",
      "outputs": [],
      "stateMutability": "nonpayable",
      "type": "function"
    },
    {
      "inputs": [],
      "name": "EndALottery",
      "outputs": [],
      "stateMutability": "nonpayable",
      "type": "function"
    },
    {
      "inputs": [],
      "name": "MyActiveLotteryID",
      "outputs": [
        {
          "internalType": "uint256",
          "name": "",
          "type": "uint256"
        }
      ],
      "stateMutability": "view",
      "type": "function"
    },
    {
      "inputs": [],
      "name": "MyLotteriesIDList",
      "outputs": [
        {
          "internalType": "uint256[]",
          "name": "",
          "type": "uint256[]"
        }
      ],
      "stateMutability": "view",
      "type": "function"
    }
  ],
  "bytecode": "0x608060405261271060075534801561001657600080fd5b5061003361002861003860201b60201c565b61004060201b60201c565b610104565b600033905090565b60008060009054906101000a900473ffffffffffffffffffffffffffffffffffffffff169050816000806101000a81548173ffffffffffffffffffffffffffffffffffffffff021916908373ffffffffffffffffffffffffffffffffffffffff1602179055508173ffffffffffffffffffffffffffffffffffffffff168173ffffffffffffffffffffffffffffffffffffffff167f8be0079c531659141344cd1fd0a4f28419497f9722a3daafe3b4186f6b6457e060405160405180910390a35050565b61112b806101136000396000f3fe608060405234801561001057600080fd5b50600436106100a95760003560e01c80638da5cb5b116100715780638da5cb5b1461011c578063b3c471f51461013a578063b72378b514610158578063b84b331b14610176578063dee2812d14610194578063f2fde38b1461019e576100a9565b806318167727146100ae5780632f4314b6146100cc5780636d076398146100ea578063715018a6146100f45780637cb15bca146100fe575b600080fd5b6100b66101ba565b6040516100c39190610d67565b60405180910390f35b6100d46101cb565b6040516100e19190610d89565b60405180910390f35b6100f26101dc565b005b6100fc61030b565b005b610106610393565b6040516101139190610e2b565b60405180910390f35b6101246103a4565b6040516101319190610d4c565b60405180910390f35b6101426103cd565b60405161014f9190610e2b565b60405180910390f35b61016061041b565b60405161016d9190610e2b565b60405180910390f35b61017e610421565b60405161018b9190610d89565b60405180910390f35b61019c6104bd565b005b6101b860048036038101906101b39190610b6b565b6105f0565b005b60606101c660016106e8565b905090565b60606101d76003610709565b905090565b6000600860006101ea61072a565b73ffffffffffffffffffffffffffffffffffffffff1673ffffffffffffffffffffffffffffffffffffffff168152602001908152602001600020541415610266576040517f08c379a000000000000000000000000000000000000000000000000000000000815260040161025d90610deb565b60405180910390fd5b61026e610732565b506102be6008600061027e61072a565b73ffffffffffffffffffffffffffffffffffffffff1673ffffffffffffffffffffffffffffffffffffffff1681526020019081526020016000205461074b565b50600860006102cb61072a565b73ffffffffffffffffffffffffffffffffffffffff1673ffffffffffffffffffffffffffffffffffffffff16815260200190815260200160002060009055565b61031361072a565b73ffffffffffffffffffffffffffffffffffffffff166103316103a4565b73ffffffffffffffffffffffffffffffffffffffff1614610387576040517f08c379a000000000000000000000000000000000000000000000000000000000815260040161037e90610e0b565b60405180910390fd5b610391600061075f565b565b600061039f6003610823565b905090565b60008060009054906101000a900473ffffffffffffffffffffffffffffffffffffffff16905090565b6000600860006103db61072a565b73ffffffffffffffffffffffffffffffffffffffff1673ffffffffffffffffffffffffffffffffffffffff16815260200190815260200160002054905090565b60055481565b60606009600061042f61072a565b73ffffffffffffffffffffffffffffffffffffffff1673ffffffffffffffffffffffffffffffffffffffff1681526020019081526020016000208054806020026020016040519081016040528092919081815260200182805480156104b357602002820191906000526020600020905b81548152602001906001019080831161049f575b5050505050905090565b6104c5610838565b15610505576040517f08c379a00000000000000000000000000000000000000000000000000000000081526004016104fc90610dcb565b60405180910390fd5b6005600081548092919061051890610f39565b9190505550610525610851565b5061053160055461086a565b506005546008600061054161072a565b73ffffffffffffffffffffffffffffffffffffffff1673ffffffffffffffffffffffffffffffffffffffff168152602001908152602001600020819055506009600061058b61072a565b73ffffffffffffffffffffffffffffffffffffffff1673ffffffffffffffffffffffffffffffffffffffff1681526020019081526020016000206005549080600181540180825580915050600190039060005260206000200160009091909190915055565b6105f861072a565b73ffffffffffffffffffffffffffffffffffffffff166106166103a4565b73ffffffffffffffffffffffffffffffffffffffff161461066c576040517f08c379a000000000000000000000000000000000000000000000000000000000815260040161066390610e0b565b60405180910390fd5b600073ffffffffffffffffffffffffffffffffffffffff168173ffffffffffffffffffffffffffffffffffffffff1614156106dc576040517f08c379a00000000000000000000000000000000000000000000000000000000081526004016106d390610dab565b60405180910390fd5b6106e58161075f565b50565b606060006106f88360000161087e565b905060608190508092505050919050565b606060006107198360000161087e565b905060608190508092505050919050565b600033905090565b6000610746600161074161072a565b6108da565b905090565b600061075860038361090a565b9050919050565b60008060009054906101000a900473ffffffffffffffffffffffffffffffffffffffff169050816000806101000a81548173ffffffffffffffffffffffffffffffffffffffff021916908373ffffffffffffffffffffffffffffffffffffffff1602179055508173ffffffffffffffffffffffffffffffffffffffff168173ffffffffffffffffffffffffffffffffffffffff167f8be0079c531659141344cd1fd0a4f28419497f9722a3daafe3b4186f6b6457e060405160405180910390a35050565b600061083182600001610924565b9050919050565b600061084c600161084761072a565b610935565b905090565b6000610865600161086061072a565b610965565b905090565b6000610877600383610995565b9050919050565b6060816000018054806020026020016040519081016040528092919081815260200182805480156108ce57602002820191906000526020600020905b8154815260200190600101908083116108ba575b50505050509050919050565b6000610902836000018373ffffffffffffffffffffffffffffffffffffffff1660001b6109af565b905092915050565b600061091c836000018360001b6109af565b905092915050565b600081600001805490509050919050565b600061095d836000018373ffffffffffffffffffffffffffffffffffffffff1660001b610ac3565b905092915050565b600061098d836000018373ffffffffffffffffffffffffffffffffffffffff1660001b610ae6565b905092915050565b60006109a7836000018360001b610ae6565b905092915050565b60008083600101600084815260200190815260200160002054905060008114610ab75760006001826109e19190610ec9565b90506000600186600001805490506109f99190610ec9565b9050818114610a68576000866000018281548110610a1a57610a19610fe0565b5b9060005260206000200154905080876000018481548110610a3e57610a3d610fe0565b5b90600052602060002001819055508387600101600083815260200190815260200160002081905550505b85600001805480610a7c57610a7b610fb1565b5b600190038181906000526020600020016000905590558560010160008681526020019081526020016000206000905560019350505050610abd565b60009150505b92915050565b600080836001016000848152602001908152602001600020541415905092915050565b6000610af28383610ac3565b610b4b578260000182908060018154018082558091505060019003906000526020600020016000909190919091505582600001805490508360010160008481526020019081526020016000208190555060019050610b50565b600090505b92915050565b600081359050610b65816110de565b92915050565b600060208284031215610b8157610b8061100f565b5b6000610b8f84828501610b56565b91505092915050565b6000610ba48383610bc8565b60208301905092915050565b6000610bbc8383610d2e565b60208301905092915050565b610bd181610efd565b82525050565b610be081610efd565b82525050565b6000610bf182610e66565b610bfb8185610e96565b9350610c0683610e46565b8060005b83811015610c37578151610c1e8882610b98565b9750610c2983610e7c565b925050600181019050610c0a565b5085935050505092915050565b6000610c4f82610e71565b610c598185610ea7565b9350610c6483610e56565b8060005b83811015610c95578151610c7c8882610bb0565b9750610c8783610e89565b925050600181019050610c68565b5085935050505092915050565b6000610caf602683610eb8565b9150610cba82611014565b604082019050919050565b6000610cd2601983610eb8565b9150610cdd82611063565b602082019050919050565b6000610cf5601183610eb8565b9150610d008261108c565b602082019050919050565b6000610d18602083610eb8565b9150610d23826110b5565b602082019050919050565b610d3781610f2f565b82525050565b610d4681610f2f565b82525050565b6000602082019050610d616000830184610bd7565b92915050565b60006020820190508181036000830152610d818184610be6565b905092915050565b60006020820190508181036000830152610da38184610c44565b905092915050565b60006020820190508181036000830152610dc481610ca2565b9050919050565b60006020820190508181036000830152610de481610cc5565b9050919050565b60006020820190508181036000830152610e0481610ce8565b9050919050565b60006020820190508181036000830152610e2481610d0b565b9050919050565b6000602082019050610e406000830184610d3d565b92915050565b6000819050602082019050919050565b6000819050602082019050919050565b600081519050919050565b600081519050919050565b6000602082019050919050565b6000602082019050919050565b600082825260208201905092915050565b600082825260208201905092915050565b600082825260208201905092915050565b6000610ed482610f2f565b9150610edf83610f2f565b925082821015610ef257610ef1610f82565b5b828203905092915050565b6000610f0882610f0f565b9050919050565b600073ffffffffffffffffffffffffffffffffffffffff82169050919050565b6000819050919050565b6000610f4482610f2f565b91507fffffffffffffffffffffffffffffffffffffffffffffffffffffffffffffffff821415610f7757610f76610f82565b5b600182019050919050565b7f4e487b7100000000000000000000000000000000000000000000000000000000600052601160045260246000fd5b7f4e487b7100000000000000000000000000000000000000000000000000000000600052603160045260246000fd5b7f4e487b7100000000000000000000000000000000000000000000000000000000600052603260045260246000fd5b600080fd5b7f4f776e61626c653a206e6577206f776e657220697320746865207a65726f206160008201527f6464726573730000000000000000000000000000000000000000000000000000602082015250565b7f416c72656164792072756e6e696e672061206c6f747465727900000000000000600082015250565b7f4e6f206c6f747465727920746f20656e64000000000000000000000000000000600082015250565b7f4f776e61626c653a2063616c6c6572206973206e6f7420746865206f776e6572600082015250565b6110e781610efd565b81146110f257600080fd5b5056fea2646970667358221220dd2489f9c1ef71d74fe35bdc440ff18817721c27b1fc454165fdc23781e94a0364736f6c63430008070033",
  "immutableReferences": {},
  "source": "// SPDX-License-Identifier: MIT\r\npragma solidity ^0.8.0;\r\n\r\nimport \"./IERC20.sol\";\r\nimport \"./Ownable.sol\";\r\nimport \"./EnumerableSet.sol\";\r\n\r\ncontract Lottery is Ownable {\r\n\r\n    using EnumerableSet for EnumerableSet.AddressSet;\r\n    using EnumerableSet for EnumerableSet.UintSet;\r\n\r\n    EnumerableSet.AddressSet private activeUsers;\r\n    EnumerableSet.UintSet private activeLotteries;\r\n\r\n    uint public LotteriesCount;    \r\n    address OURAddress;\r\n    uint minTokenRequire = 10_000;\r\n\r\n    mapping(address => uint) userActiveLotteryID;\r\n    mapping(address => uint[]) userLotteriesIDList;\r\n\r\n    modifier HoldRequiredOURs() {\r\n        require(IERC20(OURAddress).balanceOf(_msgSender()) >= minTokenRequire, \"Not enough ours\");\r\n        _;\r\n    }\r\n    \r\n\r\n    function userExists() internal view returns (bool) {\r\n        return EnumerableSet.contains(activeUsers, _msgSender());\r\n    }\r\n\r\n    function addUser() internal returns (bool) {\r\n        return EnumerableSet.add(activeUsers, _msgSender());\r\n    }\r\n\r\n    function removeUser() internal returns (bool) {\r\n        return EnumerableSet.remove(activeUsers, _msgSender());\r\n    }\r\n\r\n    function listOfActiveUsers() public view returns (address[] memory) {\r\n        return EnumerableSet.values(activeUsers);\r\n    }\r\n\r\n    function addLottery(uint _id) internal returns (bool) {\r\n        return EnumerableSet.add(activeLotteries, _id);\r\n    }\r\n\r\n    function removeLottery(uint _id) internal returns (bool) {\r\n        return EnumerableSet.remove(activeLotteries, _id);\r\n    }\r\n\r\n    function listOfActiveLotteriesID() public view returns (uint256[] memory) {\r\n        return EnumerableSet.values(activeLotteries);\r\n    }\r\n\r\n    function activeLotteriesCount() public view returns (uint256) {\r\n        return EnumerableSet.length(activeLotteries);\r\n    }\r\n\r\n\r\n    function startALottery() public {\r\n        require(!userExists(), \"Already running a lottery\");\r\n        LotteriesCount++;\r\n        addUser();\r\n        addLottery(LotteriesCount);\r\n        userActiveLotteryID[_msgSender()] = LotteriesCount;\r\n        userLotteriesIDList[_msgSender()].push(LotteriesCount);\r\n    }\r\n\r\n    function EndALottery() public {\r\n        require(userActiveLotteryID[_msgSender()] != 0 , \"No lottery to end\");\r\n        removeUser();\r\n        removeLottery(userActiveLotteryID[_msgSender()]);\r\n        delete userActiveLotteryID[_msgSender()];\r\n    }\r\n\r\n    function MyActiveLotteryID() public view returns (uint){\r\n        return userActiveLotteryID[_msgSender()];\r\n    }\r\n\r\n    function MyLotteriesIDList() public view returns (uint[] memory){\r\n        return userLotteriesIDList[_msgSender()];\r\n    }\r\n\r\n}\r\n\r\n\r\n\r\n// 3. Anonymous Model (Requires 10000 OUR tokens, condition kept to reduce the spamming).\r\n// Anyone can launch a lottery if he has a holding of 10000 OUR tokens using NO HOUSE advantage of the Tokens unique protocol.\r\n// Example: A person in the ecosystem wants to launch a lottery he can sell tickets with a pre-defined price in OUR tokens and time left for the draw.\r\n// Any others who wants to participate in this lottery will purchases the ticket within the cut-off time. After the draw is over and the winner is selected 90% of pooled amount will be transferred to the winners wallet and the person who launched a lottery will receive a commission of 3% of the pooled amount. And 4% from the balance will be transferred to the Lifetime lottery Model. Balance 3% will be used for the administration purpose.\r\n",
  "sourcePath": "D:\\Fiverr\\Lottery\\contracts\\Lottery.sol",
  "compiler": {
    "name": "solc",
    "version": "0.8.7+commit.e28d00a7.Emscripten.clang"
  },
  "schemaVersion": "3.4.3",
  "updatedAt": "2022-01-06T05:41:50.780Z",
  "devdoc": {
    "kind": "dev",
    "methods": {
      "owner()": {
        "details": "Returns the address of the current owner."
      },
      "renounceOwnership()": {
        "details": "Leaves the contract without owner. It will not be possible to call `onlyOwner` functions anymore. Can only be called by the current owner. NOTE: Renouncing ownership will leave the contract without an owner, thereby removing any functionality that is only available to the owner."
      },
      "transferOwnership(address)": {
        "details": "Transfers ownership of the contract to a new account (`newOwner`). Can only be called by the current owner."
      }
    },
    "version": 1
  },
  "userdoc": {
    "kind": "user",
    "methods": {},
    "version": 1
  }
}