{
  "contractName": "Lottery",
  "abi": [
    {
      "inputs": [],
      "stateMutability": "nonpayable",
      "type": "constructor"
    },
    {
      "anonymous": false,
      "inputs": [
        {
          "indexed": true,
          "internalType": "address",
          "name": "previousOwner",
          "type": "address"
        },
        {
          "indexed": true,
          "internalType": "address",
          "name": "newOwner",
          "type": "address"
        }
      ],
      "name": "OwnershipTransferred",
      "type": "event"
    },
    {
      "inputs": [],
      "name": "OURAddress",
      "outputs": [
        {
          "internalType": "address",
          "name": "",
          "type": "address"
        }
      ],
      "stateMutability": "view",
      "type": "function"
    },
    {
      "inputs": [],
      "name": "lotteriesCount",
      "outputs": [
        {
          "internalType": "uint256",
          "name": "",
          "type": "uint256"
        }
      ],
      "stateMutability": "view",
      "type": "function"
    },
    {
      "inputs": [
        {
          "internalType": "uint256",
          "name": "",
          "type": "uint256"
        }
      ],
      "name": "lotteryInfo",
      "outputs": [
        {
          "internalType": "uint256",
          "name": "id",
          "type": "uint256"
        },
        {
          "internalType": "enum Lottery.Status",
          "name": "status",
          "type": "uint8"
        },
        {
          "internalType": "address",
          "name": "owner",
          "type": "address"
        },
        {
          "internalType": "uint256",
          "name": "priceOfTicket",
          "type": "uint256"
        },
        {
          "internalType": "uint256",
          "name": "endingtime",
          "type": "uint256"
        },
        {
          "internalType": "uint256",
          "name": "countOfParticipants",
          "type": "uint256"
        },
        {
          "internalType": "uint256",
          "name": "countOfTickets",
          "type": "uint256"
        },
        {
          "internalType": "uint256",
          "name": "accumulatedFunds",
          "type": "uint256"
        },
        {
          "internalType": "address",
          "name": "winner",
          "type": "address"
        },
        {
          "internalType": "uint256",
          "name": "winnerIndex",
          "type": "uint256"
        },
        {
          "internalType": "uint256",
          "name": "prize",
          "type": "uint256"
        },
        {
          "internalType": "uint256",
          "name": "ownerCommision",
          "type": "uint256"
        }
      ],
      "stateMutability": "view",
      "type": "function"
    },
    {
      "inputs": [],
      "name": "maxTicketLimit",
      "outputs": [
        {
          "internalType": "uint256",
          "name": "",
          "type": "uint256"
        }
      ],
      "stateMutability": "view",
      "type": "function"
    },
    {
      "inputs": [],
      "name": "minTokenRequire",
      "outputs": [
        {
          "internalType": "uint256",
          "name": "",
          "type": "uint256"
        }
      ],
      "stateMutability": "view",
      "type": "function"
    },
    {
      "inputs": [],
      "name": "owner",
      "outputs": [
        {
          "internalType": "address",
          "name": "",
          "type": "address"
        }
      ],
      "stateMutability": "view",
      "type": "function"
    },
    {
      "inputs": [],
      "name": "randomResult",
      "outputs": [
        {
          "internalType": "uint256",
          "name": "",
          "type": "uint256"
        }
      ],
      "stateMutability": "view",
      "type": "function"
    },
    {
      "inputs": [
        {
          "internalType": "bytes32",
          "name": "requestId",
          "type": "bytes32"
        },
        {
          "internalType": "uint256",
          "name": "randomness",
          "type": "uint256"
        }
      ],
      "name": "rawFulfillRandomness",
      "outputs": [],
      "stateMutability": "nonpayable",
      "type": "function"
    },
    {
      "inputs": [],
      "name": "renounceOwnership",
      "outputs": [],
      "stateMutability": "nonpayable",
      "type": "function"
    },
    {
      "inputs": [
        {
          "internalType": "address",
          "name": "newOwner",
          "type": "address"
        }
      ],
      "name": "transferOwnership",
      "outputs": [],
      "stateMutability": "nonpayable",
      "type": "function"
    },
    {
      "inputs": [
        {
          "internalType": "uint256",
          "name": "",
          "type": "uint256"
        },
        {
          "internalType": "address",
          "name": "",
          "type": "address"
        }
      ],
      "name": "userContributions",
      "outputs": [
        {
          "internalType": "uint256",
          "name": "tickets",
          "type": "uint256"
        },
        {
          "internalType": "uint256",
          "name": "contribution",
          "type": "uint256"
        }
      ],
      "stateMutability": "view",
      "type": "function"
    },
    {
      "inputs": [],
      "name": "listOfActiveUsers",
      "outputs": [
        {
          "internalType": "address[]",
          "name": "",
          "type": "address[]"
        }
      ],
      "stateMutability": "view",
      "type": "function"
    },
    {
      "inputs": [
        {
          "internalType": "uint256",
          "name": "_priceOfTicket",
          "type": "uint256"
        },
        {
          "internalType": "uint256",
          "name": "_endingtime",
          "type": "uint256"
        }
      ],
      "name": "startALottery",
      "outputs": [],
      "stateMutability": "nonpayable",
      "type": "function"
    },
    {
      "inputs": [
        {
          "internalType": "uint256",
          "name": "_id",
          "type": "uint256"
        },
        {
          "internalType": "uint256",
          "name": "tickets",
          "type": "uint256"
        }
      ],
      "name": "buyATicket",
      "outputs": [],
      "stateMutability": "nonpayable",
      "type": "function"
    },
    {
      "inputs": [],
      "name": "endALottery",
      "outputs": [],
      "stateMutability": "nonpayable",
      "type": "function"
    },
    {
      "inputs": [],
      "name": "myActiveLotteryID",
      "outputs": [
        {
          "internalType": "uint256",
          "name": "",
          "type": "uint256"
        }
      ],
      "stateMutability": "view",
      "type": "function"
    },
    {
      "inputs": [],
      "name": "listOfActiveLotteriesID",
      "outputs": [
        {
          "internalType": "uint256[]",
          "name": "",
          "type": "uint256[]"
        }
      ],
      "stateMutability": "view",
      "type": "function"
    },
    {
      "inputs": [],
      "name": "activeLotteriesCount",
      "outputs": [
        {
          "internalType": "uint256",
          "name": "",
          "type": "uint256"
        }
      ],
      "stateMutability": "view",
      "type": "function"
    },
    {
      "inputs": [
        {
          "internalType": "address",
          "name": "_address",
          "type": "address"
        }
      ],
      "name": "updateCriteriaToken",
      "outputs": [],
      "stateMutability": "nonpayable",
      "type": "function"
    },
    {
      "inputs": [
        {
          "internalType": "uint256",
          "name": "_maxTicketLimit",
          "type": "uint256"
        }
      ],
      "name": "updateMaxTicketLimit",
      "outputs": [],
      "stateMutability": "nonpayable",
      "type": "function"
    },
    {
      "inputs": [
        {
          "internalType": "uint256",
          "name": "_minToken",
          "type": "uint256"
        }
      ],
      "name": "updateMinTokenRequire",
      "outputs": [],
      "stateMutability": "nonpayable",
      "type": "function"
    },
    {
      "inputs": [],
      "name": "withdrawFunds",
      "outputs": [],
      "stateMutability": "nonpayable",
      "type": "function"
    },
    {
      "inputs": [],
      "name": "withdrawLink",
      "outputs": [],
      "stateMutability": "nonpayable",
      "type": "function"
    },
    {
      "inputs": [],
      "name": "linkBalance",
      "outputs": [
        {
          "internalType": "uint256",
          "name": "",
          "type": "uint256"
        }
      ],
      "stateMutability": "view",
      "type": "function"
    }
  ],
  "bytecode": "0x60c0604052612710600a55600a600b553480156200001c57600080fd5b5073a555fc018435bef5a13c6c6870a9d4c11dec329c7384b9b910527ad5c03a9ca831909e21e236ea7b06620000676200005b6200011660201b60201c565b6200011e60201b60201c565b8173ffffffffffffffffffffffffffffffffffffffff1660a08173ffffffffffffffffffffffffffffffffffffffff1660601b815250508073ffffffffffffffffffffffffffffffffffffffff1660808173ffffffffffffffffffffffffffffffffffffffff1660601b8152505050507fcaf3c3727e033261d383b315559476f48034c13b18f8cafed4d871abe504918660001b60028190555067016345785d8a0000600381905550620001e2565b600033905090565b60008060009054906101000a900473ffffffffffffffffffffffffffffffffffffffff169050816000806101000a81548173ffffffffffffffffffffffffffffffffffffffff021916908373ffffffffffffffffffffffffffffffffffffffff1602179055508173ffffffffffffffffffffffffffffffffffffffff168173ffffffffffffffffffffffffffffffffffffffff167f8be0079c531659141344cd1fd0a4f28419497f9722a3daafe3b4186f6b6457e060405160405180910390a35050565b60805160601c60a05160601c6137e162000231600039600081816112ab0152611a9101526000818161050a015281816110c1015281816111b1015281816113fd0152611a5501526137e16000f3fe608060405234801561001057600080fd5b50600436106101585760003560e01c80637cb15bca116100c357806398c095531161007c57806398c095531461031f578063aaca3d7d1461033d578063c26ecefa14610378578063d949b5ec14610396578063ed54890d146103b2578063f2fde38b146103e357610158565b80637cb15bca146102835780637f3814fb146102a157806387ec8608146102bd5780638da5cb5b146102db5780638dc654a2146102f957806394985ddd1461030357610158565b806341032a3a1161011557806341032a3a146101e557806342619f66146102035780634f3aebee1461022157806350d9533e1461023f57806366b69f3f1461025d578063715018a61461027957610158565b806310b2ad3a1461015d57806310ce305114610167578063181677271461018357806324600fc3146101a15780632f4314b6146101ab5780633597c033146101c9575b600080fd5b6101656103ff565b005b610181600480360381019061017c9190612668565b610790565b005b61018b610816565b6040516101989190612c04565b60405180910390f35b6101a9610827565b005b6101b3610a93565b6040516101c09190612c26565b60405180910390f35b6101e360048036038101906101de9190612668565b610aa4565b005b6101ed610b2a565b6040516101fa9190612b4b565b60405180910390f35b61020b610b50565b6040516102189190612eb6565b60405180910390f35b610229610b56565b6040516102369190612eb6565b60405180910390f35b610247610b5c565b6040516102549190612eb6565b60405180910390f35b610277600480360381019061027291906125ce565b610b62565b005b610281610c22565b005b61028b610caa565b6040516102989190612eb6565b60405180910390f35b6102bb60048036038101906102b69190612702565b610cbb565b005b6102c5610fca565b6040516102d29190612eb6565b60405180910390f35b6102e3611018565b6040516102f09190612b4b565b60405180910390f35b610301611041565b005b61031d60048036038101906103189190612628565b6112a9565b005b610327611345565b6040516103349190612eb6565b60405180910390f35b61035760048036038101906103529190612668565b61134b565b60405161036f9c9b9a99989796959493929190612ed1565b60405180910390f35b6103806113f8565b60405161038d9190612eb6565b60405180910390f35b6103b060048036038101906103ab9190612702565b6114ad565b005b6103cc60048036038101906103c791906126c2565b611920565b6040516103da929190612f8b565b60405180910390f35b6103fd60048036038101906103f891906125ce565b611951565b005b6000600d600061040d611a49565b73ffffffffffffffffffffffffffffffffffffffff1673ffffffffffffffffffffffffffffffffffffffff168152602001908152602001600020549050600081141561048e576040517f08c379a000000000000000000000000000000000000000000000000000000000815260040161048590612d96565b60405180910390fd5b600f60008281526020019081526020016000206003015442116104e6576040517f08c379a00000000000000000000000000000000000000000000000000000000081526004016104dd90612d36565b60405180910390fd5b6000600f60008381526020019081526020016000206007015411156106a2576003547f000000000000000000000000000000000000000000000000000000000000000073ffffffffffffffffffffffffffffffffffffffff166370a08231306040518263ffffffff1660e01b81526004016105619190612b4b565b60206040518083038186803b15801561057957600080fd5b505afa15801561058d573d6000803e3d6000fd5b505050506040513d601f19601f820116820180604052508101906105b19190612695565b10156105f2576040517f08c379a00000000000000000000000000000000000000000000000000000000081526004016105e990612d16565b60405180910390fd5b6000610602600254600354611a51565b90506001600f600084815260200190815260200160002060010160006101000a81548160ff0219169083600281111561063e5761063d6132fe565b5b021790555061064b611a49565b600e600083815260200190815260200160002060006101000a81548173ffffffffffffffffffffffffffffffffffffffff021916908373ffffffffffffffffffffffffffffffffffffffff1602179055505061078d565b6002600f600083815260200190815260200160002060010160006101000a81548160ff021916908360028111156106dc576106db6132fe565b5b02179055506106f16106ec611a49565b611bb2565b50610741600d6000610701611a49565b73ffffffffffffffffffffffffffffffffffffffff1673ffffffffffffffffffffffffffffffffffffffff16815260200190815260200160002054611bc6565b50600d600061074e611a49565b73ffffffffffffffffffffffffffffffffffffffff1673ffffffffffffffffffffffffffffffffffffffff168152602001908152602001600020600090555b50565b610798611a49565b73ffffffffffffffffffffffffffffffffffffffff166107b6611018565b73ffffffffffffffffffffffffffffffffffffffff161461080c576040517f08c379a000000000000000000000000000000000000000000000000000000000815260040161080390612db6565b60405180910390fd5b80600a8190555050565b60606108226005611bda565b905090565b61082f611a49565b73ffffffffffffffffffffffffffffffffffffffff1661084d611018565b73ffffffffffffffffffffffffffffffffffffffff16146108a3576040517f08c379a000000000000000000000000000000000000000000000000000000000815260040161089a90612db6565b60405180910390fd5b6000600c60009054906101000a900473ffffffffffffffffffffffffffffffffffffffff1673ffffffffffffffffffffffffffffffffffffffff166370a08231306040518263ffffffff1660e01b81526004016109009190612b4b565b60206040518083038186803b15801561091857600080fd5b505afa15801561092c573d6000803e3d6000fd5b505050506040513d601f19601f820116820180604052508101906109509190612695565b905060008111610995576040517f08c379a000000000000000000000000000000000000000000000000000000000815260040161098c90612cd6565b60405180910390fd5b6000600c60009054906101000a900473ffffffffffffffffffffffffffffffffffffffff1673ffffffffffffffffffffffffffffffffffffffff1663a9059cbb6109dd611a49565b846040518363ffffffff1660e01b81526004016109fb929190612b9d565b602060405180830381600087803b158015610a1557600080fd5b505af1158015610a29573d6000803e3d6000fd5b505050506040513d601f19601f82011682018060405250810190610a4d91906125fb565b905080610a8f576040517f08c379a0000000000000000000000000000000000000000000000000000000008152600401610a8690612e16565b60405180910390fd5b5050565b6060610a9f6007611bfb565b905090565b610aac611a49565b73ffffffffffffffffffffffffffffffffffffffff16610aca611018565b73ffffffffffffffffffffffffffffffffffffffff1614610b20576040517f08c379a0000000000000000000000000000000000000000000000000000000008152600401610b1790612db6565b60405180910390fd5b80600b8190555050565b600c60009054906101000a900473ffffffffffffffffffffffffffffffffffffffff1681565b60045481565b600a5481565b60095481565b610b6a611a49565b73ffffffffffffffffffffffffffffffffffffffff16610b88611018565b73ffffffffffffffffffffffffffffffffffffffff1614610bde576040517f08c379a0000000000000000000000000000000000000000000000000000000008152600401610bd590612db6565b60405180910390fd5b80600c60006101000a81548173ffffffffffffffffffffffffffffffffffffffff021916908373ffffffffffffffffffffffffffffffffffffffff16021790555050565b610c2a611a49565b73ffffffffffffffffffffffffffffffffffffffff16610c48611018565b73ffffffffffffffffffffffffffffffffffffffff1614610c9e576040517f08c379a0000000000000000000000000000000000000000000000000000000008152600401610c9590612db6565b60405180910390fd5b610ca86000611c1c565b565b6000610cb66007611ce0565b905090565b610ccd6005610cc8611a49565b611cf5565b15610d0d576040517f08c379a0000000000000000000000000000000000000000000000000000000008152600401610d0490612dd6565b60405180910390fd5b600a54600c60009054906101000a900473ffffffffffffffffffffffffffffffffffffffff1673ffffffffffffffffffffffffffffffffffffffff166370a08231610d56611a49565b6040518263ffffffff1660e01b8152600401610d729190612b4b565b60206040518083038186803b158015610d8a57600080fd5b505afa158015610d9e573d6000803e3d6000fd5b505050506040513d601f19601f82011682018060405250810190610dc29190612695565b1015610e03576040517f08c379a0000000000000000000000000000000000000000000000000000000008152600401610dfa90612e96565b60405180910390fd5b621a5e0042610e129190613053565b811115610e54576040517f08c379a0000000000000000000000000000000000000000000000000000000008152600401610e4b90612e76565b60405180910390fd5b60096000815480929190610e6790613212565b9190505550610e74611d25565b50610e80600954611d3e565b50600954600d6000610e90611a49565b73ffffffffffffffffffffffffffffffffffffffff1673ffffffffffffffffffffffffffffffffffffffff16815260200190815260200160002081905550600954600f60006009548152602001908152602001600020600001819055506000600f6000600954815260200190815260200160002060010160006101000a81548160ff02191690836002811115610f2957610f286132fe565b5b0217905550610f36611a49565b600f6000600954815260200190815260200160002060010160016101000a81548173ffffffffffffffffffffffffffffffffffffffff021916908373ffffffffffffffffffffffffffffffffffffffff16021790555081600f600060095481526020019081526020016000206002018190555080600f60006009548152602001908152602001600020600301819055505050565b6000600d6000610fd8611a49565b73ffffffffffffffffffffffffffffffffffffffff1673ffffffffffffffffffffffffffffffffffffffff16815260200190815260200160002054905090565b60008060009054906101000a900473ffffffffffffffffffffffffffffffffffffffff16905090565b611049611a49565b73ffffffffffffffffffffffffffffffffffffffff16611067611018565b73ffffffffffffffffffffffffffffffffffffffff16146110bd576040517f08c379a00000000000000000000000000000000000000000000000000000000081526004016110b490612db6565b60405180910390fd5b60007f000000000000000000000000000000000000000000000000000000000000000073ffffffffffffffffffffffffffffffffffffffff166370a08231306040518263ffffffff1660e01b81526004016111189190612b4b565b60206040518083038186803b15801561113057600080fd5b505afa158015611144573d6000803e3d6000fd5b505050506040513d601f19601f820116820180604052508101906111689190612695565b9050600081116111ad576040517f08c379a00000000000000000000000000000000000000000000000000000000081526004016111a490612cd6565b60405180910390fd5b60007f000000000000000000000000000000000000000000000000000000000000000073ffffffffffffffffffffffffffffffffffffffff1663a9059cbb6111f3611a49565b846040518363ffffffff1660e01b8152600401611211929190612b9d565b602060405180830381600087803b15801561122b57600080fd5b505af115801561123f573d6000803e3d6000fd5b505050506040513d601f19601f8201168201806040525081019061126391906125fb565b9050806112a5576040517f08c379a000000000000000000000000000000000000000000000000000000000815260040161129c90612e16565b60405180910390fd5b5050565b7f000000000000000000000000000000000000000000000000000000000000000073ffffffffffffffffffffffffffffffffffffffff163373ffffffffffffffffffffffffffffffffffffffff1614611337576040517f08c379a000000000000000000000000000000000000000000000000000000000815260040161132e90612df6565b60405180910390fd5b6113418282611d52565b5050565b600b5481565b600f6020528060005260406000206000915090508060000154908060010160009054906101000a900460ff16908060010160019054906101000a900473ffffffffffffffffffffffffffffffffffffffff16908060020154908060030154908060050154908060060154908060070154908060080160009054906101000a900473ffffffffffffffffffffffffffffffffffffffff169080600901549080600a01549080600b015490508c565b6000807f000000000000000000000000000000000000000000000000000000000000000073ffffffffffffffffffffffffffffffffffffffff166370a08231306040518263ffffffff1660e01b81526004016114549190612b4b565b60206040518083038186803b15801561146c57600080fd5b505afa158015611480573d6000803e3d6000fd5b505050506040513d601f19601f820116820180604052508101906114a49190612695565b90508091505090565b81600f6000828152602001908152602001600020600301544210611506576040517f08c379a00000000000000000000000000000000000000000000000000000000081526004016114fd90612d76565b60405180910390fd5b6000821180156115185750600b548211155b611557576040517f08c379a000000000000000000000000000000000000000000000000000000000815260040161154e90612cb6565b60405180910390fd5b600c60009054906101000a900473ffffffffffffffffffffffffffffffffffffffff1673ffffffffffffffffffffffffffffffffffffffff166323b872dd61159d611a49565b30600f600088815260200190815260200160002060020154866115c091906130da565b6040518463ffffffff1660e01b81526004016115de93929190612b66565b602060405180830381600087803b1580156115f857600080fd5b505af115801561160c573d6000803e3d6000fd5b505050506040513d601f19601f8201168201806040525081019061163091906125fb565b61166f576040517f08c379a000000000000000000000000000000000000000000000000000000000815260040161166690612e36565b60405180910390fd5b600f6000848152602001908152602001600020600201548261169191906130da565b600f600085815260200190815260200160002060070160008282546116b69190613053565b92505081905550600f600084815260200190815260200160002060020154826116df91906130da565b6010600085815260200190815260200160002060006116fc611a49565b73ffffffffffffffffffffffffffffffffffffffff1673ffffffffffffffffffffffffffffffffffffffff16815260200190815260200160002060010160008282546117489190613053565b92505081905550600060106000858152602001908152602001600020600061176e611a49565b73ffffffffffffffffffffffffffffffffffffffff1673ffffffffffffffffffffffffffffffffffffffff1681526020019081526020016000206000015414156117df57600f600084815260200190815260200160002060050160008154809291906117d990613212565b91905055505b6000600190505b82811161191a57600f600085815260200190815260200160002060040161180b611a49565b9080600181540180825580915050600190039060005260206000200160009091909190916101000a81548173ffffffffffffffffffffffffffffffffffffffff021916908373ffffffffffffffffffffffffffffffffffffffff160217905550601060008581526020019081526020016000206000611888611a49565b73ffffffffffffffffffffffffffffffffffffffff1673ffffffffffffffffffffffffffffffffffffffff16815260200190815260200160002060000160008154809291906118d690613212565b9190505550600f6000858152602001908152602001600020600601600081548092919061190290613212565b9190505550808061191290613212565b9150506117e6565b50505050565b6010602052816000526040600020602052806000526040600020600091509150508060000154908060010154905082565b611959611a49565b73ffffffffffffffffffffffffffffffffffffffff16611977611018565b73ffffffffffffffffffffffffffffffffffffffff16146119cd576040517f08c379a00000000000000000000000000000000000000000000000000000000081526004016119c490612db6565b60405180910390fd5b600073ffffffffffffffffffffffffffffffffffffffff168173ffffffffffffffffffffffffffffffffffffffff161415611a3d576040517f08c379a0000000000000000000000000000000000000000000000000000000008152600401611a3490612cf6565b60405180910390fd5b611a4681611c1c565b50565b600033905090565b60007f000000000000000000000000000000000000000000000000000000000000000073ffffffffffffffffffffffffffffffffffffffff16634000aea07f000000000000000000000000000000000000000000000000000000000000000084866000604051602001611ac5929190612c48565b6040516020818303038152906040526040518463ffffffff1660e01b8152600401611af293929190612bc6565b602060405180830381600087803b158015611b0c57600080fd5b505af1158015611b20573d6000803e3d6000fd5b505050506040513d601f19601f82011682018060405250810190611b4491906125fb565b506000611b6784600030600160008981526020019081526020016000205461220c565b9050600180600086815260200190815260200160002054611b889190613053565b6001600086815260200190815260200160002081905550611ba98482612248565b91505092915050565b6000611bbf60058361227b565b9050919050565b6000611bd36007836122ab565b9050919050565b60606000611bea836000016122c5565b905060608190508092505050919050565b60606000611c0b836000016122c5565b905060608190508092505050919050565b60008060009054906101000a900473ffffffffffffffffffffffffffffffffffffffff169050816000806101000a81548173ffffffffffffffffffffffffffffffffffffffff021916908373ffffffffffffffffffffffffffffffffffffffff1602179055508173ffffffffffffffffffffffffffffffffffffffff168173ffffffffffffffffffffffffffffffffffffffff167f8be0079c531659141344cd1fd0a4f28419497f9722a3daafe3b4186f6b6457e060405160405180910390a35050565b6000611cee82600001612321565b9050919050565b6000611d1d836000018373ffffffffffffffffffffffffffffffffffffffff1660001b612332565b905092915050565b6000611d396005611d34611a49565b612355565b905090565b6000611d4b600783612385565b9050919050565b806004819055506000600e600084815260200190815260200160002060009054906101000a900473ffffffffffffffffffffffffffffffffffffffff1690506000600d60008373ffffffffffffffffffffffffffffffffffffffff1673ffffffffffffffffffffffffffffffffffffffff1681526020019081526020016000205490506000611e03600f6000848152602001908152602001600020600401805490508561239f90919063ffffffff16565b905080600f6000848152602001908152602001600020600901819055506000600f60008481526020019081526020016000206004018281548110611e4a57611e4961335c565b5b9060005260206000200160009054906101000a900473ffffffffffffffffffffffffffffffffffffffff16905080600f600085815260200190815260200160002060080160006101000a81548173ffffffffffffffffffffffffffffffffffffffff021916908373ffffffffffffffffffffffffffffffffffffffff1602179055506000611f0b6064611efd605c600f6000898152602001908152602001600020600701546123b590919063ffffffff16565b6123cb90919063ffffffff16565b90506000611f4c6064611f3e6004600f60008a8152602001908152602001600020600701546123b590919063ffffffff16565b6123cb90919063ffffffff16565b90506000600c60009054906101000a900473ffffffffffffffffffffffffffffffffffffffff1673ffffffffffffffffffffffffffffffffffffffff1663a9059cbb85856040518363ffffffff1660e01b8152600401611fad929190612b9d565b602060405180830381600087803b158015611fc757600080fd5b505af1158015611fdb573d6000803e3d6000fd5b505050506040513d601f19601f82011682018060405250810190611fff91906125fb565b905080612041576040517f08c379a000000000000000000000000000000000000000000000000000000000815260040161203890612d56565b60405180910390fd5b6000600c60009054906101000a900473ffffffffffffffffffffffffffffffffffffffff1673ffffffffffffffffffffffffffffffffffffffff1663a9059cbb89856040518363ffffffff1660e01b81526004016120a0929190612b9d565b602060405180830381600087803b1580156120ba57600080fd5b505af11580156120ce573d6000803e3d6000fd5b505050506040513d601f19601f820116820180604052508101906120f291906125fb565b905080612134576040517f08c379a000000000000000000000000000000000000000000000000000000000815260040161212b90612e56565b60405180910390fd5b83600f6000898152602001908152602001600020600a018190555082600f6000898152602001908152602001600020600b01819055506002600f600089815260200190815260200160002060010160006101000a81548160ff021916908360028111156121a4576121a36132fe565b5b02179055506121b288611bb2565b506121bc87611bc6565b50600d60008973ffffffffffffffffffffffffffffffffffffffff1673ffffffffffffffffffffffffffffffffffffffff1681526020019081526020016000206000905550505050505050505050565b6000848484846040516020016122259493929190612c71565b6040516020818303038152906040528051906020012060001c9050949350505050565b6000828260405160200161225d929190612b1f565b60405160208183030381529060405280519060200120905092915050565b60006122a3836000018373ffffffffffffffffffffffffffffffffffffffff1660001b6123e1565b905092915050565b60006122bd836000018360001b6123e1565b905092915050565b60608160000180548060200260200160405190810160405280929190818152602001828054801561231557602002820191906000526020600020905b815481526020019060010190808311612301575b50505050509050919050565b600081600001805490509050919050565b600080836001016000848152602001908152602001600020541415905092915050565b600061237d836000018373ffffffffffffffffffffffffffffffffffffffff1660001b6124f5565b905092915050565b6000612397836000018360001b6124f5565b905092915050565b600081836123ad919061326f565b905092915050565b600081836123c391906130da565b905092915050565b600081836123d991906130a9565b905092915050565b600080836001016000848152602001908152602001600020549050600081146124e95760006001826124139190613134565b905060006001866000018054905061242b9190613134565b905081811461249a57600086600001828154811061244c5761244b61335c565b5b90600052602060002001549050808760000184815481106124705761246f61335c565b5b90600052602060002001819055508387600101600083815260200190815260200160002081905550505b856000018054806124ae576124ad61332d565b5b6001900381819060005260206000200160009055905585600101600086815260200190815260200160002060009055600193505050506124ef565b60009150505b92915050565b60006125018383612332565b61255a57826000018290806001815401808255809150506001900390600052602060002001600090919091909150558260000180549050836001016000848152602001908152602001600020819055506001905061255f565b600090505b92915050565b6000813590506125748161374f565b92915050565b60008151905061258981613766565b92915050565b60008135905061259e8161377d565b92915050565b6000813590506125b381613794565b92915050565b6000815190506125c881613794565b92915050565b6000602082840312156125e4576125e361338b565b5b60006125f284828501612565565b91505092915050565b6000602082840312156126115761261061338b565b5b600061261f8482850161257a565b91505092915050565b6000806040838503121561263f5761263e61338b565b5b600061264d8582860161258f565b925050602061265e858286016125a4565b9150509250929050565b60006020828403121561267e5761267d61338b565b5b600061268c848285016125a4565b91505092915050565b6000602082840312156126ab576126aa61338b565b5b60006126b9848285016125b9565b91505092915050565b600080604083850312156126d9576126d861338b565b5b60006126e7858286016125a4565b92505060206126f885828601612565565b9150509250929050565b600080604083850312156127195761271861338b565b5b6000612727858286016125a4565b9250506020612738858286016125a4565b9150509250929050565b600061274e8383612772565b60208301905092915050565b60006127668383612aea565b60208301905092915050565b61277b81613168565b82525050565b61278a81613168565b82525050565b600061279b82612fd4565b6127a5818561300f565b93506127b083612fb4565b8060005b838110156127e15781516127c88882612742565b97506127d383612ff5565b9250506001810190506127b4565b5085935050505092915050565b60006127f982612fdf565b6128038185613020565b935061280e83612fc4565b8060005b8381101561283f578151612826888261275a565b975061283183613002565b925050600181019050612812565b5085935050505092915050565b61285581613186565b82525050565b61286c61286782613186565b61325b565b82525050565b600061287d82612fea565b6128878185613031565b93506128978185602086016131df565b6128a081613390565b840191505092915050565b6128b4816131cd565b82525050565b60006128c7602e83613042565b91506128d2826133a1565b604082019050919050565b60006128ea601383613042565b91506128f5826133f0565b602082019050919050565b600061290d602683613042565b915061291882613419565b604082019050919050565b6000612930602b83613042565b915061293b82613468565b604082019050919050565b6000612953601983613042565b915061295e826134b7565b602082019050919050565b6000612976601e83613042565b9150612981826134e0565b602082019050919050565b6000612999602783613042565b91506129a482613509565b604082019050919050565b60006129bc601183613042565b91506129c782613558565b602082019050919050565b60006129df602083613042565b91506129ea82613581565b602082019050919050565b6000612a02601e83613042565b9150612a0d826135aa565b602082019050919050565b6000612a25601f83613042565b9150612a30826135d3565b602082019050919050565b6000612a48601983613042565b9150612a53826135fc565b602082019050919050565b6000612a6b601483613042565b9150612a7682613625565b602082019050919050565b6000612a8e602283613042565b9150612a998261364e565b604082019050919050565b6000612ab1603d83613042565b9150612abc8261369d565b604082019050919050565b6000612ad4602283613042565b9150612adf826136ec565b604082019050919050565b612af3816131c3565b82525050565b612b02816131c3565b82525050565b612b19612b14826131c3565b613265565b82525050565b6000612b2b828561285b565b602082019150612b3b8284612b08565b6020820191508190509392505050565b6000602082019050612b606000830184612781565b92915050565b6000606082019050612b7b6000830186612781565b612b886020830185612781565b612b956040830184612af9565b949350505050565b6000604082019050612bb26000830185612781565b612bbf6020830184612af9565b9392505050565b6000606082019050612bdb6000830186612781565b612be86020830185612af9565b8181036040830152612bfa8184612872565b9050949350505050565b60006020820190508181036000830152612c1e8184612790565b905092915050565b60006020820190508181036000830152612c4081846127ee565b905092915050565b6000604082019050612c5d600083018561284c565b612c6a6020830184612af9565b9392505050565b6000608082019050612c86600083018761284c565b612c936020830186612af9565b612ca06040830185612781565b612cad6060830184612af9565b95945050505050565b60006020820190508181036000830152612ccf816128ba565b9050919050565b60006020820190508181036000830152612cef816128dd565b9050919050565b60006020820190508181036000830152612d0f81612900565b9050919050565b60006020820190508181036000830152612d2f81612923565b9050919050565b60006020820190508181036000830152612d4f81612946565b9050919050565b60006020820190508181036000830152612d6f81612969565b9050919050565b60006020820190508181036000830152612d8f8161298c565b9050919050565b60006020820190508181036000830152612daf816129af565b9050919050565b60006020820190508181036000830152612dcf816129d2565b9050919050565b60006020820190508181036000830152612def816129f5565b9050919050565b60006020820190508181036000830152612e0f81612a18565b9050919050565b60006020820190508181036000830152612e2f81612a3b565b9050919050565b60006020820190508181036000830152612e4f81612a5e565b9050919050565b60006020820190508181036000830152612e6f81612a81565b9050919050565b60006020820190508181036000830152612e8f81612aa4565b9050919050565b60006020820190508181036000830152612eaf81612ac7565b9050919050565b6000602082019050612ecb6000830184612af9565b92915050565b600061018082019050612ee7600083018f612af9565b612ef4602083018e6128ab565b612f01604083018d612781565b612f0e606083018c612af9565b612f1b608083018b612af9565b612f2860a083018a612af9565b612f3560c0830189612af9565b612f4260e0830188612af9565b612f50610100830187612781565b612f5e610120830186612af9565b612f6c610140830185612af9565b612f7a610160830184612af9565b9d9c50505050505050505050505050565b6000604082019050612fa06000830185612af9565b612fad6020830184612af9565b9392505050565b6000819050602082019050919050565b6000819050602082019050919050565b600081519050919050565b600081519050919050565b600081519050919050565b6000602082019050919050565b6000602082019050919050565b600082825260208201905092915050565b600082825260208201905092915050565b600082825260208201905092915050565b600082825260208201905092915050565b600061305e826131c3565b9150613069836131c3565b9250827fffffffffffffffffffffffffffffffffffffffffffffffffffffffffffffffff0382111561309e5761309d6132a0565b5b828201905092915050565b60006130b4826131c3565b91506130bf836131c3565b9250826130cf576130ce6132cf565b5b828204905092915050565b60006130e5826131c3565b91506130f0836131c3565b9250817fffffffffffffffffffffffffffffffffffffffffffffffffffffffffffffffff0483118215151615613129576131286132a0565b5b828202905092915050565b600061313f826131c3565b915061314a836131c3565b92508282101561315d5761315c6132a0565b5b828203905092915050565b6000613173826131a3565b9050919050565b60008115159050919050565b6000819050919050565b600081905061319e8261373b565b919050565b600073ffffffffffffffffffffffffffffffffffffffff82169050919050565b6000819050919050565b60006131d882613190565b9050919050565b60005b838110156131fd5780820151818401526020810190506131e2565b8381111561320c576000848401525b50505050565b600061321d826131c3565b91507fffffffffffffffffffffffffffffffffffffffffffffffffffffffffffffffff8214156132505761324f6132a0565b5b600182019050919050565b6000819050919050565b6000819050919050565b600061327a826131c3565b9150613285836131c3565b925082613295576132946132cf565b5b828206905092915050565b7f4e487b7100000000000000000000000000000000000000000000000000000000600052601160045260246000fd5b7f4e487b7100000000000000000000000000000000000000000000000000000000600052601260045260246000fd5b7f4e487b7100000000000000000000000000000000000000000000000000000000600052602160045260246000fd5b7f4e487b7100000000000000000000000000000000000000000000000000000000600052603160045260246000fd5b7f4e487b7100000000000000000000000000000000000000000000000000000000600052603260045260246000fd5b600080fd5b6000601f19601f8301169050919050565b7f43616e6e74206279206d6f7265207468616e204d6178206c696d697420696e2060008201527f6f6e652074726173616374696f6e000000000000000000000000000000000000602082015250565b7f4e6f7468696e6720746f20776974686472617700000000000000000000000000600082015250565b7f4f776e61626c653a206e6577206f776e657220697320746865207a65726f206160008201527f6464726573730000000000000000000000000000000000000000000000000000602082015250565b7f4e6f7420656e6f756768204c494e4b202d2066696c6c20636f6e74726163742060008201527f7769746820666175636574000000000000000000000000000000000000000000602082015250565b7f6c6f7474657279207374696c6c20696e2070726f677265737300000000000000600082015250565b7f77697468647261775072697a6520697320756e7365636365737366756c6c0000600082015250565b7f4c6f747465727920686173206265656e20657870697265642e20547279206e6560008201527f78742074696d6500000000000000000000000000000000000000000000000000602082015250565b7f4e6f206c6f747465727920746f20656e64000000000000000000000000000000600082015250565b7f4f776e61626c653a2063616c6c6572206973206e6f7420746865206f776e6572600082015250565b7f5573657220616c72656164792072756e6e696e672061206c6f74746572790000600082015250565b7f4f6e6c7920565246436f6f7264696e61746f722063616e2066756c66696c6c00600082015250565b7f576974686472776120697320756e7365636365737366756c6c00000000000000600082015250565b7f496e73756666696369656e742042616c616e6365000000000000000000000000600082015250565b7f73656e644f6e6572436f6d6d6973696f6e20697320756e73656363657373667560008201527f6c6c000000000000000000000000000000000000000000000000000000000000602082015250565b7f456e64696e672074696d652073686f756c64206265206d6f7265207468616e2060008201527f3620686f75727320616e64206c657373207468656e2032302064617973000000602082015250565b7f4e6f7420656e6f75676820544f4b454e532c20506c6561736520627579206d6f60008201527f7265000000000000000000000000000000000000000000000000000000000000602082015250565b6003811061374c5761374b6132fe565b5b50565b61375881613168565b811461376357600080fd5b50565b61376f8161317a565b811461377a57600080fd5b50565b61378681613186565b811461379157600080fd5b50565b61379d816131c3565b81146137a857600080fd5b5056fea2646970667358221220e51eec7d305d85aa1b36c5f199f4064b33aebe3b0bd0b425acc4ff6ba2e567be64736f6c63430008070033",
  "immutableReferences": {
    "214": [
      {
        "length": 32,
        "start": 1290
      },
      {
        "length": 32,
        "start": 4289
      },
      {
        "length": 32,
        "start": 4529
      },
      {
        "length": 32,
        "start": 5117
      },
      {
        "length": 32,
        "start": 6741
      }
    ],
    "216": [
      {
        "length": 32,
        "start": 4779
      },
      {
        "length": 32,
        "start": 6801
      }
    ]
  },
  "source": " // SPDX-License-Identifier: MIT\r\n// File: @chainlink/contracts/src/v0.8/VRFRequestIDBase.sol\r\n\r\n\r\npragma solidity ^0.8.0;\r\n\r\ncontract VRFRequestIDBase {\r\n  /**\r\n   * @notice returns the seed which is actually input to the VRF coordinator\r\n   *\r\n   * @dev To prevent repetition of VRF output due to repetition of the\r\n   * @dev user-supplied seed, that seed is combined in a hash with the\r\n   * @dev user-specific nonce, and the address of the consuming contract. The\r\n   * @dev risk of repetition is mostly mitigated by inclusion of a blockhash in\r\n   * @dev the final seed, but the nonce does protect against repetition in\r\n   * @dev requests which are included in a single block.\r\n   *\r\n   * @param _userSeed VRF seed input provided by user\r\n   * @param _requester Address of the requesting contract\r\n   * @param _nonce User-specific nonce at the time of the request\r\n   */\r\n  function makeVRFInputSeed(\r\n    bytes32 _keyHash,\r\n    uint256 _userSeed,\r\n    address _requester,\r\n    uint256 _nonce\r\n  ) internal pure returns (uint256) {\r\n    return uint256(keccak256(abi.encode(_keyHash, _userSeed, _requester, _nonce)));\r\n  }\r\n\r\n  /**\r\n   * @notice Returns the id for this request\r\n   * @param _keyHash The serviceAgreement ID to be used for this request\r\n   * @param _vRFInputSeed The seed to be passed directly to the VRF\r\n   * @return The id for this request\r\n   *\r\n   * @dev Note that _vRFInputSeed is not the seed passed by the consuming\r\n   * @dev contract, but the one generated by makeVRFInputSeed\r\n   */\r\n  function makeRequestId(bytes32 _keyHash, uint256 _vRFInputSeed) internal pure returns (bytes32) {\r\n    return keccak256(abi.encodePacked(_keyHash, _vRFInputSeed));\r\n  }\r\n}\r\n\r\n// File: @chainlink/contracts/src/v0.8/interfaces/LinkTokenInterface.sol\r\n\r\n\r\npragma solidity ^0.8.0;\r\n\r\ninterface LinkTokenInterface {\r\n  function allowance(address owner, address spender) external view returns (uint256 remaining);\r\n\r\n  function approve(address spender, uint256 value) external returns (bool success);\r\n\r\n  function balanceOf(address owner) external view returns (uint256 balance);\r\n\r\n  function decimals() external view returns (uint8 decimalPlaces);\r\n\r\n  function decreaseApproval(address spender, uint256 addedValue) external returns (bool success);\r\n\r\n  function increaseApproval(address spender, uint256 subtractedValue) external;\r\n\r\n  function name() external view returns (string memory tokenName);\r\n\r\n  function symbol() external view returns (string memory tokenSymbol);\r\n\r\n  function totalSupply() external view returns (uint256 totalTokensIssued);\r\n\r\n  function transfer(address to, uint256 value) external returns (bool success);\r\n\r\n  function transferAndCall(\r\n    address to,\r\n    uint256 value,\r\n    bytes calldata data\r\n  ) external returns (bool success);\r\n\r\n  function transferFrom(\r\n    address from,\r\n    address to,\r\n    uint256 value\r\n  ) external returns (bool success);\r\n}\r\n\r\n// File: @chainlink/contracts/src/v0.8/VRFConsumerBase.sol\r\n\r\n\r\npragma solidity ^0.8.0;\r\n/** ****************************************************************************\r\n * @notice Interface for contracts using VRF randomness\r\n * *****************************************************************************\r\n * @dev PURPOSE\r\n *\r\n * @dev Reggie the Random Oracle (not his real job) wants to provide randomness\r\n * @dev to Vera the verifier in such a way that Vera can be sure he's not\r\n * @dev making his output up to suit himself. Reggie provides Vera a public key\r\n * @dev to which he knows the secret key. Each time Vera provides a seed to\r\n * @dev Reggie, he gives back a value which is computed completely\r\n * @dev deterministically from the seed and the secret key.\r\n *\r\n * @dev Reggie provides a proof by which Vera can verify that the output was\r\n * @dev correctly computed once Reggie tells it to her, but without that proof,\r\n * @dev the output is indistinguishable to her from a uniform random sample\r\n * @dev from the output space.\r\n *\r\n * @dev The purpose of this contract is to make it easy for unrelated contracts\r\n * @dev to talk to Vera the verifier about the work Reggie is doing, to provide\r\n * @dev simple access to a verifiable source of randomness.\r\n * *****************************************************************************\r\n * @dev USAGE\r\n *\r\n * @dev Calling contracts must inherit from VRFConsumerBase, and can\r\n * @dev initialize VRFConsumerBase's attributes in their constructor as\r\n * @dev shown:\r\n *\r\n * @dev   contract VRFConsumer {\r\n * @dev     constuctor(<other arguments>, address _vrfCoordinator, address _link)\r\n * @dev       VRFConsumerBase(_vrfCoordinator, _link) public {\r\n * @dev         <initialization with other arguments goes here>\r\n * @dev       }\r\n * @dev   }\r\n *\r\n * @dev The oracle will have given you an ID for the VRF keypair they have\r\n * @dev committed to (let's call it keyHash), and have told you the minimum LINK\r\n * @dev price for VRF service. Make sure your contract has sufficient LINK, and\r\n * @dev call requestRandomness(keyHash, fee, seed), where seed is the input you\r\n * @dev want to generate randomness from.\r\n *\r\n * @dev Once the VRFCoordinator has received and validated the oracle's response\r\n * @dev to your request, it will call your contract's fulfillRandomness method.\r\n *\r\n * @dev The randomness argument to fulfillRandomness is the actual random value\r\n * @dev generated from your seed.\r\n *\r\n * @dev The requestId argument is generated from the keyHash and the seed by\r\n * @dev makeRequestId(keyHash, seed). If your contract could have concurrent\r\n * @dev requests open, you can use the requestId to track which seed is\r\n * @dev associated with which randomness. See VRFRequestIDBase.sol for more\r\n * @dev details. (See \"SECURITY CONSIDERATIONS\" for principles to keep in mind,\r\n * @dev if your contract could have multiple requests in flight simultaneously.)\r\n *\r\n * @dev Colliding `requestId`s are cryptographically impossible as long as seeds\r\n * @dev differ. (Which is critical to making unpredictable randomness! See the\r\n * @dev next section.)\r\n *\r\n * *****************************************************************************\r\n * @dev SECURITY CONSIDERATIONS\r\n *\r\n * @dev A method with the ability to call your fulfillRandomness method directly\r\n * @dev could spoof a VRF response with any random value, so it's critical that\r\n * @dev it cannot be directly called by anything other than this base contract\r\n * @dev (specifically, by the VRFConsumerBase.rawFulfillRandomness method).\r\n *\r\n * @dev For your users to trust that your contract's random behavior is free\r\n * @dev from malicious interference, it's best if you can write it so that all\r\n * @dev behaviors implied by a VRF response are executed *during* your\r\n * @dev fulfillRandomness method. If your contract must store the response (or\r\n * @dev anything derived from it) and use it later, you must ensure that any\r\n * @dev user-significant behavior which depends on that stored value cannot be\r\n * @dev manipulated by a subsequent VRF request.\r\n *\r\n * @dev Similarly, both miners and the VRF oracle itself have some influence\r\n * @dev over the order in which VRF responses appear on the blockchain, so if\r\n * @dev your contract could have multiple VRF requests in flight simultaneously,\r\n * @dev you must ensure that the order in which the VRF responses arrive cannot\r\n * @dev be used to manipulate your contract's user-significant behavior.\r\n *\r\n * @dev Since the ultimate input to the VRF is mixed with the block hash of the\r\n * @dev block in which the request is made, user-provided seeds have no impact\r\n * @dev on its economic security properties. They are only included for API\r\n * @dev compatability with previous versions of this contract.\r\n *\r\n * @dev Since the block hash of the block which contains the requestRandomness\r\n * @dev call is mixed into the input to the VRF *last*, a sufficiently powerful\r\n * @dev miner could, in principle, fork the blockchain to evict the block\r\n * @dev containing the request, forcing the request to be included in a\r\n * @dev different block with a different hash, and therefore a different input\r\n * @dev to the VRF. However, such an attack would incur a substantial economic\r\n * @dev cost. This cost scales with the number of blocks the VRF oracle waits\r\n * @dev until it calls responds to a request.\r\n */\r\nabstract contract VRFConsumerBase is VRFRequestIDBase {\r\n  /**\r\n   * @notice fulfillRandomness handles the VRF response. Your contract must\r\n   * @notice implement it. See \"SECURITY CONSIDERATIONS\" above for important\r\n   * @notice principles to keep in mind when implementing your fulfillRandomness\r\n   * @notice method.\r\n   *\r\n   * @dev VRFConsumerBase expects its subcontracts to have a method with this\r\n   * @dev signature, and will call it once it has verified the proof\r\n   * @dev associated with the randomness. (It is triggered via a call to\r\n   * @dev rawFulfillRandomness, below.)\r\n   *\r\n   * @param requestId The Id initially returned by requestRandomness\r\n   * @param randomness the VRF output\r\n   */\r\n  function fulfillRandomness(bytes32 requestId, uint256 randomness) internal virtual;\r\n\r\n  /**\r\n   * @dev In order to keep backwards compatibility we have kept the user\r\n   * seed field around. We remove the use of it because given that the blockhash\r\n   * enters later, it overrides whatever randomness the used seed provides.\r\n   * Given that it adds no security, and can easily lead to misunderstandings,\r\n   * we have removed it from usage and can now provide a simpler API.\r\n   */\r\n  uint256 private constant USER_SEED_PLACEHOLDER = 0;\r\n\r\n  /**\r\n   * @notice requestRandomness initiates a request for VRF output given _seed\r\n   *\r\n   * @dev The fulfillRandomness method receives the output, once it's provided\r\n   * @dev by the Oracle, and verified by the vrfCoordinator.\r\n   *\r\n   * @dev The _keyHash must already be registered with the VRFCoordinator, and\r\n   * @dev the _fee must exceed the fee specified during registration of the\r\n   * @dev _keyHash.\r\n   *\r\n   * @dev The _seed parameter is vestigial, and is kept only for API\r\n   * @dev compatibility with older versions. It can't *hurt* to mix in some of\r\n   * @dev your own randomness, here, but it's not necessary because the VRF\r\n   * @dev oracle will mix the hash of the block containing your request into the\r\n   * @dev VRF seed it ultimately uses.\r\n   *\r\n   * @param _keyHash ID of public key against which randomness is generated\r\n   * @param _fee The amount of LINK to send with the request\r\n   *\r\n   * @return requestId unique ID for this request\r\n   *\r\n   * @dev The returned requestId can be used to distinguish responses to\r\n   * @dev concurrent requests. It is passed as the first argument to\r\n   * @dev fulfillRandomness.\r\n   */\r\n  function requestRandomness(bytes32 _keyHash, uint256 _fee) internal returns (bytes32 requestId) {\r\n    LINK.transferAndCall(vrfCoordinator, _fee, abi.encode(_keyHash, USER_SEED_PLACEHOLDER));\r\n    // This is the seed passed to VRFCoordinator. The oracle will mix this with\r\n    // the hash of the block containing this request to obtain the seed/input\r\n    // which is finally passed to the VRF cryptographic machinery.\r\n    uint256 vRFSeed = makeVRFInputSeed(_keyHash, USER_SEED_PLACEHOLDER, address(this), nonces[_keyHash]);\r\n    // nonces[_keyHash] must stay in sync with\r\n    // VRFCoordinator.nonces[_keyHash][this], which was incremented by the above\r\n    // successful LINK.transferAndCall (in VRFCoordinator.randomnessRequest).\r\n    // This provides protection against the user repeating their input seed,\r\n    // which would result in a predictable/duplicate output, if multiple such\r\n    // requests appeared in the same block.\r\n    nonces[_keyHash] = nonces[_keyHash] + 1;\r\n    return makeRequestId(_keyHash, vRFSeed);\r\n  }\r\n\r\n  LinkTokenInterface internal immutable LINK;\r\n  address private immutable vrfCoordinator;\r\n\r\n  // Nonces for each VRF key from which randomness has been requested.\r\n  //\r\n  // Must stay in sync with VRFCoordinator[_keyHash][this]\r\n  mapping(bytes32 => uint256) /* keyHash */ /* nonce */\r\n    private nonces;\r\n\r\n  /**\r\n   * @param _vrfCoordinator address of VRFCoordinator contract\r\n   * @param _link address of LINK token contract\r\n   *\r\n   * @dev https://docs.chain.link/docs/link-token-contracts\r\n   */\r\n  constructor(address _vrfCoordinator, address _link) {\r\n    vrfCoordinator = _vrfCoordinator;\r\n    LINK = LinkTokenInterface(_link);\r\n  }\r\n\r\n  // rawFulfillRandomness is called by VRFCoordinator when it receives a valid VRF\r\n  // proof. rawFulfillRandomness then calls fulfillRandomness, after validating\r\n  // the origin of the call\r\n  function rawFulfillRandomness(bytes32 requestId, uint256 randomness) external {\r\n    require(msg.sender == vrfCoordinator, \"Only VRFCoordinator can fulfill\");\r\n    fulfillRandomness(requestId, randomness);\r\n  }\r\n}\r\n\r\n// File: Lottery/SafeMath.sol\r\npragma solidity ^0.8.0;\r\n\r\n// CAUTION\r\n// This version of SafeMath should only be used with Solidity 0.8 or later,\r\n// because it relies on the compiler's built in overflow checks.\r\n\r\n/**\r\n * @dev Wrappers over Solidity's arithmetic operations.\r\n *\r\n * NOTE: `SafeMath` is no longer needed starting with Solidity 0.8. The compiler\r\n * now has built in overflow checking.\r\n */\r\nlibrary SafeMath {\r\n    /**\r\n     * @dev Returns the addition of two unsigned integers, with an overflow flag.\r\n     *\r\n     * _Available since v3.4._\r\n     */\r\n    function tryAdd(uint256 a, uint256 b) internal pure returns (bool, uint256) {\r\n        unchecked {\r\n            uint256 c = a + b;\r\n            if (c < a) return (false, 0);\r\n            return (true, c);\r\n        }\r\n    }\r\n\r\n    /**\r\n     * @dev Returns the substraction of two unsigned integers, with an overflow flag.\r\n     *\r\n     * _Available since v3.4._\r\n     */\r\n    function trySub(uint256 a, uint256 b) internal pure returns (bool, uint256) {\r\n        unchecked {\r\n            if (b > a) return (false, 0);\r\n            return (true, a - b);\r\n        }\r\n    }\r\n\r\n    /**\r\n     * @dev Returns the multiplication of two unsigned integers, with an overflow flag.\r\n     *\r\n     * _Available since v3.4._\r\n     */\r\n    function tryMul(uint256 a, uint256 b) internal pure returns (bool, uint256) {\r\n        unchecked {\r\n            // Gas optimization: this is cheaper than requiring 'a' not being zero, but the\r\n            // benefit is lost if 'b' is also tested.\r\n            // See: https://github.com/OpenZeppelin/openzeppelin-contracts/pull/522\r\n            if (a == 0) return (true, 0);\r\n            uint256 c = a * b;\r\n            if (c / a != b) return (false, 0);\r\n            return (true, c);\r\n        }\r\n    }\r\n\r\n    /**\r\n     * @dev Returns the division of two unsigned integers, with a division by zero flag.\r\n     *\r\n     * _Available since v3.4._\r\n     */\r\n    function tryDiv(uint256 a, uint256 b) internal pure returns (bool, uint256) {\r\n        unchecked {\r\n            if (b == 0) return (false, 0);\r\n            return (true, a / b);\r\n        }\r\n    }\r\n\r\n    /**\r\n     * @dev Returns the remainder of dividing two unsigned integers, with a division by zero flag.\r\n     *\r\n     * _Available since v3.4._\r\n     */\r\n    function tryMod(uint256 a, uint256 b) internal pure returns (bool, uint256) {\r\n        unchecked {\r\n            if (b == 0) return (false, 0);\r\n            return (true, a % b);\r\n        }\r\n    }\r\n\r\n    /**\r\n     * @dev Returns the addition of two unsigned integers, reverting on\r\n     * overflow.\r\n     *\r\n     * Counterpart to Solidity's `+` operator.\r\n     *\r\n     * Requirements:\r\n     *\r\n     * - Addition cannot overflow.\r\n     */\r\n    function add(uint256 a, uint256 b) internal pure returns (uint256) {\r\n        return a + b;\r\n    }\r\n\r\n    /**\r\n     * @dev Returns the subtraction of two unsigned integers, reverting on\r\n     * overflow (when the result is negative).\r\n     *\r\n     * Counterpart to Solidity's `-` operator.\r\n     *\r\n     * Requirements:\r\n     *\r\n     * - Subtraction cannot overflow.\r\n     */\r\n    function sub(uint256 a, uint256 b) internal pure returns (uint256) {\r\n        return a - b;\r\n    }\r\n\r\n    /**\r\n     * @dev Returns the multiplication of two unsigned integers, reverting on\r\n     * overflow.\r\n     *\r\n     * Counterpart to Solidity's `*` operator.\r\n     *\r\n     * Requirements:\r\n     *\r\n     * - Multiplication cannot overflow.\r\n     */\r\n    function mul(uint256 a, uint256 b) internal pure returns (uint256) {\r\n        return a * b;\r\n    }\r\n\r\n    /**\r\n     * @dev Returns the integer division of two unsigned integers, reverting on\r\n     * division by zero. The result is rounded towards zero.\r\n     *\r\n     * Counterpart to Solidity's `/` operator.\r\n     *\r\n     * Requirements:\r\n     *\r\n     * - The divisor cannot be zero.\r\n     */\r\n    function div(uint256 a, uint256 b) internal pure returns (uint256) {\r\n        return a / b;\r\n    }\r\n\r\n    /**\r\n     * @dev Returns the remainder of dividing two unsigned integers. (unsigned integer modulo),\r\n     * reverting when dividing by zero.\r\n     *\r\n     * Counterpart to Solidity's `%` operator. This function uses a `revert`\r\n     * opcode (which leaves remaining gas untouched) while Solidity uses an\r\n     * invalid opcode to revert (consuming all remaining gas).\r\n     *\r\n     * Requirements:\r\n     *\r\n     * - The divisor cannot be zero.\r\n     */\r\n    function mod(uint256 a, uint256 b) internal pure returns (uint256) {\r\n        return a % b;\r\n    }\r\n\r\n    /**\r\n     * @dev Returns the subtraction of two unsigned integers, reverting with custom message on\r\n     * overflow (when the result is negative).\r\n     *\r\n     * CAUTION: This function is deprecated because it requires allocating memory for the error\r\n     * message unnecessarily. For custom revert reasons use {trySub}.\r\n     *\r\n     * Counterpart to Solidity's `-` operator.\r\n     *\r\n     * Requirements:\r\n     *\r\n     * - Subtraction cannot overflow.\r\n     */\r\n    function sub(\r\n        uint256 a,\r\n        uint256 b,\r\n        string memory errorMessage\r\n    ) internal pure returns (uint256) {\r\n        unchecked {\r\n            require(b <= a, errorMessage);\r\n            return a - b;\r\n        }\r\n    }\r\n\r\n    /**\r\n     * @dev Returns the integer division of two unsigned integers, reverting with custom message on\r\n     * division by zero. The result is rounded towards zero.\r\n     *\r\n     * Counterpart to Solidity's `/` operator. Note: this function uses a\r\n     * `revert` opcode (which leaves remaining gas untouched) while Solidity\r\n     * uses an invalid opcode to revert (consuming all remaining gas).\r\n     *\r\n     * Requirements:\r\n     *\r\n     * - The divisor cannot be zero.\r\n     */\r\n    function div(\r\n        uint256 a,\r\n        uint256 b,\r\n        string memory errorMessage\r\n    ) internal pure returns (uint256) {\r\n        unchecked {\r\n            require(b > 0, errorMessage);\r\n            return a / b;\r\n        }\r\n    }\r\n\r\n    /**\r\n     * @dev Returns the remainder of dividing two unsigned integers. (unsigned integer modulo),\r\n     * reverting with custom message when dividing by zero.\r\n     *\r\n     * CAUTION: This function is deprecated because it requires allocating memory for the error\r\n     * message unnecessarily. For custom revert reasons use {tryMod}.\r\n     *\r\n     * Counterpart to Solidity's `%` operator. This function uses a `revert`\r\n     * opcode (which leaves remaining gas untouched) while Solidity uses an\r\n     * invalid opcode to revert (consuming all remaining gas).\r\n     *\r\n     * Requirements:\r\n     *\r\n     * - The divisor cannot be zero.\r\n     */\r\n    function mod(\r\n        uint256 a,\r\n        uint256 b,\r\n        string memory errorMessage\r\n    ) internal pure returns (uint256) {\r\n        unchecked {\r\n            require(b > 0, errorMessage);\r\n            return a % b;\r\n        }\r\n    }\r\n}\r\n\r\n// File: Lottery/EnumerableSet.sol\r\n\r\n\r\n// OpenZeppelin Contracts v4.4.0 (utils/structs/EnumerableSet.sol)\r\n\r\npragma solidity ^0.8.0;\r\n\r\n/**\r\n * @dev Library for managing\r\n * https://en.wikipedia.org/wiki/Set_(abstract_data_type)[sets] of primitive\r\n * types.\r\n *\r\n * Sets have the following properties:\r\n *\r\n * - Elements are added, removed, and checked for existence in constant time\r\n * (O(1)).\r\n * - Elements are enumerated in O(n). No guarantees are made on the ordering.\r\n *\r\n * ```\r\n * contract Example {\r\n *     // Add the library methods\r\n *     using EnumerableSet for EnumerableSet.AddressSet;\r\n *\r\n *     // Declare a set state variable\r\n *     EnumerableSet.AddressSet private mySet;\r\n * }\r\n * ```\r\n *\r\n * As of v3.3.0, sets of type `bytes32` (`Bytes32Set`), `address` (`AddressSet`)\r\n * and `uint256` (`UintSet`) are supported.\r\n */\r\nlibrary EnumerableSet {\r\n    // To implement this library for multiple types with as little code\r\n    // repetition as possible, we write it in terms of a generic Set type with\r\n    // bytes32 values.\r\n    // The Set implementation uses private functions, and user-facing\r\n    // implementations (such as AddressSet) are just wrappers around the\r\n    // underlying Set.\r\n    // This means that we can only create new EnumerableSets for types that fit\r\n    // in bytes32.\r\n\r\n    struct Set {\r\n        // Storage of set values\r\n        bytes32[] _values;\r\n        // Position of the value in the `values` array, plus 1 because index 0\r\n        // means a value is not in the set.\r\n        mapping(bytes32 => uint256) _indexes;\r\n    }\r\n\r\n    /**\r\n     * @dev Add a value to a set. O(1).\r\n     *\r\n     * Returns true if the value was added to the set, that is if it was not\r\n     * already present.\r\n     */\r\n    function _add(Set storage set, bytes32 value) private returns (bool) {\r\n        if (!_contains(set, value)) {\r\n            set._values.push(value);\r\n            // The value is stored at length-1, but we add 1 to all indexes\r\n            // and use 0 as a sentinel value\r\n            set._indexes[value] = set._values.length;\r\n            return true;\r\n        } else {\r\n            return false;\r\n        }\r\n    }\r\n\r\n    /**\r\n     * @dev Removes a value from a set. O(1).\r\n     *\r\n     * Returns true if the value was removed from the set, that is if it was\r\n     * present.\r\n     */\r\n    function _remove(Set storage set, bytes32 value) private returns (bool) {\r\n        // We read and store the value's index to prevent multiple reads from the same storage slot\r\n        uint256 valueIndex = set._indexes[value];\r\n\r\n        if (valueIndex != 0) {\r\n            // Equivalent to contains(set, value)\r\n            // To delete an element from the _values array in O(1), we swap the element to delete with the last one in\r\n            // the array, and then remove the last element (sometimes called as 'swap and pop').\r\n            // This modifies the order of the array, as noted in {at}.\r\n\r\n            uint256 toDeleteIndex = valueIndex - 1;\r\n            uint256 lastIndex = set._values.length - 1;\r\n\r\n            if (lastIndex != toDeleteIndex) {\r\n                bytes32 lastvalue = set._values[lastIndex];\r\n\r\n                // Move the last value to the index where the value to delete is\r\n                set._values[toDeleteIndex] = lastvalue;\r\n                // Update the index for the moved value\r\n                set._indexes[lastvalue] = valueIndex; // Replace lastvalue's index to valueIndex\r\n            }\r\n\r\n            // Delete the slot where the moved value was stored\r\n            set._values.pop();\r\n\r\n            // Delete the index for the deleted slot\r\n            delete set._indexes[value];\r\n\r\n            return true;\r\n        } else {\r\n            return false;\r\n        }\r\n    }\r\n\r\n    /**\r\n     * @dev Returns true if the value is in the set. O(1).\r\n     */\r\n    function _contains(Set storage set, bytes32 value) private view returns (bool) {\r\n        return set._indexes[value] != 0;\r\n    }\r\n\r\n    /**\r\n     * @dev Returns the number of values on the set. O(1).\r\n     */\r\n    function _length(Set storage set) private view returns (uint256) {\r\n        return set._values.length;\r\n    }\r\n\r\n    /**\r\n     * @dev Returns the value stored at position `index` in the set. O(1).\r\n     *\r\n     * Note that there are no guarantees on the ordering of values inside the\r\n     * array, and it may change when more values are added or removed.\r\n     *\r\n     * Requirements:\r\n     *\r\n     * - `index` must be strictly less than {length}.\r\n     */\r\n    function _at(Set storage set, uint256 index) private view returns (bytes32) {\r\n        return set._values[index];\r\n    }\r\n\r\n    /**\r\n     * @dev Return the entire set in an array\r\n     *\r\n     * WARNING: This operation will copy the entire storage to memory, which can be quite expensive. This is designed\r\n     * to mostly be used by view accessors that are queried without any gas fees. Developers should keep in mind that\r\n     * this function has an unbounded cost, and using it as part of a state-changing function may render the function\r\n     * uncallable if the set grows to a point where copying to memory consumes too much gas to fit in a block.\r\n     */\r\n    function _values(Set storage set) private view returns (bytes32[] memory) {\r\n        return set._values;\r\n    }\r\n\r\n\r\n    // AddressSet\r\n\r\n    struct AddressSet {\r\n        Set _inner;\r\n    }\r\n\r\n    /**\r\n     * @dev Add a value to a set. O(1).\r\n     *\r\n     * Returns true if the value was added to the set, that is if it was not\r\n     * already present.\r\n     */\r\n    function add(AddressSet storage set, address value) internal returns (bool) {\r\n        return _add(set._inner, bytes32(uint256(uint160(value))));\r\n    }\r\n\r\n    /**\r\n     * @dev Removes a value from a set. O(1).\r\n     *\r\n     * Returns true if the value was removed from the set, that is if it was\r\n     * present.\r\n     */\r\n    function remove(AddressSet storage set, address value) internal returns (bool) {\r\n        return _remove(set._inner, bytes32(uint256(uint160(value))));\r\n    }\r\n\r\n    /**\r\n     * @dev Returns true if the value is in the set. O(1).\r\n     */\r\n    function contains(AddressSet storage set, address value) internal view returns (bool) {\r\n        return _contains(set._inner, bytes32(uint256(uint160(value))));\r\n    }\r\n\r\n    /**\r\n     * @dev Returns the number of values in the set. O(1).\r\n     */\r\n    function length(AddressSet storage set) internal view returns (uint256) {\r\n        return _length(set._inner);\r\n    }\r\n\r\n    /**\r\n     * @dev Returns the value stored at position `index` in the set. O(1).\r\n     *\r\n     * Note that there are no guarantees on the ordering of values inside the\r\n     * array, and it may change when more values are added or removed.\r\n     *\r\n     * Requirements:\r\n     *\r\n     * - `index` must be strictly less than {length}.\r\n     */\r\n    function at(AddressSet storage set, uint256 index) internal view returns (address) {\r\n        return address(uint160(uint256(_at(set._inner, index))));\r\n    }\r\n\r\n    /**\r\n     * @dev Return the entire set in an array\r\n     *\r\n     * WARNING: This operation will copy the entire storage to memory, which can be quite expensive. This is designed\r\n     * to mostly be used by view accessors that are queried without any gas fees. Developers should keep in mind that\r\n     * this function has an unbounded cost, and using it as part of a state-changing function may render the function\r\n     * uncallable if the set grows to a point where copying to memory consumes too much gas to fit in a block.\r\n     */\r\n    function values(AddressSet storage set) internal view returns (address[] memory) {\r\n        bytes32[] memory store = _values(set._inner);\r\n        address[] memory result;\r\n\r\n        assembly {\r\n            result := store\r\n        }\r\n\r\n        return result;\r\n    }\r\n\r\n    // UintSet\r\n\r\n    struct UintSet {\r\n        Set _inner;\r\n    }\r\n\r\n    /**\r\n     * @dev Add a value to a set. O(1).\r\n     *\r\n     * Returns true if the value was added to the set, that is if it was not\r\n     * already present.\r\n     */\r\n    function add(UintSet storage set, uint256 value) internal returns (bool) {\r\n        return _add(set._inner, bytes32(value));\r\n    }\r\n\r\n    /**\r\n     * @dev Removes a value from a set. O(1).\r\n     *\r\n     * Returns true if the value was removed from the set, that is if it was\r\n     * present.\r\n     */\r\n    function remove(UintSet storage set, uint256 value) internal returns (bool) {\r\n        return _remove(set._inner, bytes32(value));\r\n    }\r\n\r\n    /**\r\n     * @dev Returns true if the value is in the set. O(1).\r\n     */\r\n    function contains(UintSet storage set, uint256 value) internal view returns (bool) {\r\n        return _contains(set._inner, bytes32(value));\r\n    }\r\n\r\n    /**\r\n     * @dev Returns the number of values on the set. O(1).\r\n     */\r\n    function length(UintSet storage set) internal view returns (uint256) {\r\n        return _length(set._inner);\r\n    }\r\n\r\n    /**\r\n     * @dev Returns the value stored at position `index` in the set. O(1).\r\n     *\r\n     * Note that there are no guarantees on the ordering of values inside the\r\n     * array, and it may change when more values are added or removed.\r\n     *\r\n     * Requirements:\r\n     *\r\n     * - `index` must be strictly less than {length}.\r\n     */\r\n    function at(UintSet storage set, uint256 index) internal view returns (uint256) {\r\n        return uint256(_at(set._inner, index));\r\n    }\r\n\r\n    /**\r\n     * @dev Return the entire set in an array\r\n     *\r\n     * WARNING: This operation will copy the entire storage to memory, which can be quite expensive. This is designed\r\n     * to mostly be used by view accessors that are queried without any gas fees. Developers should keep in mind that\r\n     * this function has an unbounded cost, and using it as part of a state-changing function may render the function\r\n     * uncallable if the set grows to a point where copying to memory consumes too much gas to fit in a block.\r\n     */\r\n    function values(UintSet storage set) internal view returns (uint256[] memory) {\r\n        bytes32[] memory store = _values(set._inner);\r\n        uint256[] memory result;\r\n\r\n        assembly {\r\n            result := store\r\n        }\r\n\r\n        return result;\r\n    }\r\n}\r\n\r\n// File: Lottery/Context.sol\r\n\r\npragma solidity ^0.8.0;\r\n/**\r\n * @dev Provides information about the current execution context, including the\r\n * sender of the transaction and its data. While these are generally available\r\n * via msg.sender and msg.data, they should not be accessed in such a direct\r\n * manner, since when dealing with meta-transactions the account sending and\r\n * paying for execution may not be the actual sender (as far as an application\r\n * is concerned).\r\n *\r\n * This contract is only required for intermediate, library-like contracts.\r\n */\r\nabstract contract Context {\r\n    function _msgSender() internal view virtual returns (address) {\r\n        return msg.sender;\r\n    }\r\n\r\n    function _msgData() internal view virtual returns (bytes calldata) {\r\n        return msg.data;\r\n    }\r\n}\r\n\r\n// File: Lottery/Ownable.sol\r\n\r\n\r\npragma solidity ^0.8.0;\r\n/**\r\n * @dev Contract module which provides a basic access control mechanism, where\r\n * there is an account (an owner) that can be granted exclusive access to\r\n * specific functions.\r\n *\r\n * By default, the owner account will be the one that deploys the contract. This\r\n * can later be changed with {transferOwnership}.\r\n *\r\n * This module is used through inheritance. It will make available the modifier\r\n * `onlyOwner`, which can be applied to your functions to restrict their use to\r\n * the owner.\r\n */\r\nabstract contract Ownable is Context {\r\n    address private _owner;\r\n\r\n    event OwnershipTransferred(address indexed previousOwner, address indexed newOwner);\r\n\r\n    /**\r\n     * @dev Initializes the contract setting the deployer as the initial owner.\r\n     */\r\n    constructor() {\r\n        _setOwner(_msgSender());\r\n    }\r\n\r\n    /**\r\n     * @dev Returns the address of the current owner.\r\n     */\r\n    function owner() public view virtual returns (address) {\r\n        return _owner;\r\n    }\r\n\r\n    /**\r\n     * @dev Throws if called by any account other than the owner.\r\n     */\r\n    modifier onlyOwner() {\r\n        require(owner() == _msgSender(), \"Ownable: caller is not the owner\");\r\n        _;\r\n    }\r\n\r\n    /**\r\n     * @dev Leaves the contract without owner. It will not be possible to call\r\n     * `onlyOwner` functions anymore. Can only be called by the current owner.\r\n     *\r\n     * NOTE: Renouncing ownership will leave the contract without an owner,\r\n     * thereby removing any functionality that is only available to the owner.\r\n     */\r\n    function renounceOwnership() public virtual onlyOwner {\r\n        _setOwner(address(0));\r\n    }\r\n\r\n    /**\r\n     * @dev Transfers ownership of the contract to a new account (`newOwner`).\r\n     * Can only be called by the current owner.\r\n     */\r\n    function transferOwnership(address newOwner) public virtual onlyOwner {\r\n        require(newOwner != address(0), \"Ownable: new owner is the zero address\");\r\n        _setOwner(newOwner);\r\n    }\r\n\r\n    function _setOwner(address newOwner) private {\r\n        address oldOwner = _owner;\r\n        _owner = newOwner;\r\n        emit OwnershipTransferred(oldOwner, newOwner);\r\n    }\r\n}\r\n\r\n// File: Lottery/IERC20.sol\r\n\r\n\r\npragma solidity ^0.8.0;\r\n\r\ninterface IERC20 {\r\n    event Approval(address indexed owner, address indexed spender, uint value);\r\n    event Transfer(address indexed from, address indexed to, uint value);\r\n\r\n    function name() external view returns (string memory);\r\n    function symbol() external view returns (string memory);\r\n    function decimals() external view returns (uint8);\r\n    function totalSupply() external view returns (uint);\r\n    function balanceOf(address owner) external view returns (uint);\r\n    function allowance(address owner, address spender) external view returns (uint);\r\n\r\n    function approve(address spender, uint value) external returns (bool);\r\n    function transfer(address to, uint value) external returns (bool);\r\n    function transferFrom(address from, address to, uint value) external returns (bool);\r\n}\r\n\r\n// File: Lottery/Lottery.sol\r\n\r\n\r\npragma solidity ^0.8.0;\r\n\r\n\r\ncontract Lottery is Ownable, VRFConsumerBase {\r\n\r\n    bytes32 internal keyHash;\r\n    uint256 internal fee;\r\n    uint256 public randomResult;\r\n    \r\n    constructor() VRFConsumerBase(\r\n            0xa555fC018435bef5A13C6c6870a9d4C11DEC329C, // VRF Coordinator\r\n            0x84b9B910527Ad5C03A9Ca831909E21e236EA7b06   // LINK Token\r\n        )\r\n    {\r\n        keyHash = 0xcaf3c3727e033261d383b315559476f48034c13b18f8cafed4d871abe5049186;\r\n        fee = 0.1 * 10 ** 18; // 0.1 LINK \r\n    }\r\n\r\n    using EnumerableSet for EnumerableSet.AddressSet;\r\n    using EnumerableSet for EnumerableSet.UintSet;\r\n\r\n    using SafeMath for uint;\r\n\r\n    EnumerableSet.AddressSet private activeUsers;\r\n    EnumerableSet.UintSet private activeLotteries;\r\n\r\n    uint public lotteriesCount;    \r\n    uint public minTokenRequire = 10_000;\r\n    uint public maxTicketLimit = 10;\r\n    address public OURAddress;\r\n\r\n    mapping(address => uint) userActiveLotteryID;\r\n    // mapping(address => uint[]) userLotteriesIDList;\r\n    mapping(bytes32 => address) lotteryRandomenessID;\r\n\r\n    mapping(uint => LotteryInfo) public lotteryInfo;\r\n    mapping(uint => mapping(address =>  UserContributions)) public userContributions;\r\n\r\n\r\n    enum Status {STARTED, PROCESSING, ENDED}\r\n    \r\n    struct UserContributions {\r\n        uint tickets;\r\n        uint contribution;\r\n    }\r\n\r\n    struct LotteryInfo {\r\n        uint id;\r\n        Status status;\r\n        address owner;\r\n        uint priceOfTicket;\r\n        uint endingtime;\r\n        address[] partipants;\r\n        uint countOfParticipants;\r\n        uint countOfTickets;\r\n        uint accumulatedFunds;\r\n        address winner;\r\n        uint winnerIndex;\r\n        uint prize;\r\n        uint ownerCommision;\r\n    }\r\n\r\n    // Modifiers\r\n    modifier HoldRequiredTokens() {\r\n        require(IERC20(OURAddress).balanceOf(_msgSender()) >= minTokenRequire, \"Not enough TOKENS, Please buy more\");\r\n        _;\r\n    }\r\n\r\n    modifier userNotExists() {\r\n        require( !(EnumerableSet.contains(activeUsers, _msgSender())), \"User already running a lottery\" );\r\n        _;\r\n    }\r\n\r\n    modifier isLotteryActive(uint _id) {\r\n        require( block.timestamp < lotteryInfo[_id].endingtime , \"Lottery has been expired. Try next time\" );\r\n        _;\r\n    }\r\n\r\n    // Internal functions to be used by other functions.\r\n    function addActiveUser() internal returns (bool) {\r\n        return EnumerableSet.add(activeUsers, _msgSender());\r\n    }\r\n\r\n    function removeActiveUser(address _user) internal returns (bool) {\r\n        return EnumerableSet.remove(activeUsers, _user);\r\n    }\r\n\r\n    function listOfActiveUsers() public view returns (address[] memory) {\r\n        return EnumerableSet.values(activeUsers);\r\n    }\r\n\r\n    function addActiveLottery(uint _id) internal returns (bool) {\r\n        return EnumerableSet.add(activeLotteries, _id);\r\n    }\r\n\r\n    function removeActiveLottery(uint _id) internal returns (bool) {\r\n        return EnumerableSet.remove(activeLotteries, _id);\r\n    }\r\n\r\n    // Public functions to interact with lottery\r\n    function startALottery(uint _priceOfTicket, uint _endingtime) public userNotExists HoldRequiredTokens {\r\n        \r\n        require(\r\n            // _endingtime >= block.timestamp + 6 hours &&\r\n            _endingtime <= block.timestamp + 20 days,          \r\n            \"Ending time should be more than 6 hours and less then 20 days\"\r\n            );\r\n\r\n        lotteriesCount++;\r\n        addActiveUser();\r\n        addActiveLottery(lotteriesCount);\r\n        userActiveLotteryID[_msgSender()] = lotteriesCount;\r\n        // userLotteriesIDList[_msgSender()].push(lotteriesCount);\r\n    \r\n        lotteryInfo[lotteriesCount].id = lotteriesCount;\r\n        lotteryInfo[lotteriesCount].status = Status.STARTED;\r\n        lotteryInfo[lotteriesCount].owner= _msgSender();\r\n        lotteryInfo[lotteriesCount].priceOfTicket= _priceOfTicket;\r\n        lotteryInfo[lotteriesCount].endingtime= _endingtime;\r\n\r\n    }\r\n\r\n    function buyATicket(uint _id, uint tickets) public isLotteryActive(_id){\r\n        require(tickets > 0 && tickets <= maxTicketLimit, \"Cannt by more than Max limit in one trasaction\");\r\n        \r\n        require(\r\n            IERC20(OURAddress).transferFrom(_msgSender(), address(this), tickets*lotteryInfo[_id].priceOfTicket), \r\n            \"Insufficient Balance\"\r\n            );\r\n\r\n        lotteryInfo[_id].accumulatedFunds += tickets*lotteryInfo[_id].priceOfTicket;\r\n        userContributions[_id][_msgSender()].contribution += tickets*lotteryInfo[_id].priceOfTicket;\r\n\r\n\r\n        if(userContributions[_id][_msgSender()].tickets == 0 ){\r\n            lotteryInfo[_id].countOfParticipants++;\r\n        }\r\n\r\n        for(uint i = 1; i <= tickets; i++ ){\r\n            lotteryInfo[_id].partipants.push(_msgSender()) ;\r\n            userContributions[_id][_msgSender()].tickets++ ;\r\n            lotteryInfo[_id].countOfTickets++ ;\r\n        }\r\n\r\n    }\r\n\r\n    function endALottery() public {\r\n        uint _id = userActiveLotteryID[_msgSender()];\r\n        \r\n        require( _id != 0 , \"No lottery to end\");\r\n        require(block.timestamp > lotteryInfo[_id].endingtime, \"lottery still in progress\");\r\n        \r\n        if(lotteryInfo[_id].accumulatedFunds > 0){            \r\n            require(LINK.balanceOf(address(this)) >= fee, \"Not enough LINK - fill contract with faucet\");\r\n            bytes32 requestId = requestRandomness(keyHash, fee);\r\n            lotteryInfo[_id].status = Status.PROCESSING;\r\n            lotteryRandomenessID[requestId] = _msgSender();\r\n        }\r\n        else {\r\n            lotteryInfo[_id].status = Status.ENDED;\r\n            removeActiveUser(_msgSender());\r\n            removeActiveLottery(userActiveLotteryID[_msgSender()]);\r\n            delete userActiveLotteryID[_msgSender()];     \r\n        }\r\n\r\n    }\r\n\r\n\r\n    function fulfillRandomness(bytes32 requestId, uint256 randomness) internal override {\r\n\r\n        randomResult = randomness;\r\n\r\n        address activeUserAddress = lotteryRandomenessID[requestId];\r\n\r\n        uint _id = userActiveLotteryID[activeUserAddress];\r\n        uint winnerIndex = randomness.mod(lotteryInfo[_id].partipants.length);\r\n        lotteryInfo[_id].winnerIndex = winnerIndex;\r\n\r\n        address winnerAddr = lotteryInfo[_id].partipants[winnerIndex];\r\n        lotteryInfo[_id].winner = winnerAddr;\r\n\r\n\r\n        uint prize = lotteryInfo[_id].accumulatedFunds.mul(92).div(100);\r\n        uint ownerCommision = lotteryInfo[_id].accumulatedFunds.mul(4).div(100);\r\n\r\n        bool withdrawPrize = IERC20(OURAddress).transfer(winnerAddr, prize);\r\n        require(withdrawPrize, \"withdrawPrize is unseccessfull\");\r\n\r\n        bool sendOnerCommision = IERC20(OURAddress).transfer(activeUserAddress, ownerCommision);\r\n        require(sendOnerCommision, \"sendOnerCommision is unseccessfull\");\r\n\r\n        lotteryInfo[_id].prize = prize;\r\n        lotteryInfo[_id].ownerCommision = ownerCommision;\r\n        lotteryInfo[_id].status = Status.ENDED;\r\n\r\n        removeActiveUser(activeUserAddress);\r\n        removeActiveLottery(_id);\r\n        delete userActiveLotteryID[activeUserAddress];   \r\n\r\n    }\r\n\r\n    function myActiveLotteryID() public view returns (uint){\r\n        return userActiveLotteryID[_msgSender()];\r\n    }\r\n\r\n    // function getLotteryInfo(uint _id) public view returns (LotteryInfo memory) {\r\n    //     return lotteryInfo[_id];\r\n    // }\r\n\r\n    // function myLotteriesIDList() public view returns (uint[] memory){\r\n    //     return userLotteriesIDList[_msgSender()];\r\n    // }\r\n\r\n    function listOfActiveLotteriesID() public view returns (uint256[] memory) {\r\n        return EnumerableSet.values(activeLotteries);\r\n    }\r\n\r\n    function activeLotteriesCount() public view returns (uint256) {\r\n        return EnumerableSet.length(activeLotteries);\r\n    }\r\n\r\n    // Functions for owner privilege\r\n    function updateCriteriaToken(address _address) public onlyOwner {\r\n        OURAddress = _address;\r\n    }\r\n\r\n    function updateMaxTicketLimit(uint _maxTicketLimit) public onlyOwner {\r\n        maxTicketLimit = _maxTicketLimit;\r\n    }\r\n    \r\n    function updateMinTokenRequire(uint _minToken) public onlyOwner {\r\n        minTokenRequire = _minToken;\r\n    }\r\n\r\n    function withdrawFunds() public onlyOwner {\r\n        uint balance = IERC20(OURAddress).balanceOf(address(this));\r\n        require(balance > 0, \"Nothing to withdraw\");\r\n\r\n        bool withdrawed = IERC20(OURAddress).transfer(_msgSender(), balance);\r\n        require(withdrawed, \"Withdrwa is unseccessfull\");\r\n\r\n    }\r\n\r\n    function withdrawLink() external onlyOwner {\r\n        uint balance = LINK.balanceOf(address(this));\r\n        require(balance > 0, \"Nothing to withdraw\");\r\n\r\n        bool withdrawed = LINK.transfer(_msgSender(), balance);\r\n        require(withdrawed, \"Withdrwa is unseccessfull\");\r\n    } \r\n\r\n    function linkBalance() external view returns(uint) {\r\n        uint balance = LINK.balanceOf(address(this));\r\n        return balance;\r\n\r\n    }\r\n\r\n}\r\n\r\n",
  "sourcePath": "D:\\Fiverr\\Lottery\\Contract\\contracts\\Lottery.sol",
  "compiler": {
    "name": "solc",
    "version": "0.8.7+commit.e28d00a7.Emscripten.clang"
  },
  "schemaVersion": "3.4.3",
  "updatedAt": "2022-01-13T13:09:44.626Z",
  "devdoc": {
    "kind": "dev",
    "methods": {
      "owner()": {
        "details": "Returns the address of the current owner."
      },
      "renounceOwnership()": {
        "details": "Leaves the contract without owner. It will not be possible to call `onlyOwner` functions anymore. Can only be called by the current owner. NOTE: Renouncing ownership will leave the contract without an owner, thereby removing any functionality that is only available to the owner."
      },
      "transferOwnership(address)": {
        "details": "Transfers ownership of the contract to a new account (`newOwner`). Can only be called by the current owner."
      }
    },
    "version": 1
  },
  "userdoc": {
    "kind": "user",
    "methods": {},
    "version": 1
  }
}