{
  "contractName": "Lottery",
  "abi": [
    {
      "inputs": [],
      "stateMutability": "nonpayable",
      "type": "constructor"
    },
    {
      "anonymous": false,
      "inputs": [
        {
          "indexed": true,
          "internalType": "address",
          "name": "previousOwner",
          "type": "address"
        },
        {
          "indexed": true,
          "internalType": "address",
          "name": "newOwner",
          "type": "address"
        }
      ],
      "name": "OwnershipTransferred",
      "type": "event"
    },
    {
      "inputs": [],
      "name": "OURAddress",
      "outputs": [
        {
          "internalType": "address",
          "name": "",
          "type": "address"
        }
      ],
      "stateMutability": "view",
      "type": "function"
    },
    {
      "inputs": [],
      "name": "lotteriesCount",
      "outputs": [
        {
          "internalType": "uint256",
          "name": "",
          "type": "uint256"
        }
      ],
      "stateMutability": "view",
      "type": "function"
    },
    {
      "inputs": [],
      "name": "maxTicketLimit",
      "outputs": [
        {
          "internalType": "uint256",
          "name": "",
          "type": "uint256"
        }
      ],
      "stateMutability": "view",
      "type": "function"
    },
    {
      "inputs": [],
      "name": "minTokenRequire",
      "outputs": [
        {
          "internalType": "uint256",
          "name": "",
          "type": "uint256"
        }
      ],
      "stateMutability": "view",
      "type": "function"
    },
    {
      "inputs": [],
      "name": "owner",
      "outputs": [
        {
          "internalType": "address",
          "name": "",
          "type": "address"
        }
      ],
      "stateMutability": "view",
      "type": "function"
    },
    {
      "inputs": [],
      "name": "randomResult",
      "outputs": [
        {
          "internalType": "uint256",
          "name": "",
          "type": "uint256"
        }
      ],
      "stateMutability": "view",
      "type": "function"
    },
    {
      "inputs": [
        {
          "internalType": "bytes32",
          "name": "requestId",
          "type": "bytes32"
        },
        {
          "internalType": "uint256",
          "name": "randomness",
          "type": "uint256"
        }
      ],
      "name": "rawFulfillRandomness",
      "outputs": [],
      "stateMutability": "nonpayable",
      "type": "function"
    },
    {
      "inputs": [],
      "name": "renounceOwnership",
      "outputs": [],
      "stateMutability": "nonpayable",
      "type": "function"
    },
    {
      "inputs": [
        {
          "internalType": "address",
          "name": "newOwner",
          "type": "address"
        }
      ],
      "name": "transferOwnership",
      "outputs": [],
      "stateMutability": "nonpayable",
      "type": "function"
    },
    {
      "inputs": [
        {
          "internalType": "uint256",
          "name": "",
          "type": "uint256"
        },
        {
          "internalType": "address",
          "name": "",
          "type": "address"
        }
      ],
      "name": "userContributions",
      "outputs": [
        {
          "internalType": "uint256",
          "name": "tickets",
          "type": "uint256"
        },
        {
          "internalType": "uint256",
          "name": "contribution",
          "type": "uint256"
        }
      ],
      "stateMutability": "view",
      "type": "function"
    },
    {
      "inputs": [],
      "name": "listOfActiveUsers",
      "outputs": [
        {
          "internalType": "address[]",
          "name": "",
          "type": "address[]"
        }
      ],
      "stateMutability": "view",
      "type": "function"
    },
    {
      "inputs": [
        {
          "internalType": "uint256",
          "name": "_priceOfTicket",
          "type": "uint256"
        },
        {
          "internalType": "uint256",
          "name": "_endingtime",
          "type": "uint256"
        }
      ],
      "name": "startALottery",
      "outputs": [],
      "stateMutability": "nonpayable",
      "type": "function"
    },
    {
      "inputs": [
        {
          "internalType": "uint256",
          "name": "_id",
          "type": "uint256"
        },
        {
          "internalType": "uint256",
          "name": "tickets",
          "type": "uint256"
        }
      ],
      "name": "buyATicket",
      "outputs": [],
      "stateMutability": "nonpayable",
      "type": "function"
    },
    {
      "inputs": [],
      "name": "endALottery",
      "outputs": [],
      "stateMutability": "nonpayable",
      "type": "function"
    },
    {
      "inputs": [],
      "name": "myActiveLotteryID",
      "outputs": [
        {
          "internalType": "uint256",
          "name": "",
          "type": "uint256"
        }
      ],
      "stateMutability": "view",
      "type": "function"
    },
    {
      "inputs": [
        {
          "internalType": "uint256",
          "name": "_id",
          "type": "uint256"
        }
      ],
      "name": "getLotteryInfo",
      "outputs": [
        {
          "components": [
            {
              "internalType": "uint256",
              "name": "id",
              "type": "uint256"
            },
            {
              "internalType": "enum Lottery.Status",
              "name": "staus",
              "type": "uint8"
            },
            {
              "internalType": "address",
              "name": "owner",
              "type": "address"
            },
            {
              "internalType": "uint256",
              "name": "priceOfTicket",
              "type": "uint256"
            },
            {
              "internalType": "uint256",
              "name": "endingtime",
              "type": "uint256"
            },
            {
              "internalType": "address[]",
              "name": "partipants",
              "type": "address[]"
            },
            {
              "internalType": "uint256",
              "name": "countOfParticipants",
              "type": "uint256"
            },
            {
              "internalType": "uint256",
              "name": "countOfTickets",
              "type": "uint256"
            },
            {
              "internalType": "uint256",
              "name": "accumulatedFunds",
              "type": "uint256"
            },
            {
              "internalType": "address",
              "name": "winner",
              "type": "address"
            },
            {
              "internalType": "uint256",
              "name": "winnerIndex",
              "type": "uint256"
            },
            {
              "internalType": "uint256",
              "name": "prize",
              "type": "uint256"
            },
            {
              "internalType": "uint256",
              "name": "ownerCommision",
              "type": "uint256"
            }
          ],
          "internalType": "struct Lottery.LotteryInfo",
          "name": "",
          "type": "tuple"
        }
      ],
      "stateMutability": "view",
      "type": "function"
    },
    {
      "inputs": [],
      "name": "listOfActiveLotteriesID",
      "outputs": [
        {
          "internalType": "uint256[]",
          "name": "",
          "type": "uint256[]"
        }
      ],
      "stateMutability": "view",
      "type": "function"
    },
    {
      "inputs": [],
      "name": "activeLotteriesCount",
      "outputs": [
        {
          "internalType": "uint256",
          "name": "",
          "type": "uint256"
        }
      ],
      "stateMutability": "view",
      "type": "function"
    },
    {
      "inputs": [
        {
          "internalType": "address",
          "name": "_address",
          "type": "address"
        }
      ],
      "name": "updateCriteriaToken",
      "outputs": [],
      "stateMutability": "nonpayable",
      "type": "function"
    },
    {
      "inputs": [
        {
          "internalType": "uint256",
          "name": "_maxTicketLimit",
          "type": "uint256"
        }
      ],
      "name": "updateMaxTicketLimit",
      "outputs": [],
      "stateMutability": "nonpayable",
      "type": "function"
    },
    {
      "inputs": [
        {
          "internalType": "uint256",
          "name": "_minToken",
          "type": "uint256"
        }
      ],
      "name": "updateMinTokenRequire",
      "outputs": [],
      "stateMutability": "nonpayable",
      "type": "function"
    },
    {
      "inputs": [],
      "name": "withdrawFunds",
      "outputs": [],
      "stateMutability": "nonpayable",
      "type": "function"
    },
    {
      "inputs": [],
      "name": "withdrawLink",
      "outputs": [],
      "stateMutability": "nonpayable",
      "type": "function"
    },
    {
      "inputs": [],
      "name": "linkBalance",
      "outputs": [
        {
          "internalType": "uint256",
          "name": "",
          "type": "uint256"
        }
      ],
      "stateMutability": "view",
      "type": "function"
    }
  ],
  "bytecode": "0x60c0604052612710600a55600a600b553480156200001c57600080fd5b5073a555fc018435bef5a13c6c6870a9d4c11dec329c7384b9b910527ad5c03a9ca831909e21e236ea7b06620000676200005b6200011660201b60201c565b6200011e60201b60201c565b8173ffffffffffffffffffffffffffffffffffffffff1660a08173ffffffffffffffffffffffffffffffffffffffff1660601b815250508073ffffffffffffffffffffffffffffffffffffffff1660808173ffffffffffffffffffffffffffffffffffffffff1660601b8152505050507fcaf3c3727e033261d383b315559476f48034c13b18f8cafed4d871abe504918660001b60028190555067016345785d8a0000600381905550620001e2565b600033905090565b60008060009054906101000a900473ffffffffffffffffffffffffffffffffffffffff169050816000806101000a81548173ffffffffffffffffffffffffffffffffffffffff021916908373ffffffffffffffffffffffffffffffffffffffff1602179055508173ffffffffffffffffffffffffffffffffffffffff168173ffffffffffffffffffffffffffffffffffffffff167f8be0079c531659141344cd1fd0a4f28419497f9722a3daafe3b4186f6b6457e060405160405180910390a35050565b60805160601c60a05160601c613ad962000231600039600081816114680152611ba10152600081816104ff0152818161127e0152818161136e0152818161150d0152611b650152613ad96000f3fe608060405234801561001057600080fd5b50600436106101585760003560e01c806376b3c8a8116100c357806394985ddd1161007c57806394985ddd1461033357806398c095531461034f578063c26ecefa1461036d578063d949b5ec1461038b578063ed54890d146103a7578063f2fde38b146103d857610158565b806376b3c8a8146102835780637cb15bca146102b35780637f3814fb146102d157806387ec8608146102ed5780638da5cb5b1461030b5780638dc654a21461032957610158565b806341032a3a1161011557806341032a3a146101e557806342619f66146102035780634f3aebee1461022157806350d9533e1461023f57806366b69f3f1461025d578063715018a61461027957610158565b806310b2ad3a1461015d57806310ce305114610167578063181677271461018357806324600fc3146101a15780632f4314b6146101ab5780633597c033146101c9575b600080fd5b6101656103f4565b005b610181600480360381019061017c9190612870565b610737565b005b61018b6107bd565b6040516101989190612f83565b60405180910390f35b6101a96107ce565b005b6101b3610a3a565b6040516101c09190612fa5565b60405180910390f35b6101e360048036038101906101de9190612870565b610a4b565b005b6101ed610ad1565b6040516101fa9190612eca565b60405180910390f35b61020b610af7565b6040516102189190613257565b60405180910390f35b610229610afd565b6040516102369190613257565b60405180910390f35b610247610b03565b6040516102549190613257565b60405180910390f35b610277600480360381019061027291906127d6565b610b09565b005b610281610bc9565b005b61029d60048036038101906102989190612870565b610c51565b6040516102aa9190613235565b60405180910390f35b6102bb610e4e565b6040516102c89190613257565b60405180910390f35b6102eb60048036038101906102e6919061290a565b610e5f565b005b6102f5611187565b6040516103029190613257565b60405180910390f35b6103136111d5565b6040516103209190612eca565b60405180910390f35b6103316111fe565b005b61034d60048036038101906103489190612830565b611466565b005b610357611502565b6040516103649190613257565b60405180910390f35b610375611508565b6040516103829190613257565b60405180910390f35b6103a560048036038101906103a0919061290a565b6115bd565b005b6103c160048036038101906103bc91906128ca565b611a30565b6040516103cf929190613272565b60405180910390f35b6103f260048036038101906103ed91906127d6565b611a61565b005b6000600d6000610402611b59565b73ffffffffffffffffffffffffffffffffffffffff1673ffffffffffffffffffffffffffffffffffffffff1681526020019081526020016000205490506000811415610483576040517f08c379a000000000000000000000000000000000000000000000000000000000815260040161047a90613115565b60405180910390fd5b600f60008281526020019081526020016000206003015442116104db576040517f08c379a00000000000000000000000000000000000000000000000000000000081526004016104d2906130b5565b60405180910390fd5b6000600f6000838152602001908152602001600020600701541115610651576003547f000000000000000000000000000000000000000000000000000000000000000073ffffffffffffffffffffffffffffffffffffffff166370a08231306040518263ffffffff1660e01b81526004016105569190612eca565b60206040518083038186803b15801561056e57600080fd5b505afa158015610582573d6000803e3d6000fd5b505050506040513d601f19601f820116820180604052508101906105a6919061289d565b10156105e7576040517f08c379a00000000000000000000000000000000000000000000000000000000081526004016105de90613095565b60405180910390fd5b60006105f7600254600354611b61565b905033600e600083815260200190815260200160002060006101000a81548173ffffffffffffffffffffffffffffffffffffffff021916908373ffffffffffffffffffffffffffffffffffffffff16021790555050610734565b6001600f600083815260200190815260200160002060010160006101000a81548160ff0219169083600181111561068b5761068a6135f6565b5b0217905550610698611cc2565b506106e8600d60006106a8611b59565b73ffffffffffffffffffffffffffffffffffffffff1673ffffffffffffffffffffffffffffffffffffffff16815260200190815260200160002054611cdb565b50600d60006106f5611b59565b73ffffffffffffffffffffffffffffffffffffffff1673ffffffffffffffffffffffffffffffffffffffff168152602001908152602001600020600090555b50565b61073f611b59565b73ffffffffffffffffffffffffffffffffffffffff1661075d6111d5565b73ffffffffffffffffffffffffffffffffffffffff16146107b3576040517f08c379a00000000000000000000000000000000000000000000000000000000081526004016107aa90613135565b60405180910390fd5b80600a8190555050565b60606107c96005611cef565b905090565b6107d6611b59565b73ffffffffffffffffffffffffffffffffffffffff166107f46111d5565b73ffffffffffffffffffffffffffffffffffffffff161461084a576040517f08c379a000000000000000000000000000000000000000000000000000000000815260040161084190613135565b60405180910390fd5b6000600c60009054906101000a900473ffffffffffffffffffffffffffffffffffffffff1673ffffffffffffffffffffffffffffffffffffffff166370a08231306040518263ffffffff1660e01b81526004016108a79190612eca565b60206040518083038186803b1580156108bf57600080fd5b505afa1580156108d3573d6000803e3d6000fd5b505050506040513d601f19601f820116820180604052508101906108f7919061289d565b90506000811161093c576040517f08c379a000000000000000000000000000000000000000000000000000000000815260040161093390613055565b60405180910390fd5b6000600c60009054906101000a900473ffffffffffffffffffffffffffffffffffffffff1673ffffffffffffffffffffffffffffffffffffffff1663a9059cbb610984611b59565b846040518363ffffffff1660e01b81526004016109a2929190612f1c565b602060405180830381600087803b1580156109bc57600080fd5b505af11580156109d0573d6000803e3d6000fd5b505050506040513d601f19601f820116820180604052508101906109f49190612803565b905080610a36576040517f08c379a0000000000000000000000000000000000000000000000000000000008152600401610a2d906131b5565b60405180910390fd5b5050565b6060610a466007611d10565b905090565b610a53611b59565b73ffffffffffffffffffffffffffffffffffffffff16610a716111d5565b73ffffffffffffffffffffffffffffffffffffffff1614610ac7576040517f08c379a0000000000000000000000000000000000000000000000000000000008152600401610abe90613135565b60405180910390fd5b80600b8190555050565b600c60009054906101000a900473ffffffffffffffffffffffffffffffffffffffff1681565b60045481565b600a5481565b60095481565b610b11611b59565b73ffffffffffffffffffffffffffffffffffffffff16610b2f6111d5565b73ffffffffffffffffffffffffffffffffffffffff1614610b85576040517f08c379a0000000000000000000000000000000000000000000000000000000008152600401610b7c90613135565b60405180910390fd5b80600c60006101000a81548173ffffffffffffffffffffffffffffffffffffffff021916908373ffffffffffffffffffffffffffffffffffffffff16021790555050565b610bd1611b59565b73ffffffffffffffffffffffffffffffffffffffff16610bef6111d5565b73ffffffffffffffffffffffffffffffffffffffff1614610c45576040517f08c379a0000000000000000000000000000000000000000000000000000000008152600401610c3c90613135565b60405180910390fd5b610c4f6000611d31565b565b610c596126c7565b600f6000838152602001908152602001600020604051806101a0016040529081600082015481526020016001820160009054906101000a900460ff166001811115610ca757610ca66135f6565b5b6001811115610cb957610cb86135f6565b5b81526020016001820160019054906101000a900473ffffffffffffffffffffffffffffffffffffffff1673ffffffffffffffffffffffffffffffffffffffff1673ffffffffffffffffffffffffffffffffffffffff168152602001600282015481526020016003820154815260200160048201805480602002602001604051908101604052809291908181526020018280548015610dac57602002820191906000526020600020905b8160009054906101000a900473ffffffffffffffffffffffffffffffffffffffff1673ffffffffffffffffffffffffffffffffffffffff1681526020019060010190808311610d62575b505050505081526020016005820154815260200160068201548152602001600782015481526020016008820160009054906101000a900473ffffffffffffffffffffffffffffffffffffffff1673ffffffffffffffffffffffffffffffffffffffff1673ffffffffffffffffffffffffffffffffffffffff16815260200160098201548152602001600a8201548152602001600b820154815250509050919050565b6000610e5a6007611df5565b905090565b610e716005610e6c611b59565b611e0a565b15610eb1576040517f08c379a0000000000000000000000000000000000000000000000000000000008152600401610ea890613175565b60405180910390fd5b600a54600c60009054906101000a900473ffffffffffffffffffffffffffffffffffffffff1673ffffffffffffffffffffffffffffffffffffffff166370a08231610efa611b59565b6040518263ffffffff1660e01b8152600401610f169190612eca565b60206040518083038186803b158015610f2e57600080fd5b505afa158015610f42573d6000803e3d6000fd5b505050506040513d601f19601f82011682018060405250810190610f66919061289d565b1015610fa7576040517f08c379a0000000000000000000000000000000000000000000000000000000008152600401610f9e90613215565b60405180910390fd5b61546042610fb5919061334b565b8110158015610fd25750629e340042610fce919061334b565b8111155b611011576040517f08c379a000000000000000000000000000000000000000000000000000000000815260040161100890613155565b60405180910390fd5b600960008154809291906110249061350a565b9190505550611031611e3a565b5061103d600954611e53565b50600954600d600061104d611b59565b73ffffffffffffffffffffffffffffffffffffffff1673ffffffffffffffffffffffffffffffffffffffff16815260200190815260200160002081905550600954600f60006009548152602001908152602001600020600001819055506000600f6000600954815260200190815260200160002060010160006101000a81548160ff021916908360018111156110e6576110e56135f6565b5b02179055506110f3611b59565b600f6000600954815260200190815260200160002060010160016101000a81548173ffffffffffffffffffffffffffffffffffffffff021916908373ffffffffffffffffffffffffffffffffffffffff16021790555081600f600060095481526020019081526020016000206002018190555080600f60006009548152602001908152602001600020600301819055505050565b6000600d6000611195611b59565b73ffffffffffffffffffffffffffffffffffffffff1673ffffffffffffffffffffffffffffffffffffffff16815260200190815260200160002054905090565b60008060009054906101000a900473ffffffffffffffffffffffffffffffffffffffff16905090565b611206611b59565b73ffffffffffffffffffffffffffffffffffffffff166112246111d5565b73ffffffffffffffffffffffffffffffffffffffff161461127a576040517f08c379a000000000000000000000000000000000000000000000000000000000815260040161127190613135565b60405180910390fd5b60007f000000000000000000000000000000000000000000000000000000000000000073ffffffffffffffffffffffffffffffffffffffff166370a08231306040518263ffffffff1660e01b81526004016112d59190612eca565b60206040518083038186803b1580156112ed57600080fd5b505afa158015611301573d6000803e3d6000fd5b505050506040513d601f19601f82011682018060405250810190611325919061289d565b90506000811161136a576040517f08c379a000000000000000000000000000000000000000000000000000000000815260040161136190613055565b60405180910390fd5b60007f000000000000000000000000000000000000000000000000000000000000000073ffffffffffffffffffffffffffffffffffffffff1663a9059cbb6113b0611b59565b846040518363ffffffff1660e01b81526004016113ce929190612f1c565b602060405180830381600087803b1580156113e857600080fd5b505af11580156113fc573d6000803e3d6000fd5b505050506040513d601f19601f820116820180604052508101906114209190612803565b905080611462576040517f08c379a0000000000000000000000000000000000000000000000000000000008152600401611459906131b5565b60405180910390fd5b5050565b7f000000000000000000000000000000000000000000000000000000000000000073ffffffffffffffffffffffffffffffffffffffff163373ffffffffffffffffffffffffffffffffffffffff16146114f4576040517f08c379a00000000000000000000000000000000000000000000000000000000081526004016114eb90613195565b60405180910390fd5b6114fe8282611e67565b5050565b600b5481565b6000807f000000000000000000000000000000000000000000000000000000000000000073ffffffffffffffffffffffffffffffffffffffff166370a08231306040518263ffffffff1660e01b81526004016115649190612eca565b60206040518083038186803b15801561157c57600080fd5b505afa158015611590573d6000803e3d6000fd5b505050506040513d601f19601f820116820180604052508101906115b4919061289d565b90508091505090565b81600f6000828152602001908152602001600020600301544210611616576040517f08c379a000000000000000000000000000000000000000000000000000000000815260040161160d906130f5565b60405180910390fd5b6000821180156116285750600b548211155b611667576040517f08c379a000000000000000000000000000000000000000000000000000000000815260040161165e90613035565b60405180910390fd5b600c60009054906101000a900473ffffffffffffffffffffffffffffffffffffffff1673ffffffffffffffffffffffffffffffffffffffff166323b872dd6116ad611b59565b30600f600088815260200190815260200160002060020154866116d091906133d2565b6040518463ffffffff1660e01b81526004016116ee93929190612ee5565b602060405180830381600087803b15801561170857600080fd5b505af115801561171c573d6000803e3d6000fd5b505050506040513d601f19601f820116820180604052508101906117409190612803565b61177f576040517f08c379a0000000000000000000000000000000000000000000000000000000008152600401611776906131d5565b60405180910390fd5b600f600084815260200190815260200160002060020154826117a191906133d2565b600f600085815260200190815260200160002060070160008282546117c6919061334b565b92505081905550600f600084815260200190815260200160002060020154826117ef91906133d2565b60106000858152602001908152602001600020600061180c611b59565b73ffffffffffffffffffffffffffffffffffffffff1673ffffffffffffffffffffffffffffffffffffffff1681526020019081526020016000206001016000828254611858919061334b565b92505081905550600060106000858152602001908152602001600020600061187e611b59565b73ffffffffffffffffffffffffffffffffffffffff1673ffffffffffffffffffffffffffffffffffffffff1681526020019081526020016000206000015414156118ef57600f600084815260200190815260200160002060050160008154809291906118e99061350a565b91905055505b6000600190505b828111611a2a57600f600085815260200190815260200160002060040161191b611b59565b9080600181540180825580915050600190039060005260206000200160009091909190916101000a81548173ffffffffffffffffffffffffffffffffffffffff021916908373ffffffffffffffffffffffffffffffffffffffff160217905550601060008581526020019081526020016000206000611998611b59565b73ffffffffffffffffffffffffffffffffffffffff1673ffffffffffffffffffffffffffffffffffffffff16815260200190815260200160002060000160008154809291906119e69061350a565b9190505550600f60008581526020019081526020016000206006016000815480929190611a129061350a565b91905055508080611a229061350a565b9150506118f6565b50505050565b6010602052816000526040600020602052806000526040600020600091509150508060000154908060010154905082565b611a69611b59565b73ffffffffffffffffffffffffffffffffffffffff16611a876111d5565b73ffffffffffffffffffffffffffffffffffffffff1614611add576040517f08c379a0000000000000000000000000000000000000000000000000000000008152600401611ad490613135565b60405180910390fd5b600073ffffffffffffffffffffffffffffffffffffffff168173ffffffffffffffffffffffffffffffffffffffff161415611b4d576040517f08c379a0000000000000000000000000000000000000000000000000000000008152600401611b4490613075565b60405180910390fd5b611b5681611d31565b50565b600033905090565b60007f000000000000000000000000000000000000000000000000000000000000000073ffffffffffffffffffffffffffffffffffffffff16634000aea07f000000000000000000000000000000000000000000000000000000000000000084866000604051602001611bd5929190612fc7565b6040516020818303038152906040526040518463ffffffff1660e01b8152600401611c0293929190612f45565b602060405180830381600087803b158015611c1c57600080fd5b505af1158015611c30573d6000803e3d6000fd5b505050506040513d601f19601f82011682018060405250810190611c549190612803565b506000611c7784600030600160008981526020019081526020016000205461236e565b9050600180600086815260200190815260200160002054611c98919061334b565b6001600086815260200190815260200160002081905550611cb984826123aa565b91505092915050565b6000611cd66005611cd1611b59565b6123dd565b905090565b6000611ce860078361240d565b9050919050565b60606000611cff83600001612427565b905060608190508092505050919050565b60606000611d2083600001612427565b905060608190508092505050919050565b60008060009054906101000a900473ffffffffffffffffffffffffffffffffffffffff169050816000806101000a81548173ffffffffffffffffffffffffffffffffffffffff021916908373ffffffffffffffffffffffffffffffffffffffff1602179055508173ffffffffffffffffffffffffffffffffffffffff168173ffffffffffffffffffffffffffffffffffffffff167f8be0079c531659141344cd1fd0a4f28419497f9722a3daafe3b4186f6b6457e060405160405180910390a35050565b6000611e0382600001612483565b9050919050565b6000611e32836000018373ffffffffffffffffffffffffffffffffffffffff1660001b612494565b905092915050565b6000611e4e6005611e49611b59565b6124b7565b905090565b6000611e606007836124e7565b9050919050565b806004819055506000600d6000600e600086815260200190815260200160002060009054906101000a900473ffffffffffffffffffffffffffffffffffffffff1673ffffffffffffffffffffffffffffffffffffffff1673ffffffffffffffffffffffffffffffffffffffff1681526020019081526020016000205490506000611f13600f6000848152602001908152602001600020600401805490508461250190919063ffffffff16565b905080600f6000848152602001908152602001600020600901819055506000600f60008481526020019081526020016000206004018281548110611f5a57611f59613654565b5b9060005260206000200160009054906101000a900473ffffffffffffffffffffffffffffffffffffffff16905080600f600085815260200190815260200160002060080160006101000a81548173ffffffffffffffffffffffffffffffffffffffff021916908373ffffffffffffffffffffffffffffffffffffffff160217905550600061201b606461200d605c600f60008981526020019081526020016000206007015461251790919063ffffffff16565b61252d90919063ffffffff16565b9050600061205c606461204e6004600f60008a81526020019081526020016000206007015461251790919063ffffffff16565b61252d90919063ffffffff16565b90506000600c60009054906101000a900473ffffffffffffffffffffffffffffffffffffffff1673ffffffffffffffffffffffffffffffffffffffff1663a9059cbb85856040518363ffffffff1660e01b81526004016120bd929190612f1c565b602060405180830381600087803b1580156120d757600080fd5b505af11580156120eb573d6000803e3d6000fd5b505050506040513d601f19601f8201168201806040525081019061210f9190612803565b905080612151576040517f08c379a0000000000000000000000000000000000000000000000000000000008152600401612148906130d5565b60405180910390fd5b6000600c60009054906101000a900473ffffffffffffffffffffffffffffffffffffffff1673ffffffffffffffffffffffffffffffffffffffff1663a9059cbb612199611b59565b856040518363ffffffff1660e01b81526004016121b7929190612f1c565b602060405180830381600087803b1580156121d157600080fd5b505af11580156121e5573d6000803e3d6000fd5b505050506040513d601f19601f820116820180604052508101906122099190612803565b90508061224b576040517f08c379a0000000000000000000000000000000000000000000000000000000008152600401612242906131f5565b60405180910390fd5b83600f6000898152602001908152602001600020600a018190555082600f6000898152602001908152602001600020600b01819055506001600f600089815260200190815260200160002060010160006101000a81548160ff021916908360018111156122bb576122ba6135f6565b5b02179055506122c8611cc2565b50612318600d60006122d8611b59565b73ffffffffffffffffffffffffffffffffffffffff1673ffffffffffffffffffffffffffffffffffffffff16815260200190815260200160002054611cdb565b50600d6000612325611b59565b73ffffffffffffffffffffffffffffffffffffffff1673ffffffffffffffffffffffffffffffffffffffff16815260200190815260200160002060009055505050505050505050565b6000848484846040516020016123879493929190612ff0565b6040516020818303038152906040528051906020012060001c9050949350505050565b600082826040516020016123bf929190612e9e565b60405160208183030381529060405280519060200120905092915050565b6000612405836000018373ffffffffffffffffffffffffffffffffffffffff1660001b612543565b905092915050565b600061241f836000018360001b612543565b905092915050565b60608160000180548060200260200160405190810160405280929190818152602001828054801561247757602002820191906000526020600020905b815481526020019060010190808311612463575b50505050509050919050565b600081600001805490509050919050565b600080836001016000848152602001908152602001600020541415905092915050565b60006124df836000018373ffffffffffffffffffffffffffffffffffffffff1660001b612657565b905092915050565b60006124f9836000018360001b612657565b905092915050565b6000818361250f9190613567565b905092915050565b6000818361252591906133d2565b905092915050565b6000818361253b91906133a1565b905092915050565b6000808360010160008481526020019081526020016000205490506000811461264b576000600182612575919061342c565b905060006001866000018054905061258d919061342c565b90508181146125fc5760008660000182815481106125ae576125ad613654565b5b90600052602060002001549050808760000184815481106125d2576125d1613654565b5b90600052602060002001819055508387600101600083815260200190815260200160002081905550505b856000018054806126105761260f613625565b5b600190038181906000526020600020016000905590558560010160008681526020019081526020016000206000905560019350505050612651565b60009150505b92915050565b60006126638383612494565b6126bc5782600001829080600181540180825580915050600190039060005260206000200160009091909190915055826000018054905083600101600084815260200190815260200160002081905550600190506126c1565b600090505b92915050565b604051806101a0016040528060008152602001600060018111156126ee576126ed6135f6565b5b8152602001600073ffffffffffffffffffffffffffffffffffffffff168152602001600081526020016000815260200160608152602001600081526020016000815260200160008152602001600073ffffffffffffffffffffffffffffffffffffffff1681526020016000815260200160008152602001600081525090565b60008135905061277c81613a47565b92915050565b60008151905061279181613a5e565b92915050565b6000813590506127a681613a75565b92915050565b6000813590506127bb81613a8c565b92915050565b6000815190506127d081613a8c565b92915050565b6000602082840312156127ec576127eb613683565b5b60006127fa8482850161276d565b91505092915050565b60006020828403121561281957612818613683565b5b600061282784828501612782565b91505092915050565b6000806040838503121561284757612846613683565b5b600061285585828601612797565b9250506020612866858286016127ac565b9150509250929050565b60006020828403121561288657612885613683565b5b6000612894848285016127ac565b91505092915050565b6000602082840312156128b3576128b2613683565b5b60006128c1848285016127c1565b91505092915050565b600080604083850312156128e1576128e0613683565b5b60006128ef858286016127ac565b92505060206129008582860161276d565b9150509250929050565b6000806040838503121561292157612920613683565b5b600061292f858286016127ac565b9250506020612940858286016127ac565b9150509250929050565b6000612956838361297a565b60208301905092915050565b600061296e8383612e69565b60208301905092915050565b61298381613460565b82525050565b61299281613460565b82525050565b60006129a3826132bb565b6129ad81856132f6565b93506129b88361329b565b8060005b838110156129e95781516129d0888261294a565b97506129db836132dc565b9250506001810190506129bc565b5085935050505092915050565b6000612a01826132bb565b612a0b8185613307565b9350612a168361329b565b8060005b83811015612a47578151612a2e888261294a565b9750612a39836132dc565b925050600181019050612a1a565b5085935050505092915050565b6000612a5f826132c6565b612a698185613318565b9350612a74836132ab565b8060005b83811015612aa5578151612a8c8882612962565b9750612a97836132e9565b925050600181019050612a78565b5085935050505092915050565b612abb8161347e565b82525050565b612ad2612acd8261347e565b613553565b82525050565b6000612ae3826132d1565b612aed8185613329565b9350612afd8185602086016134d7565b612b0681613688565b840191505092915050565b612b1a816134c5565b82525050565b6000612b2d602e8361333a565b9150612b3882613699565b604082019050919050565b6000612b5060138361333a565b9150612b5b826136e8565b602082019050919050565b6000612b7360268361333a565b9150612b7e82613711565b604082019050919050565b6000612b96602b8361333a565b9150612ba182613760565b604082019050919050565b6000612bb960198361333a565b9150612bc4826137af565b602082019050919050565b6000612bdc601e8361333a565b9150612be7826137d8565b602082019050919050565b6000612bff60278361333a565b9150612c0a82613801565b604082019050919050565b6000612c2260118361333a565b9150612c2d82613850565b602082019050919050565b6000612c4560208361333a565b9150612c5082613879565b602082019050919050565b6000612c68603e8361333a565b9150612c73826138a2565b604082019050919050565b6000612c8b601e8361333a565b9150612c96826138f1565b602082019050919050565b6000612cae601f8361333a565b9150612cb98261391a565b602082019050919050565b6000612cd160198361333a565b9150612cdc82613943565b602082019050919050565b6000612cf460148361333a565b9150612cff8261396c565b602082019050919050565b6000612d1760228361333a565b9150612d2282613995565b604082019050919050565b6000612d3a60228361333a565b9150612d45826139e4565b604082019050919050565b60006101a083016000830151612d696000860182612e69565b506020830151612d7c6020860182612b11565b506040830151612d8f604086018261297a565b506060830151612da26060860182612e69565b506080830151612db56080860182612e69565b5060a083015184820360a0860152612dcd8282612998565b91505060c0830151612de260c0860182612e69565b5060e0830151612df560e0860182612e69565b50610100830151612e0a610100860182612e69565b50610120830151612e1f61012086018261297a565b50610140830151612e34610140860182612e69565b50610160830151612e49610160860182612e69565b50610180830151612e5e610180860182612e69565b508091505092915050565b612e72816134bb565b82525050565b612e81816134bb565b82525050565b612e98612e93826134bb565b61355d565b82525050565b6000612eaa8285612ac1565b602082019150612eba8284612e87565b6020820191508190509392505050565b6000602082019050612edf6000830184612989565b92915050565b6000606082019050612efa6000830186612989565b612f076020830185612989565b612f146040830184612e78565b949350505050565b6000604082019050612f316000830185612989565b612f3e6020830184612e78565b9392505050565b6000606082019050612f5a6000830186612989565b612f676020830185612e78565b8181036040830152612f798184612ad8565b9050949350505050565b60006020820190508181036000830152612f9d81846129f6565b905092915050565b60006020820190508181036000830152612fbf8184612a54565b905092915050565b6000604082019050612fdc6000830185612ab2565b612fe96020830184612e78565b9392505050565b60006080820190506130056000830187612ab2565b6130126020830186612e78565b61301f6040830185612989565b61302c6060830184612e78565b95945050505050565b6000602082019050818103600083015261304e81612b20565b9050919050565b6000602082019050818103600083015261306e81612b43565b9050919050565b6000602082019050818103600083015261308e81612b66565b9050919050565b600060208201905081810360008301526130ae81612b89565b9050919050565b600060208201905081810360008301526130ce81612bac565b9050919050565b600060208201905081810360008301526130ee81612bcf565b9050919050565b6000602082019050818103600083015261310e81612bf2565b9050919050565b6000602082019050818103600083015261312e81612c15565b9050919050565b6000602082019050818103600083015261314e81612c38565b9050919050565b6000602082019050818103600083015261316e81612c5b565b9050919050565b6000602082019050818103600083015261318e81612c7e565b9050919050565b600060208201905081810360008301526131ae81612ca1565b9050919050565b600060208201905081810360008301526131ce81612cc4565b9050919050565b600060208201905081810360008301526131ee81612ce7565b9050919050565b6000602082019050818103600083015261320e81612d0a565b9050919050565b6000602082019050818103600083015261322e81612d2d565b9050919050565b6000602082019050818103600083015261324f8184612d50565b905092915050565b600060208201905061326c6000830184612e78565b92915050565b60006040820190506132876000830185612e78565b6132946020830184612e78565b9392505050565b6000819050602082019050919050565b6000819050602082019050919050565b600081519050919050565b600081519050919050565b600081519050919050565b6000602082019050919050565b6000602082019050919050565b600082825260208201905092915050565b600082825260208201905092915050565b600082825260208201905092915050565b600082825260208201905092915050565b600082825260208201905092915050565b6000613356826134bb565b9150613361836134bb565b9250827fffffffffffffffffffffffffffffffffffffffffffffffffffffffffffffffff0382111561339657613395613598565b5b828201905092915050565b60006133ac826134bb565b91506133b7836134bb565b9250826133c7576133c66135c7565b5b828204905092915050565b60006133dd826134bb565b91506133e8836134bb565b9250817fffffffffffffffffffffffffffffffffffffffffffffffffffffffffffffffff048311821515161561342157613420613598565b5b828202905092915050565b6000613437826134bb565b9150613442836134bb565b92508282101561345557613454613598565b5b828203905092915050565b600061346b8261349b565b9050919050565b60008115159050919050565b6000819050919050565b600081905061349682613a33565b919050565b600073ffffffffffffffffffffffffffffffffffffffff82169050919050565b6000819050919050565b60006134d082613488565b9050919050565b60005b838110156134f55780820151818401526020810190506134da565b83811115613504576000848401525b50505050565b6000613515826134bb565b91507fffffffffffffffffffffffffffffffffffffffffffffffffffffffffffffffff82141561354857613547613598565b5b600182019050919050565b6000819050919050565b6000819050919050565b6000613572826134bb565b915061357d836134bb565b92508261358d5761358c6135c7565b5b828206905092915050565b7f4e487b7100000000000000000000000000000000000000000000000000000000600052601160045260246000fd5b7f4e487b7100000000000000000000000000000000000000000000000000000000600052601260045260246000fd5b7f4e487b7100000000000000000000000000000000000000000000000000000000600052602160045260246000fd5b7f4e487b7100000000000000000000000000000000000000000000000000000000600052603160045260246000fd5b7f4e487b7100000000000000000000000000000000000000000000000000000000600052603260045260246000fd5b600080fd5b6000601f19601f8301169050919050565b7f43616e6e74206279206d6f7265207468616e204d6178206c696d697420696e2060008201527f6f6e652074726173616374696f6e000000000000000000000000000000000000602082015250565b7f4e6f7468696e6720746f20776974686472617700000000000000000000000000600082015250565b7f4f776e61626c653a206e6577206f776e657220697320746865207a65726f206160008201527f6464726573730000000000000000000000000000000000000000000000000000602082015250565b7f4e6f7420656e6f756768204c494e4b202d2066696c6c20636f6e74726163742060008201527f7769746820666175636574000000000000000000000000000000000000000000602082015250565b7f6c6f7474657279207374696c6c20696e2070726f677265737300000000000000600082015250565b7f77697468647261775072697a6520697320756e7365636365737366756c6c0000600082015250565b7f4c6f747465727920686173206265656e20657870697265642e20547279206e6560008201527f78742074696d6500000000000000000000000000000000000000000000000000602082015250565b7f4e6f206c6f747465727920746f20656e64000000000000000000000000000000600082015250565b7f4f776e61626c653a2063616c6c6572206973206e6f7420746865206f776e6572600082015250565b7f456e64696e672074696d652073686f756c64206265206d6f7265207468616e2060008201527f3620686f75727320616e64206c657373207468656e2031323020646179730000602082015250565b7f5573657220616c72656164792072756e6e696e672061206c6f74746572790000600082015250565b7f4f6e6c7920565246436f6f7264696e61746f722063616e2066756c66696c6c00600082015250565b7f576974686472776120697320756e7365636365737366756c6c00000000000000600082015250565b7f496e73756666696369656e742042616c616e6365000000000000000000000000600082015250565b7f73656e644f6e6572436f6d6d6973696f6e20697320756e73656363657373667560008201527f6c6c000000000000000000000000000000000000000000000000000000000000602082015250565b7f4e6f7420656e6f75676820544f4b454e532c20506c6561736520627579206d6f60008201527f7265000000000000000000000000000000000000000000000000000000000000602082015250565b60028110613a4457613a436135f6565b5b50565b613a5081613460565b8114613a5b57600080fd5b50565b613a6781613472565b8114613a7257600080fd5b50565b613a7e8161347e565b8114613a8957600080fd5b50565b613a95816134bb565b8114613aa057600080fd5b5056fea2646970667358221220d27eb905df6fdf1d8ccba916b22e31fa2b6c4ee255bddd4e235c8ff5e6ca6e9b64736f6c63430008070033",
  "immutableReferences": {
    "214": [
      {
        "length": 32,
        "start": 1279
      },
      {
        "length": 32,
        "start": 4734
      },
      {
        "length": 32,
        "start": 4974
      },
      {
        "length": 32,
        "start": 5389
      },
      {
        "length": 32,
        "start": 7013
      }
    ],
    "216": [
      {
        "length": 32,
        "start": 5224
      },
      {
        "length": 32,
        "start": 7073
      }
    ]
  },
  "source": " // SPDX-License-Identifier: MIT\r\n// File: @chainlink/contracts/src/v0.8/VRFRequestIDBase.sol\r\n\r\n\r\npragma solidity ^0.8.0;\r\n\r\ncontract VRFRequestIDBase {\r\n  /**\r\n   * @notice returns the seed which is actually input to the VRF coordinator\r\n   *\r\n   * @dev To prevent repetition of VRF output due to repetition of the\r\n   * @dev user-supplied seed, that seed is combined in a hash with the\r\n   * @dev user-specific nonce, and the address of the consuming contract. The\r\n   * @dev risk of repetition is mostly mitigated by inclusion of a blockhash in\r\n   * @dev the final seed, but the nonce does protect against repetition in\r\n   * @dev requests which are included in a single block.\r\n   *\r\n   * @param _userSeed VRF seed input provided by user\r\n   * @param _requester Address of the requesting contract\r\n   * @param _nonce User-specific nonce at the time of the request\r\n   */\r\n  function makeVRFInputSeed(\r\n    bytes32 _keyHash,\r\n    uint256 _userSeed,\r\n    address _requester,\r\n    uint256 _nonce\r\n  ) internal pure returns (uint256) {\r\n    return uint256(keccak256(abi.encode(_keyHash, _userSeed, _requester, _nonce)));\r\n  }\r\n\r\n  /**\r\n   * @notice Returns the id for this request\r\n   * @param _keyHash The serviceAgreement ID to be used for this request\r\n   * @param _vRFInputSeed The seed to be passed directly to the VRF\r\n   * @return The id for this request\r\n   *\r\n   * @dev Note that _vRFInputSeed is not the seed passed by the consuming\r\n   * @dev contract, but the one generated by makeVRFInputSeed\r\n   */\r\n  function makeRequestId(bytes32 _keyHash, uint256 _vRFInputSeed) internal pure returns (bytes32) {\r\n    return keccak256(abi.encodePacked(_keyHash, _vRFInputSeed));\r\n  }\r\n}\r\n\r\n// File: @chainlink/contracts/src/v0.8/interfaces/LinkTokenInterface.sol\r\n\r\n\r\npragma solidity ^0.8.0;\r\n\r\ninterface LinkTokenInterface {\r\n  function allowance(address owner, address spender) external view returns (uint256 remaining);\r\n\r\n  function approve(address spender, uint256 value) external returns (bool success);\r\n\r\n  function balanceOf(address owner) external view returns (uint256 balance);\r\n\r\n  function decimals() external view returns (uint8 decimalPlaces);\r\n\r\n  function decreaseApproval(address spender, uint256 addedValue) external returns (bool success);\r\n\r\n  function increaseApproval(address spender, uint256 subtractedValue) external;\r\n\r\n  function name() external view returns (string memory tokenName);\r\n\r\n  function symbol() external view returns (string memory tokenSymbol);\r\n\r\n  function totalSupply() external view returns (uint256 totalTokensIssued);\r\n\r\n  function transfer(address to, uint256 value) external returns (bool success);\r\n\r\n  function transferAndCall(\r\n    address to,\r\n    uint256 value,\r\n    bytes calldata data\r\n  ) external returns (bool success);\r\n\r\n  function transferFrom(\r\n    address from,\r\n    address to,\r\n    uint256 value\r\n  ) external returns (bool success);\r\n}\r\n\r\n// File: @chainlink/contracts/src/v0.8/VRFConsumerBase.sol\r\n\r\n\r\npragma solidity ^0.8.0;\r\n/** ****************************************************************************\r\n * @notice Interface for contracts using VRF randomness\r\n * *****************************************************************************\r\n * @dev PURPOSE\r\n *\r\n * @dev Reggie the Random Oracle (not his real job) wants to provide randomness\r\n * @dev to Vera the verifier in such a way that Vera can be sure he's not\r\n * @dev making his output up to suit himself. Reggie provides Vera a public key\r\n * @dev to which he knows the secret key. Each time Vera provides a seed to\r\n * @dev Reggie, he gives back a value which is computed completely\r\n * @dev deterministically from the seed and the secret key.\r\n *\r\n * @dev Reggie provides a proof by which Vera can verify that the output was\r\n * @dev correctly computed once Reggie tells it to her, but without that proof,\r\n * @dev the output is indistinguishable to her from a uniform random sample\r\n * @dev from the output space.\r\n *\r\n * @dev The purpose of this contract is to make it easy for unrelated contracts\r\n * @dev to talk to Vera the verifier about the work Reggie is doing, to provide\r\n * @dev simple access to a verifiable source of randomness.\r\n * *****************************************************************************\r\n * @dev USAGE\r\n *\r\n * @dev Calling contracts must inherit from VRFConsumerBase, and can\r\n * @dev initialize VRFConsumerBase's attributes in their constructor as\r\n * @dev shown:\r\n *\r\n * @dev   contract VRFConsumer {\r\n * @dev     constuctor(<other arguments>, address _vrfCoordinator, address _link)\r\n * @dev       VRFConsumerBase(_vrfCoordinator, _link) public {\r\n * @dev         <initialization with other arguments goes here>\r\n * @dev       }\r\n * @dev   }\r\n *\r\n * @dev The oracle will have given you an ID for the VRF keypair they have\r\n * @dev committed to (let's call it keyHash), and have told you the minimum LINK\r\n * @dev price for VRF service. Make sure your contract has sufficient LINK, and\r\n * @dev call requestRandomness(keyHash, fee, seed), where seed is the input you\r\n * @dev want to generate randomness from.\r\n *\r\n * @dev Once the VRFCoordinator has received and validated the oracle's response\r\n * @dev to your request, it will call your contract's fulfillRandomness method.\r\n *\r\n * @dev The randomness argument to fulfillRandomness is the actual random value\r\n * @dev generated from your seed.\r\n *\r\n * @dev The requestId argument is generated from the keyHash and the seed by\r\n * @dev makeRequestId(keyHash, seed). If your contract could have concurrent\r\n * @dev requests open, you can use the requestId to track which seed is\r\n * @dev associated with which randomness. See VRFRequestIDBase.sol for more\r\n * @dev details. (See \"SECURITY CONSIDERATIONS\" for principles to keep in mind,\r\n * @dev if your contract could have multiple requests in flight simultaneously.)\r\n *\r\n * @dev Colliding `requestId`s are cryptographically impossible as long as seeds\r\n * @dev differ. (Which is critical to making unpredictable randomness! See the\r\n * @dev next section.)\r\n *\r\n * *****************************************************************************\r\n * @dev SECURITY CONSIDERATIONS\r\n *\r\n * @dev A method with the ability to call your fulfillRandomness method directly\r\n * @dev could spoof a VRF response with any random value, so it's critical that\r\n * @dev it cannot be directly called by anything other than this base contract\r\n * @dev (specifically, by the VRFConsumerBase.rawFulfillRandomness method).\r\n *\r\n * @dev For your users to trust that your contract's random behavior is free\r\n * @dev from malicious interference, it's best if you can write it so that all\r\n * @dev behaviors implied by a VRF response are executed *during* your\r\n * @dev fulfillRandomness method. If your contract must store the response (or\r\n * @dev anything derived from it) and use it later, you must ensure that any\r\n * @dev user-significant behavior which depends on that stored value cannot be\r\n * @dev manipulated by a subsequent VRF request.\r\n *\r\n * @dev Similarly, both miners and the VRF oracle itself have some influence\r\n * @dev over the order in which VRF responses appear on the blockchain, so if\r\n * @dev your contract could have multiple VRF requests in flight simultaneously,\r\n * @dev you must ensure that the order in which the VRF responses arrive cannot\r\n * @dev be used to manipulate your contract's user-significant behavior.\r\n *\r\n * @dev Since the ultimate input to the VRF is mixed with the block hash of the\r\n * @dev block in which the request is made, user-provided seeds have no impact\r\n * @dev on its economic security properties. They are only included for API\r\n * @dev compatability with previous versions of this contract.\r\n *\r\n * @dev Since the block hash of the block which contains the requestRandomness\r\n * @dev call is mixed into the input to the VRF *last*, a sufficiently powerful\r\n * @dev miner could, in principle, fork the blockchain to evict the block\r\n * @dev containing the request, forcing the request to be included in a\r\n * @dev different block with a different hash, and therefore a different input\r\n * @dev to the VRF. However, such an attack would incur a substantial economic\r\n * @dev cost. This cost scales with the number of blocks the VRF oracle waits\r\n * @dev until it calls responds to a request.\r\n */\r\nabstract contract VRFConsumerBase is VRFRequestIDBase {\r\n  /**\r\n   * @notice fulfillRandomness handles the VRF response. Your contract must\r\n   * @notice implement it. See \"SECURITY CONSIDERATIONS\" above for important\r\n   * @notice principles to keep in mind when implementing your fulfillRandomness\r\n   * @notice method.\r\n   *\r\n   * @dev VRFConsumerBase expects its subcontracts to have a method with this\r\n   * @dev signature, and will call it once it has verified the proof\r\n   * @dev associated with the randomness. (It is triggered via a call to\r\n   * @dev rawFulfillRandomness, below.)\r\n   *\r\n   * @param requestId The Id initially returned by requestRandomness\r\n   * @param randomness the VRF output\r\n   */\r\n  function fulfillRandomness(bytes32 requestId, uint256 randomness) internal virtual;\r\n\r\n  /**\r\n   * @dev In order to keep backwards compatibility we have kept the user\r\n   * seed field around. We remove the use of it because given that the blockhash\r\n   * enters later, it overrides whatever randomness the used seed provides.\r\n   * Given that it adds no security, and can easily lead to misunderstandings,\r\n   * we have removed it from usage and can now provide a simpler API.\r\n   */\r\n  uint256 private constant USER_SEED_PLACEHOLDER = 0;\r\n\r\n  /**\r\n   * @notice requestRandomness initiates a request for VRF output given _seed\r\n   *\r\n   * @dev The fulfillRandomness method receives the output, once it's provided\r\n   * @dev by the Oracle, and verified by the vrfCoordinator.\r\n   *\r\n   * @dev The _keyHash must already be registered with the VRFCoordinator, and\r\n   * @dev the _fee must exceed the fee specified during registration of the\r\n   * @dev _keyHash.\r\n   *\r\n   * @dev The _seed parameter is vestigial, and is kept only for API\r\n   * @dev compatibility with older versions. It can't *hurt* to mix in some of\r\n   * @dev your own randomness, here, but it's not necessary because the VRF\r\n   * @dev oracle will mix the hash of the block containing your request into the\r\n   * @dev VRF seed it ultimately uses.\r\n   *\r\n   * @param _keyHash ID of public key against which randomness is generated\r\n   * @param _fee The amount of LINK to send with the request\r\n   *\r\n   * @return requestId unique ID for this request\r\n   *\r\n   * @dev The returned requestId can be used to distinguish responses to\r\n   * @dev concurrent requests. It is passed as the first argument to\r\n   * @dev fulfillRandomness.\r\n   */\r\n  function requestRandomness(bytes32 _keyHash, uint256 _fee) internal returns (bytes32 requestId) {\r\n    LINK.transferAndCall(vrfCoordinator, _fee, abi.encode(_keyHash, USER_SEED_PLACEHOLDER));\r\n    // This is the seed passed to VRFCoordinator. The oracle will mix this with\r\n    // the hash of the block containing this request to obtain the seed/input\r\n    // which is finally passed to the VRF cryptographic machinery.\r\n    uint256 vRFSeed = makeVRFInputSeed(_keyHash, USER_SEED_PLACEHOLDER, address(this), nonces[_keyHash]);\r\n    // nonces[_keyHash] must stay in sync with\r\n    // VRFCoordinator.nonces[_keyHash][this], which was incremented by the above\r\n    // successful LINK.transferAndCall (in VRFCoordinator.randomnessRequest).\r\n    // This provides protection against the user repeating their input seed,\r\n    // which would result in a predictable/duplicate output, if multiple such\r\n    // requests appeared in the same block.\r\n    nonces[_keyHash] = nonces[_keyHash] + 1;\r\n    return makeRequestId(_keyHash, vRFSeed);\r\n  }\r\n\r\n  LinkTokenInterface internal immutable LINK;\r\n  address private immutable vrfCoordinator;\r\n\r\n  // Nonces for each VRF key from which randomness has been requested.\r\n  //\r\n  // Must stay in sync with VRFCoordinator[_keyHash][this]\r\n  mapping(bytes32 => uint256) /* keyHash */ /* nonce */\r\n    private nonces;\r\n\r\n  /**\r\n   * @param _vrfCoordinator address of VRFCoordinator contract\r\n   * @param _link address of LINK token contract\r\n   *\r\n   * @dev https://docs.chain.link/docs/link-token-contracts\r\n   */\r\n  constructor(address _vrfCoordinator, address _link) {\r\n    vrfCoordinator = _vrfCoordinator;\r\n    LINK = LinkTokenInterface(_link);\r\n  }\r\n\r\n  // rawFulfillRandomness is called by VRFCoordinator when it receives a valid VRF\r\n  // proof. rawFulfillRandomness then calls fulfillRandomness, after validating\r\n  // the origin of the call\r\n  function rawFulfillRandomness(bytes32 requestId, uint256 randomness) external {\r\n    require(msg.sender == vrfCoordinator, \"Only VRFCoordinator can fulfill\");\r\n    fulfillRandomness(requestId, randomness);\r\n  }\r\n}\r\n\r\n// File: Lottery/SafeMath.sol\r\npragma solidity ^0.8.0;\r\n\r\n// CAUTION\r\n// This version of SafeMath should only be used with Solidity 0.8 or later,\r\n// because it relies on the compiler's built in overflow checks.\r\n\r\n/**\r\n * @dev Wrappers over Solidity's arithmetic operations.\r\n *\r\n * NOTE: `SafeMath` is no longer needed starting with Solidity 0.8. The compiler\r\n * now has built in overflow checking.\r\n */\r\nlibrary SafeMath {\r\n    /**\r\n     * @dev Returns the addition of two unsigned integers, with an overflow flag.\r\n     *\r\n     * _Available since v3.4._\r\n     */\r\n    function tryAdd(uint256 a, uint256 b) internal pure returns (bool, uint256) {\r\n        unchecked {\r\n            uint256 c = a + b;\r\n            if (c < a) return (false, 0);\r\n            return (true, c);\r\n        }\r\n    }\r\n\r\n    /**\r\n     * @dev Returns the substraction of two unsigned integers, with an overflow flag.\r\n     *\r\n     * _Available since v3.4._\r\n     */\r\n    function trySub(uint256 a, uint256 b) internal pure returns (bool, uint256) {\r\n        unchecked {\r\n            if (b > a) return (false, 0);\r\n            return (true, a - b);\r\n        }\r\n    }\r\n\r\n    /**\r\n     * @dev Returns the multiplication of two unsigned integers, with an overflow flag.\r\n     *\r\n     * _Available since v3.4._\r\n     */\r\n    function tryMul(uint256 a, uint256 b) internal pure returns (bool, uint256) {\r\n        unchecked {\r\n            // Gas optimization: this is cheaper than requiring 'a' not being zero, but the\r\n            // benefit is lost if 'b' is also tested.\r\n            // See: https://github.com/OpenZeppelin/openzeppelin-contracts/pull/522\r\n            if (a == 0) return (true, 0);\r\n            uint256 c = a * b;\r\n            if (c / a != b) return (false, 0);\r\n            return (true, c);\r\n        }\r\n    }\r\n\r\n    /**\r\n     * @dev Returns the division of two unsigned integers, with a division by zero flag.\r\n     *\r\n     * _Available since v3.4._\r\n     */\r\n    function tryDiv(uint256 a, uint256 b) internal pure returns (bool, uint256) {\r\n        unchecked {\r\n            if (b == 0) return (false, 0);\r\n            return (true, a / b);\r\n        }\r\n    }\r\n\r\n    /**\r\n     * @dev Returns the remainder of dividing two unsigned integers, with a division by zero flag.\r\n     *\r\n     * _Available since v3.4._\r\n     */\r\n    function tryMod(uint256 a, uint256 b) internal pure returns (bool, uint256) {\r\n        unchecked {\r\n            if (b == 0) return (false, 0);\r\n            return (true, a % b);\r\n        }\r\n    }\r\n\r\n    /**\r\n     * @dev Returns the addition of two unsigned integers, reverting on\r\n     * overflow.\r\n     *\r\n     * Counterpart to Solidity's `+` operator.\r\n     *\r\n     * Requirements:\r\n     *\r\n     * - Addition cannot overflow.\r\n     */\r\n    function add(uint256 a, uint256 b) internal pure returns (uint256) {\r\n        return a + b;\r\n    }\r\n\r\n    /**\r\n     * @dev Returns the subtraction of two unsigned integers, reverting on\r\n     * overflow (when the result is negative).\r\n     *\r\n     * Counterpart to Solidity's `-` operator.\r\n     *\r\n     * Requirements:\r\n     *\r\n     * - Subtraction cannot overflow.\r\n     */\r\n    function sub(uint256 a, uint256 b) internal pure returns (uint256) {\r\n        return a - b;\r\n    }\r\n\r\n    /**\r\n     * @dev Returns the multiplication of two unsigned integers, reverting on\r\n     * overflow.\r\n     *\r\n     * Counterpart to Solidity's `*` operator.\r\n     *\r\n     * Requirements:\r\n     *\r\n     * - Multiplication cannot overflow.\r\n     */\r\n    function mul(uint256 a, uint256 b) internal pure returns (uint256) {\r\n        return a * b;\r\n    }\r\n\r\n    /**\r\n     * @dev Returns the integer division of two unsigned integers, reverting on\r\n     * division by zero. The result is rounded towards zero.\r\n     *\r\n     * Counterpart to Solidity's `/` operator.\r\n     *\r\n     * Requirements:\r\n     *\r\n     * - The divisor cannot be zero.\r\n     */\r\n    function div(uint256 a, uint256 b) internal pure returns (uint256) {\r\n        return a / b;\r\n    }\r\n\r\n    /**\r\n     * @dev Returns the remainder of dividing two unsigned integers. (unsigned integer modulo),\r\n     * reverting when dividing by zero.\r\n     *\r\n     * Counterpart to Solidity's `%` operator. This function uses a `revert`\r\n     * opcode (which leaves remaining gas untouched) while Solidity uses an\r\n     * invalid opcode to revert (consuming all remaining gas).\r\n     *\r\n     * Requirements:\r\n     *\r\n     * - The divisor cannot be zero.\r\n     */\r\n    function mod(uint256 a, uint256 b) internal pure returns (uint256) {\r\n        return a % b;\r\n    }\r\n\r\n    /**\r\n     * @dev Returns the subtraction of two unsigned integers, reverting with custom message on\r\n     * overflow (when the result is negative).\r\n     *\r\n     * CAUTION: This function is deprecated because it requires allocating memory for the error\r\n     * message unnecessarily. For custom revert reasons use {trySub}.\r\n     *\r\n     * Counterpart to Solidity's `-` operator.\r\n     *\r\n     * Requirements:\r\n     *\r\n     * - Subtraction cannot overflow.\r\n     */\r\n    function sub(\r\n        uint256 a,\r\n        uint256 b,\r\n        string memory errorMessage\r\n    ) internal pure returns (uint256) {\r\n        unchecked {\r\n            require(b <= a, errorMessage);\r\n            return a - b;\r\n        }\r\n    }\r\n\r\n    /**\r\n     * @dev Returns the integer division of two unsigned integers, reverting with custom message on\r\n     * division by zero. The result is rounded towards zero.\r\n     *\r\n     * Counterpart to Solidity's `/` operator. Note: this function uses a\r\n     * `revert` opcode (which leaves remaining gas untouched) while Solidity\r\n     * uses an invalid opcode to revert (consuming all remaining gas).\r\n     *\r\n     * Requirements:\r\n     *\r\n     * - The divisor cannot be zero.\r\n     */\r\n    function div(\r\n        uint256 a,\r\n        uint256 b,\r\n        string memory errorMessage\r\n    ) internal pure returns (uint256) {\r\n        unchecked {\r\n            require(b > 0, errorMessage);\r\n            return a / b;\r\n        }\r\n    }\r\n\r\n    /**\r\n     * @dev Returns the remainder of dividing two unsigned integers. (unsigned integer modulo),\r\n     * reverting with custom message when dividing by zero.\r\n     *\r\n     * CAUTION: This function is deprecated because it requires allocating memory for the error\r\n     * message unnecessarily. For custom revert reasons use {tryMod}.\r\n     *\r\n     * Counterpart to Solidity's `%` operator. This function uses a `revert`\r\n     * opcode (which leaves remaining gas untouched) while Solidity uses an\r\n     * invalid opcode to revert (consuming all remaining gas).\r\n     *\r\n     * Requirements:\r\n     *\r\n     * - The divisor cannot be zero.\r\n     */\r\n    function mod(\r\n        uint256 a,\r\n        uint256 b,\r\n        string memory errorMessage\r\n    ) internal pure returns (uint256) {\r\n        unchecked {\r\n            require(b > 0, errorMessage);\r\n            return a % b;\r\n        }\r\n    }\r\n}\r\n\r\n// File: Lottery/EnumerableSet.sol\r\n\r\n\r\n// OpenZeppelin Contracts v4.4.0 (utils/structs/EnumerableSet.sol)\r\n\r\npragma solidity ^0.8.0;\r\n\r\n/**\r\n * @dev Library for managing\r\n * https://en.wikipedia.org/wiki/Set_(abstract_data_type)[sets] of primitive\r\n * types.\r\n *\r\n * Sets have the following properties:\r\n *\r\n * - Elements are added, removed, and checked for existence in constant time\r\n * (O(1)).\r\n * - Elements are enumerated in O(n). No guarantees are made on the ordering.\r\n *\r\n * ```\r\n * contract Example {\r\n *     // Add the library methods\r\n *     using EnumerableSet for EnumerableSet.AddressSet;\r\n *\r\n *     // Declare a set state variable\r\n *     EnumerableSet.AddressSet private mySet;\r\n * }\r\n * ```\r\n *\r\n * As of v3.3.0, sets of type `bytes32` (`Bytes32Set`), `address` (`AddressSet`)\r\n * and `uint256` (`UintSet`) are supported.\r\n */\r\nlibrary EnumerableSet {\r\n    // To implement this library for multiple types with as little code\r\n    // repetition as possible, we write it in terms of a generic Set type with\r\n    // bytes32 values.\r\n    // The Set implementation uses private functions, and user-facing\r\n    // implementations (such as AddressSet) are just wrappers around the\r\n    // underlying Set.\r\n    // This means that we can only create new EnumerableSets for types that fit\r\n    // in bytes32.\r\n\r\n    struct Set {\r\n        // Storage of set values\r\n        bytes32[] _values;\r\n        // Position of the value in the `values` array, plus 1 because index 0\r\n        // means a value is not in the set.\r\n        mapping(bytes32 => uint256) _indexes;\r\n    }\r\n\r\n    /**\r\n     * @dev Add a value to a set. O(1).\r\n     *\r\n     * Returns true if the value was added to the set, that is if it was not\r\n     * already present.\r\n     */\r\n    function _add(Set storage set, bytes32 value) private returns (bool) {\r\n        if (!_contains(set, value)) {\r\n            set._values.push(value);\r\n            // The value is stored at length-1, but we add 1 to all indexes\r\n            // and use 0 as a sentinel value\r\n            set._indexes[value] = set._values.length;\r\n            return true;\r\n        } else {\r\n            return false;\r\n        }\r\n    }\r\n\r\n    /**\r\n     * @dev Removes a value from a set. O(1).\r\n     *\r\n     * Returns true if the value was removed from the set, that is if it was\r\n     * present.\r\n     */\r\n    function _remove(Set storage set, bytes32 value) private returns (bool) {\r\n        // We read and store the value's index to prevent multiple reads from the same storage slot\r\n        uint256 valueIndex = set._indexes[value];\r\n\r\n        if (valueIndex != 0) {\r\n            // Equivalent to contains(set, value)\r\n            // To delete an element from the _values array in O(1), we swap the element to delete with the last one in\r\n            // the array, and then remove the last element (sometimes called as 'swap and pop').\r\n            // This modifies the order of the array, as noted in {at}.\r\n\r\n            uint256 toDeleteIndex = valueIndex - 1;\r\n            uint256 lastIndex = set._values.length - 1;\r\n\r\n            if (lastIndex != toDeleteIndex) {\r\n                bytes32 lastvalue = set._values[lastIndex];\r\n\r\n                // Move the last value to the index where the value to delete is\r\n                set._values[toDeleteIndex] = lastvalue;\r\n                // Update the index for the moved value\r\n                set._indexes[lastvalue] = valueIndex; // Replace lastvalue's index to valueIndex\r\n            }\r\n\r\n            // Delete the slot where the moved value was stored\r\n            set._values.pop();\r\n\r\n            // Delete the index for the deleted slot\r\n            delete set._indexes[value];\r\n\r\n            return true;\r\n        } else {\r\n            return false;\r\n        }\r\n    }\r\n\r\n    /**\r\n     * @dev Returns true if the value is in the set. O(1).\r\n     */\r\n    function _contains(Set storage set, bytes32 value) private view returns (bool) {\r\n        return set._indexes[value] != 0;\r\n    }\r\n\r\n    /**\r\n     * @dev Returns the number of values on the set. O(1).\r\n     */\r\n    function _length(Set storage set) private view returns (uint256) {\r\n        return set._values.length;\r\n    }\r\n\r\n    /**\r\n     * @dev Returns the value stored at position `index` in the set. O(1).\r\n     *\r\n     * Note that there are no guarantees on the ordering of values inside the\r\n     * array, and it may change when more values are added or removed.\r\n     *\r\n     * Requirements:\r\n     *\r\n     * - `index` must be strictly less than {length}.\r\n     */\r\n    function _at(Set storage set, uint256 index) private view returns (bytes32) {\r\n        return set._values[index];\r\n    }\r\n\r\n    /**\r\n     * @dev Return the entire set in an array\r\n     *\r\n     * WARNING: This operation will copy the entire storage to memory, which can be quite expensive. This is designed\r\n     * to mostly be used by view accessors that are queried without any gas fees. Developers should keep in mind that\r\n     * this function has an unbounded cost, and using it as part of a state-changing function may render the function\r\n     * uncallable if the set grows to a point where copying to memory consumes too much gas to fit in a block.\r\n     */\r\n    function _values(Set storage set) private view returns (bytes32[] memory) {\r\n        return set._values;\r\n    }\r\n\r\n\r\n    // AddressSet\r\n\r\n    struct AddressSet {\r\n        Set _inner;\r\n    }\r\n\r\n    /**\r\n     * @dev Add a value to a set. O(1).\r\n     *\r\n     * Returns true if the value was added to the set, that is if it was not\r\n     * already present.\r\n     */\r\n    function add(AddressSet storage set, address value) internal returns (bool) {\r\n        return _add(set._inner, bytes32(uint256(uint160(value))));\r\n    }\r\n\r\n    /**\r\n     * @dev Removes a value from a set. O(1).\r\n     *\r\n     * Returns true if the value was removed from the set, that is if it was\r\n     * present.\r\n     */\r\n    function remove(AddressSet storage set, address value) internal returns (bool) {\r\n        return _remove(set._inner, bytes32(uint256(uint160(value))));\r\n    }\r\n\r\n    /**\r\n     * @dev Returns true if the value is in the set. O(1).\r\n     */\r\n    function contains(AddressSet storage set, address value) internal view returns (bool) {\r\n        return _contains(set._inner, bytes32(uint256(uint160(value))));\r\n    }\r\n\r\n    /**\r\n     * @dev Returns the number of values in the set. O(1).\r\n     */\r\n    function length(AddressSet storage set) internal view returns (uint256) {\r\n        return _length(set._inner);\r\n    }\r\n\r\n    /**\r\n     * @dev Returns the value stored at position `index` in the set. O(1).\r\n     *\r\n     * Note that there are no guarantees on the ordering of values inside the\r\n     * array, and it may change when more values are added or removed.\r\n     *\r\n     * Requirements:\r\n     *\r\n     * - `index` must be strictly less than {length}.\r\n     */\r\n    function at(AddressSet storage set, uint256 index) internal view returns (address) {\r\n        return address(uint160(uint256(_at(set._inner, index))));\r\n    }\r\n\r\n    /**\r\n     * @dev Return the entire set in an array\r\n     *\r\n     * WARNING: This operation will copy the entire storage to memory, which can be quite expensive. This is designed\r\n     * to mostly be used by view accessors that are queried without any gas fees. Developers should keep in mind that\r\n     * this function has an unbounded cost, and using it as part of a state-changing function may render the function\r\n     * uncallable if the set grows to a point where copying to memory consumes too much gas to fit in a block.\r\n     */\r\n    function values(AddressSet storage set) internal view returns (address[] memory) {\r\n        bytes32[] memory store = _values(set._inner);\r\n        address[] memory result;\r\n\r\n        assembly {\r\n            result := store\r\n        }\r\n\r\n        return result;\r\n    }\r\n\r\n    // UintSet\r\n\r\n    struct UintSet {\r\n        Set _inner;\r\n    }\r\n\r\n    /**\r\n     * @dev Add a value to a set. O(1).\r\n     *\r\n     * Returns true if the value was added to the set, that is if it was not\r\n     * already present.\r\n     */\r\n    function add(UintSet storage set, uint256 value) internal returns (bool) {\r\n        return _add(set._inner, bytes32(value));\r\n    }\r\n\r\n    /**\r\n     * @dev Removes a value from a set. O(1).\r\n     *\r\n     * Returns true if the value was removed from the set, that is if it was\r\n     * present.\r\n     */\r\n    function remove(UintSet storage set, uint256 value) internal returns (bool) {\r\n        return _remove(set._inner, bytes32(value));\r\n    }\r\n\r\n    /**\r\n     * @dev Returns true if the value is in the set. O(1).\r\n     */\r\n    function contains(UintSet storage set, uint256 value) internal view returns (bool) {\r\n        return _contains(set._inner, bytes32(value));\r\n    }\r\n\r\n    /**\r\n     * @dev Returns the number of values on the set. O(1).\r\n     */\r\n    function length(UintSet storage set) internal view returns (uint256) {\r\n        return _length(set._inner);\r\n    }\r\n\r\n    /**\r\n     * @dev Returns the value stored at position `index` in the set. O(1).\r\n     *\r\n     * Note that there are no guarantees on the ordering of values inside the\r\n     * array, and it may change when more values are added or removed.\r\n     *\r\n     * Requirements:\r\n     *\r\n     * - `index` must be strictly less than {length}.\r\n     */\r\n    function at(UintSet storage set, uint256 index) internal view returns (uint256) {\r\n        return uint256(_at(set._inner, index));\r\n    }\r\n\r\n    /**\r\n     * @dev Return the entire set in an array\r\n     *\r\n     * WARNING: This operation will copy the entire storage to memory, which can be quite expensive. This is designed\r\n     * to mostly be used by view accessors that are queried without any gas fees. Developers should keep in mind that\r\n     * this function has an unbounded cost, and using it as part of a state-changing function may render the function\r\n     * uncallable if the set grows to a point where copying to memory consumes too much gas to fit in a block.\r\n     */\r\n    function values(UintSet storage set) internal view returns (uint256[] memory) {\r\n        bytes32[] memory store = _values(set._inner);\r\n        uint256[] memory result;\r\n\r\n        assembly {\r\n            result := store\r\n        }\r\n\r\n        return result;\r\n    }\r\n}\r\n\r\n// File: Lottery/Context.sol\r\n\r\npragma solidity ^0.8.0;\r\n/**\r\n * @dev Provides information about the current execution context, including the\r\n * sender of the transaction and its data. While these are generally available\r\n * via msg.sender and msg.data, they should not be accessed in such a direct\r\n * manner, since when dealing with meta-transactions the account sending and\r\n * paying for execution may not be the actual sender (as far as an application\r\n * is concerned).\r\n *\r\n * This contract is only required for intermediate, library-like contracts.\r\n */\r\nabstract contract Context {\r\n    function _msgSender() internal view virtual returns (address) {\r\n        return msg.sender;\r\n    }\r\n\r\n    function _msgData() internal view virtual returns (bytes calldata) {\r\n        return msg.data;\r\n    }\r\n}\r\n\r\n// File: Lottery/Ownable.sol\r\n\r\n\r\npragma solidity ^0.8.0;\r\n/**\r\n * @dev Contract module which provides a basic access control mechanism, where\r\n * there is an account (an owner) that can be granted exclusive access to\r\n * specific functions.\r\n *\r\n * By default, the owner account will be the one that deploys the contract. This\r\n * can later be changed with {transferOwnership}.\r\n *\r\n * This module is used through inheritance. It will make available the modifier\r\n * `onlyOwner`, which can be applied to your functions to restrict their use to\r\n * the owner.\r\n */\r\nabstract contract Ownable is Context {\r\n    address private _owner;\r\n\r\n    event OwnershipTransferred(address indexed previousOwner, address indexed newOwner);\r\n\r\n    /**\r\n     * @dev Initializes the contract setting the deployer as the initial owner.\r\n     */\r\n    constructor() {\r\n        _setOwner(_msgSender());\r\n    }\r\n\r\n    /**\r\n     * @dev Returns the address of the current owner.\r\n     */\r\n    function owner() public view virtual returns (address) {\r\n        return _owner;\r\n    }\r\n\r\n    /**\r\n     * @dev Throws if called by any account other than the owner.\r\n     */\r\n    modifier onlyOwner() {\r\n        require(owner() == _msgSender(), \"Ownable: caller is not the owner\");\r\n        _;\r\n    }\r\n\r\n    /**\r\n     * @dev Leaves the contract without owner. It will not be possible to call\r\n     * `onlyOwner` functions anymore. Can only be called by the current owner.\r\n     *\r\n     * NOTE: Renouncing ownership will leave the contract without an owner,\r\n     * thereby removing any functionality that is only available to the owner.\r\n     */\r\n    function renounceOwnership() public virtual onlyOwner {\r\n        _setOwner(address(0));\r\n    }\r\n\r\n    /**\r\n     * @dev Transfers ownership of the contract to a new account (`newOwner`).\r\n     * Can only be called by the current owner.\r\n     */\r\n    function transferOwnership(address newOwner) public virtual onlyOwner {\r\n        require(newOwner != address(0), \"Ownable: new owner is the zero address\");\r\n        _setOwner(newOwner);\r\n    }\r\n\r\n    function _setOwner(address newOwner) private {\r\n        address oldOwner = _owner;\r\n        _owner = newOwner;\r\n        emit OwnershipTransferred(oldOwner, newOwner);\r\n    }\r\n}\r\n\r\n// File: Lottery/IERC20.sol\r\n\r\n\r\npragma solidity ^0.8.0;\r\n\r\ninterface IERC20 {\r\n    event Approval(address indexed owner, address indexed spender, uint value);\r\n    event Transfer(address indexed from, address indexed to, uint value);\r\n\r\n    function name() external view returns (string memory);\r\n    function symbol() external view returns (string memory);\r\n    function decimals() external view returns (uint8);\r\n    function totalSupply() external view returns (uint);\r\n    function balanceOf(address owner) external view returns (uint);\r\n    function allowance(address owner, address spender) external view returns (uint);\r\n\r\n    function approve(address spender, uint value) external returns (bool);\r\n    function transfer(address to, uint value) external returns (bool);\r\n    function transferFrom(address from, address to, uint value) external returns (bool);\r\n}\r\n\r\n// File: Lottery/Lottery.sol\r\n\r\n\r\npragma solidity ^0.8.0;\r\n\r\n\r\ncontract Lottery is Ownable, VRFConsumerBase {\r\n\r\n    bytes32 internal keyHash;\r\n    uint256 internal fee;\r\n    uint256 public randomResult;\r\n    \r\n    constructor() VRFConsumerBase(\r\n            0xa555fC018435bef5A13C6c6870a9d4C11DEC329C, // VRF Coordinator\r\n            0x84b9B910527Ad5C03A9Ca831909E21e236EA7b06   // LINK Token\r\n        )\r\n    {\r\n        keyHash = 0xcaf3c3727e033261d383b315559476f48034c13b18f8cafed4d871abe5049186;\r\n        fee = 0.1 * 10 ** 18; // 0.1 LINK \r\n    }\r\n\r\n    using EnumerableSet for EnumerableSet.AddressSet;\r\n    using EnumerableSet for EnumerableSet.UintSet;\r\n\r\n    using SafeMath for uint;\r\n\r\n    EnumerableSet.AddressSet private activeUsers;\r\n    EnumerableSet.UintSet private activeLotteries;\r\n\r\n    uint public lotteriesCount;    \r\n    uint public minTokenRequire = 10_000;\r\n    uint public maxTicketLimit = 10;\r\n    address public OURAddress;\r\n\r\n    mapping(address => uint) userActiveLotteryID;\r\n    // mapping(address => uint[]) userLotteriesIDList;\r\n    mapping(bytes32 => address) lotteryRandomenessID;\r\n\r\n    mapping(uint => LotteryInfo) lotteryInfo;\r\n    mapping(uint => mapping(address =>  UserContributions)) public userContributions;\r\n\r\n\r\n    enum Status {STARTED, ENDED}\r\n    \r\n    struct UserContributions {\r\n        uint tickets;\r\n        uint contribution;\r\n    }\r\n\r\n    struct LotteryInfo {\r\n        uint id;\r\n        Status staus;\r\n        address owner;\r\n        uint priceOfTicket;\r\n        uint endingtime;\r\n        address[] partipants;\r\n        uint countOfParticipants;\r\n        uint countOfTickets;\r\n        uint accumulatedFunds;\r\n        address winner;\r\n        uint winnerIndex;\r\n        uint prize;\r\n        uint ownerCommision;\r\n    }\r\n\r\n    // Modifiers\r\n    modifier HoldRequiredTokens() {\r\n        require(IERC20(OURAddress).balanceOf(_msgSender()) >= minTokenRequire, \"Not enough TOKENS, Please buy more\");\r\n        _;\r\n    }\r\n\r\n    modifier userNotExists() {\r\n        require( !(EnumerableSet.contains(activeUsers, _msgSender())), \"User already running a lottery\" );\r\n        _;\r\n    }\r\n\r\n    modifier isLotteryActive(uint _id) {\r\n        require( block.timestamp < lotteryInfo[_id].endingtime , \"Lottery has been expired. Try next time\" );\r\n        _;\r\n    }\r\n\r\n    // Internal functions to be used by other functions.\r\n    function addActiveUser() internal returns (bool) {\r\n        return EnumerableSet.add(activeUsers, _msgSender());\r\n    }\r\n\r\n    function removeActiveUser() internal returns (bool) {\r\n        return EnumerableSet.remove(activeUsers, _msgSender());\r\n    }\r\n\r\n    function listOfActiveUsers() public view returns (address[] memory) {\r\n        return EnumerableSet.values(activeUsers);\r\n    }\r\n\r\n    function addActiveLottery(uint _id) internal returns (bool) {\r\n        return EnumerableSet.add(activeLotteries, _id);\r\n    }\r\n\r\n    function removeLottery(uint _id) internal returns (bool) {\r\n        return EnumerableSet.remove(activeLotteries, _id);\r\n    }\r\n\r\n    // Public functions to interact with lottery\r\n    function startALottery(uint _priceOfTicket, uint _endingtime) public userNotExists HoldRequiredTokens {\r\n        \r\n        require(\r\n            _endingtime >= block.timestamp + 6 hours &&\r\n            _endingtime <= block.timestamp + 120 days,          \r\n            \"Ending time should be more than 6 hours and less then 120 days\"\r\n            );\r\n\r\n        lotteriesCount++;\r\n        addActiveUser();\r\n        addActiveLottery(lotteriesCount);\r\n        userActiveLotteryID[_msgSender()] = lotteriesCount;\r\n        // userLotteriesIDList[_msgSender()].push(lotteriesCount);\r\n    \r\n        lotteryInfo[lotteriesCount].id = lotteriesCount;\r\n        lotteryInfo[lotteriesCount].staus = Status.STARTED;\r\n        lotteryInfo[lotteriesCount].owner= _msgSender();\r\n        lotteryInfo[lotteriesCount].priceOfTicket= _priceOfTicket;\r\n        lotteryInfo[lotteriesCount].endingtime= _endingtime;\r\n\r\n    }\r\n\r\n    function buyATicket(uint _id, uint tickets) public isLotteryActive(_id){\r\n        require(tickets > 0 && tickets <= maxTicketLimit, \"Cannt by more than Max limit in one trasaction\");\r\n        \r\n        require(\r\n            IERC20(OURAddress).transferFrom(_msgSender(), address(this), tickets*lotteryInfo[_id].priceOfTicket), \r\n            \"Insufficient Balance\"\r\n            );\r\n\r\n        lotteryInfo[_id].accumulatedFunds += tickets*lotteryInfo[_id].priceOfTicket;\r\n        userContributions[_id][_msgSender()].contribution += tickets*lotteryInfo[_id].priceOfTicket;\r\n\r\n\r\n        if(userContributions[_id][_msgSender()].tickets == 0 ){\r\n            lotteryInfo[_id].countOfParticipants++;\r\n        }\r\n\r\n        for(uint i = 1; i <= tickets; i++ ){\r\n            lotteryInfo[_id].partipants.push(_msgSender()) ;\r\n            userContributions[_id][_msgSender()].tickets++ ;\r\n            lotteryInfo[_id].countOfTickets++ ;\r\n        }\r\n\r\n    }\r\n\r\n    function endALottery() public {\r\n        uint _id = userActiveLotteryID[_msgSender()];\r\n        \r\n        require( _id != 0 , \"No lottery to end\");\r\n        require(block.timestamp > lotteryInfo[_id].endingtime, \"lottery still in progress\");\r\n        \r\n        if(lotteryInfo[_id].accumulatedFunds > 0){            \r\n            require(LINK.balanceOf(address(this)) >= fee, \"Not enough LINK - fill contract with faucet\");\r\n            bytes32 requestId = requestRandomness(keyHash, fee);\r\n            lotteryRandomenessID[requestId] = msg.sender;\r\n        }\r\n        else {\r\n            lotteryInfo[_id].staus = Status.ENDED;\r\n            removeActiveUser();\r\n            removeLottery(userActiveLotteryID[_msgSender()]);\r\n            delete userActiveLotteryID[_msgSender()];     \r\n        }\r\n\r\n    }\r\n\r\n\r\n    function fulfillRandomness(bytes32 requestId, uint256 randomness) internal override {\r\n\r\n        randomResult = randomness;\r\n\r\n        uint _id = userActiveLotteryID[lotteryRandomenessID[requestId]];\r\n        uint winnerIndex = randomness.mod(lotteryInfo[_id].partipants.length);\r\n        lotteryInfo[_id].winnerIndex = winnerIndex;\r\n\r\n        address winnerAddr = lotteryInfo[_id].partipants[winnerIndex];\r\n        lotteryInfo[_id].winner = winnerAddr;\r\n\r\n\r\n        uint prize = lotteryInfo[_id].accumulatedFunds.mul(92).div(100);\r\n        uint ownerCommision = lotteryInfo[_id].accumulatedFunds.mul(4).div(100);\r\n\r\n        bool withdrawPrize = IERC20(OURAddress).transfer(winnerAddr, prize);\r\n        require(withdrawPrize, \"withdrawPrize is unseccessfull\");\r\n\r\n        bool sendOnerCommision = IERC20(OURAddress).transfer(_msgSender(), ownerCommision);\r\n        require(sendOnerCommision, \"sendOnerCommision is unseccessfull\");\r\n\r\n        lotteryInfo[_id].prize = prize;\r\n        lotteryInfo[_id].ownerCommision = ownerCommision;\r\n        lotteryInfo[_id].staus = Status.ENDED;\r\n\r\n        removeActiveUser();\r\n        removeLottery(userActiveLotteryID[_msgSender()]);\r\n        delete userActiveLotteryID[_msgSender()];   \r\n\r\n    }\r\n\r\n    function myActiveLotteryID() public view returns (uint){\r\n        return userActiveLotteryID[_msgSender()];\r\n    }\r\n\r\n    function getLotteryInfo(uint _id) public view returns (LotteryInfo memory) {\r\n        return lotteryInfo[_id];\r\n    }\r\n\r\n    // function myLotteriesIDList() public view returns (uint[] memory){\r\n    //     return userLotteriesIDList[_msgSender()];\r\n    // }\r\n\r\n    function listOfActiveLotteriesID() public view returns (uint256[] memory) {\r\n        return EnumerableSet.values(activeLotteries);\r\n    }\r\n\r\n    function activeLotteriesCount() public view returns (uint256) {\r\n        return EnumerableSet.length(activeLotteries);\r\n    }\r\n\r\n    // Functions for owner privilege\r\n    function updateCriteriaToken(address _address) public onlyOwner {\r\n        OURAddress = _address;\r\n    }\r\n\r\n    function updateMaxTicketLimit(uint _maxTicketLimit) public onlyOwner {\r\n        maxTicketLimit = _maxTicketLimit;\r\n    }\r\n    \r\n    function updateMinTokenRequire(uint _minToken) public onlyOwner {\r\n        minTokenRequire = _minToken;\r\n    }\r\n\r\n    function withdrawFunds() public onlyOwner {\r\n        uint balance = IERC20(OURAddress).balanceOf(address(this));\r\n        require(balance > 0, \"Nothing to withdraw\");\r\n\r\n        bool withdrawed = IERC20(OURAddress).transfer(_msgSender(), balance);\r\n        require(withdrawed, \"Withdrwa is unseccessfull\");\r\n\r\n    }\r\n\r\n    function withdrawLink() external onlyOwner{\r\n        uint balance = LINK.balanceOf(address(this));\r\n        require(balance > 0, \"Nothing to withdraw\");\r\n\r\n        bool withdrawed = LINK.transfer(_msgSender(), balance);\r\n        require(withdrawed, \"Withdrwa is unseccessfull\");\r\n    } \r\n\r\n    function linkBalance() external view returns(uint) {\r\n        uint balance = LINK.balanceOf(address(this));\r\n        return balance;\r\n\r\n    }\r\n\r\n}\r\n\r\n",
  "sourcePath": "D:\\Fiverr\\Lottery\\Contract\\contracts\\Lottery.sol",
  "compiler": {
    "name": "solc",
    "version": "0.8.7+commit.e28d00a7.Emscripten.clang"
  },
  "schemaVersion": "3.4.3",
  "updatedAt": "2022-01-12T15:13:18.265Z",
  "devdoc": {
    "kind": "dev",
    "methods": {
      "owner()": {
        "details": "Returns the address of the current owner."
      },
      "renounceOwnership()": {
        "details": "Leaves the contract without owner. It will not be possible to call `onlyOwner` functions anymore. Can only be called by the current owner. NOTE: Renouncing ownership will leave the contract without an owner, thereby removing any functionality that is only available to the owner."
      },
      "transferOwnership(address)": {
        "details": "Transfers ownership of the contract to a new account (`newOwner`). Can only be called by the current owner."
      }
    },
    "version": 1
  },
  "userdoc": {
    "kind": "user",
    "methods": {},
    "version": 1
  }
}