{
  "contractName": "TestCoin",
  "abi": [
    {
      "inputs": [],
      "name": "totalSupply",
      "outputs": [
        {
          "internalType": "uint256",
          "name": "",
          "type": "uint256"
        }
      ],
      "stateMutability": "view",
      "type": "function"
    },
    {
      "inputs": [
        {
          "internalType": "address",
          "name": "account",
          "type": "address"
        }
      ],
      "name": "balanceOf",
      "outputs": [
        {
          "internalType": "uint256",
          "name": "",
          "type": "uint256"
        }
      ],
      "stateMutability": "view",
      "type": "function"
    },
    {
      "inputs": [
        {
          "internalType": "address",
          "name": "recipient",
          "type": "address"
        },
        {
          "internalType": "uint256",
          "name": "amount",
          "type": "uint256"
        }
      ],
      "name": "transfer",
      "outputs": [
        {
          "internalType": "bool",
          "name": "",
          "type": "bool"
        }
      ],
      "stateMutability": "nonpayable",
      "type": "function"
    },
    {
      "inputs": [
        {
          "internalType": "address",
          "name": "owner",
          "type": "address"
        },
        {
          "internalType": "address",
          "name": "spender",
          "type": "address"
        }
      ],
      "name": "allowance",
      "outputs": [
        {
          "internalType": "uint256",
          "name": "",
          "type": "uint256"
        }
      ],
      "stateMutability": "view",
      "type": "function"
    },
    {
      "inputs": [
        {
          "internalType": "address",
          "name": "spender",
          "type": "address"
        },
        {
          "internalType": "uint256",
          "name": "amount",
          "type": "uint256"
        }
      ],
      "name": "approve",
      "outputs": [
        {
          "internalType": "bool",
          "name": "",
          "type": "bool"
        }
      ],
      "stateMutability": "nonpayable",
      "type": "function"
    },
    {
      "inputs": [
        {
          "internalType": "address",
          "name": "sender",
          "type": "address"
        },
        {
          "internalType": "address",
          "name": "recipient",
          "type": "address"
        },
        {
          "internalType": "uint256",
          "name": "amount",
          "type": "uint256"
        }
      ],
      "name": "transferFrom",
      "outputs": [
        {
          "internalType": "bool",
          "name": "",
          "type": "bool"
        }
      ],
      "stateMutability": "nonpayable",
      "type": "function"
    },
    {
      "inputs": [
        {
          "internalType": "address",
          "name": "account",
          "type": "address"
        },
        {
          "internalType": "uint256",
          "name": "amount",
          "type": "uint256"
        }
      ],
      "name": "_mint",
      "outputs": [],
      "stateMutability": "nonpayable",
      "type": "function"
    },
    {
      "inputs": [],
      "name": "name",
      "outputs": [
        {
          "internalType": "string",
          "name": "",
          "type": "string"
        }
      ],
      "stateMutability": "view",
      "type": "function"
    },
    {
      "inputs": [],
      "name": "symbol",
      "outputs": [
        {
          "internalType": "string",
          "name": "",
          "type": "string"
        }
      ],
      "stateMutability": "view",
      "type": "function"
    },
    {
      "inputs": [],
      "name": "decimals",
      "outputs": [
        {
          "internalType": "uint8",
          "name": "",
          "type": "uint8"
        }
      ],
      "stateMutability": "pure",
      "type": "function"
    }
  ],
  "bytecode": "0x60c060405260086080819052672a32b9ba21b7b4b760c11b60a09081526100299160039190610066565b5060408051808201909152600280825261544360f01b602090920191825261005391600491610066565b5034801561006057600080fd5b5061013a565b828054610072906100ff565b90600052602060002090601f01602090048101928261009457600085556100da565b82601f106100ad57805160ff19168380011785556100da565b828001600101855582156100da579182015b828111156100da5782518255916020019190600101906100bf565b506100e69291506100ea565b5090565b5b808211156100e657600081556001016100eb565b600181811c9082168061011357607f821691505b6020821081141561013457634e487b7160e01b600052602260045260246000fd5b50919050565b6107ed806101496000396000f3fe608060405234801561001057600080fd5b506004361061009e5760003560e01c80634e6ec247116100665780634e6ec2471461011857806370a082311461012d57806395d89b4114610156578063a9059cbb1461015e578063dd62ed3e1461017157600080fd5b806306fdde03146100a3578063095ea7b3146100c157806318160ddd146100e457806323b872dd146100f6578063313ce56714610109575b600080fd5b6100ab6101aa565b6040516100b89190610701565b60405180910390f35b6100d46100cf3660046106d7565b61023c565b60405190151581526020016100b8565b6002545b6040519081526020016100b8565b6100d461010436600461069b565b610252565b604051601281526020016100b8565b61012b6101263660046106d7565b610301565b005b6100e861013b366004610646565b6001600160a01b031660009081526020819052604090205490565b6100ab61039f565b6100d461016c3660046106d7565b6103ae565b6100e861017f366004610668565b6001600160a01b03918216600090815260016020908152604080832093909416825291909152205490565b6060600380546101b99061077c565b80601f01602080910402602001604051908101604052809291908181526020018280546101e59061077c565b80156102325780601f1061020757610100808354040283529160200191610232565b820191906000526020600020905b81548152906001019060200180831161021557829003601f168201915b5050505050905090565b60006102493384846103bb565b50600192915050565b600061025f8484846104aa565b6001600160a01b0384166000908152600160209081526040808320338452909152902054828110156102e95760405162461bcd60e51b815260206004820152602860248201527f45524332303a207472616e7366657220616d6f756e74206578636565647320616044820152676c6c6f77616e636560c01b60648201526084015b60405180910390fd5b6102f685338584036103bb565b506001949350505050565b6001600160a01b0382166103575760405162461bcd60e51b815260206004820152601f60248201527f45524332303a206d696e7420746f20746865207a65726f20616464726573730060448201526064016102e0565b80600260008282546103699190610756565b90915550506001600160a01b03821660009081526020819052604081208054839290610396908490610756565b90915550505050565b6060600480546101b99061077c565b60006102493384846104aa565b6001600160a01b03831661041d5760405162461bcd60e51b8152602060048201526024808201527f45524332303a20617070726f76652066726f6d20746865207a65726f206164646044820152637265737360e01b60648201526084016102e0565b6001600160a01b03821661047e5760405162461bcd60e51b815260206004820152602260248201527f45524332303a20617070726f766520746f20746865207a65726f206164647265604482015261737360f01b60648201526084016102e0565b6001600160a01b0392831660009081526001602090815260408083209490951682529290925291902055565b6001600160a01b03831661050e5760405162461bcd60e51b815260206004820152602560248201527f45524332303a207472616e736665722066726f6d20746865207a65726f206164604482015264647265737360d81b60648201526084016102e0565b6001600160a01b0382166105705760405162461bcd60e51b815260206004820152602360248201527f45524332303a207472616e7366657220746f20746865207a65726f206164647260448201526265737360e81b60648201526084016102e0565b6001600160a01b038316600090815260208190526040902054818110156105e85760405162461bcd60e51b815260206004820152602660248201527f45524332303a207472616e7366657220616d6f756e7420657863656564732062604482015265616c616e636560d01b60648201526084016102e0565b6001600160a01b0380851660009081526020819052604080822085850390559185168152908120805484929061061f908490610756565b909155505050505050565b80356001600160a01b038116811461064157600080fd5b919050565b60006020828403121561065857600080fd5b6106618261062a565b9392505050565b6000806040838503121561067b57600080fd5b6106848361062a565b91506106926020840161062a565b90509250929050565b6000806000606084860312156106b057600080fd5b6106b98461062a565b92506106c76020850161062a565b9150604084013590509250925092565b600080604083850312156106ea57600080fd5b6106f38361062a565b946020939093013593505050565b600060208083528351808285015260005b8181101561072e57858101830151858201604001528201610712565b81811115610740576000604083870101525b50601f01601f1916929092016040019392505050565b6000821982111561077757634e487b7160e01b600052601160045260246000fd5b500190565b600181811c9082168061079057607f821691505b602082108114156107b157634e487b7160e01b600052602260045260246000fd5b5091905056fea2646970667358221220e65083f6b2dcc9bf775f6c628755ca9993e875a51f9bf1d7355fc48b98c2180764736f6c63430008070033",
  "immutableReferences": {},
  "source": "// SPDX-License-Identifier: MIT\r\n\r\npragma solidity ^0.8.0;\r\n\r\n/**\r\n * @dev Provides information about the current execution context, including the\r\n * sender of the transaction and its data. While these are generally available\r\n * via msg.sender and msg.data, they should not be accessed in such a direct\r\n * manner, since when dealing with meta-transactions the account sending and\r\n * paying for execution may not be the actual sender (as far as an application\r\n * is concerned).\r\n *\r\n * This contract is only required for intermediate, library-like contracts.\r\n */\r\nabstract contract Context {\r\n    function _msgSender() internal view virtual returns (address) {\r\n        return msg.sender;\r\n    }\r\n\r\n    function _msgData() internal view virtual returns (bytes calldata) {\r\n        return msg.data;\r\n    }\r\n}\r\n\r\n\r\npragma solidity ^0.8.0;\r\n\r\ncontract TestCoin {\r\n\r\n    mapping(address => uint256) private _balances;\r\n    mapping(address => mapping(address => uint256)) private _allowances;\r\n\r\n    uint256 private _totalSupply;\r\n    string private _name = \"TestCoin\";\r\n    string private _symbol = \"TC\";\r\n\r\n    function totalSupply() public view virtual returns (uint256) {\r\n        return _totalSupply;\r\n    }\r\n\r\n    function balanceOf(address account) public view virtual returns (uint256) {\r\n        return _balances[account];\r\n    }\r\n\r\n    function transfer(address recipient, uint256 amount) public returns (bool) {\r\n        _transfer(msg.sender, recipient, amount);\r\n        return true;\r\n    }\r\n\r\n    function allowance(address owner, address spender) public view virtual returns (uint256) {\r\n        return _allowances[owner][spender];\r\n    }\r\n\r\n    function approve(address spender, uint256 amount) public virtual returns (bool) {\r\n        _approve(msg.sender, spender, amount);\r\n        return true;\r\n    }\r\n\r\n    function transferFrom(\r\n        address sender,\r\n        address recipient,\r\n        uint256 amount\r\n    ) public returns (bool) {\r\n        _transfer(sender, recipient, amount);\r\n\r\n        uint256 currentAllowance = _allowances[sender][msg.sender];\r\n        require(currentAllowance >= amount, \"ERC20: transfer amount exceeds allowance\");\r\n        unchecked {\r\n            _approve(sender, msg.sender, currentAllowance - amount);\r\n        }\r\n\r\n        return true;\r\n    }\r\n\r\n    function _transfer(\r\n        address sender,\r\n        address recipient,\r\n        uint256 amount\r\n    ) internal virtual {\r\n        require(sender != address(0), \"ERC20: transfer from the zero address\");\r\n        require(recipient != address(0), \"ERC20: transfer to the zero address\");\r\n\r\n        uint256 senderBalance = _balances[sender];\r\n        require(senderBalance >= amount, \"ERC20: transfer amount exceeds balance\");\r\n        unchecked {\r\n            _balances[sender] = senderBalance - amount;\r\n        }\r\n        _balances[recipient] += amount;\r\n\r\n    }\r\n\r\n    function _mint(address account, uint256 amount) public {\r\n        require(account != address(0), \"ERC20: mint to the zero address\");\r\n\r\n        _totalSupply += amount;\r\n        _balances[account] += amount;\r\n    }\r\n\r\n    function _approve(\r\n        address owner,\r\n        address spender,\r\n        uint256 amount\r\n    ) internal virtual {\r\n        require(owner != address(0), \"ERC20: approve from the zero address\");\r\n        require(spender != address(0), \"ERC20: approve to the zero address\");\r\n\r\n        _allowances[owner][spender] = amount;\r\n    }\r\n\r\n\r\n    function name() public view returns (string memory) {\r\n        return _name;\r\n    }\r\n\r\n    /**\r\n     * @dev Returns the symbol of the token.\r\n     */\r\n    function symbol() public view returns (string memory){\r\n        return _symbol;\r\n    }\r\n\r\n    /**\r\n     * @dev Returns the decimals places of the token.\r\n     */\r\n    function decimals() public pure returns (uint8){\r\n        return 18;\r\n    }\r\n\r\n\r\n\r\n}\r\n",
  "sourcePath": "D:\\Fiverr\\Lottery\\Contract\\contracts\\TestCoin.sol",
  "compiler": {
    "name": "solc",
    "version": "0.8.7+commit.e28d00a7.Emscripten.clang"
  },
  "schemaVersion": "3.4.3",
  "updatedAt": "2022-01-15T15:35:53.763Z",
  "devdoc": {
    "kind": "dev",
    "methods": {
      "decimals()": {
        "details": "Returns the decimals places of the token."
      },
      "symbol()": {
        "details": "Returns the symbol of the token."
      }
    },
    "version": 1
  },
  "userdoc": {
    "kind": "user",
    "methods": {},
    "version": 1
  }
}